{
  "contractName": "EventManager",
  "abi": [
    {
      "inputs": [],
      "stateMutability": "nonpayable",
      "type": "constructor"
    },
    {
      "inputs": [],
      "name": "init_storage",
      "outputs": [],
      "stateMutability": "nonpayable",
      "type": "function"
    },
    {
      "inputs": [],
      "name": "export_storage",
      "outputs": [
        {
          "internalType": "address",
          "name": "user_storage_address",
          "type": "address"
        },
        {
          "internalType": "address",
          "name": "event_storage_address",
          "type": "address"
        }
      ],
      "stateMutability": "view",
      "type": "function"
    },
    {
      "inputs": [],
      "name": "login",
      "outputs": [
        {
          "internalType": "bool",
          "name": "is_user",
          "type": "bool"
        }
      ],
      "stateMutability": "view",
      "type": "function"
    },
    {
      "inputs": [],
      "name": "register",
      "outputs": [
        {
          "internalType": "uint256",
          "name": "user_id",
          "type": "uint256"
        }
      ],
      "stateMutability": "nonpayable",
      "type": "function"
    },
    {
      "inputs": [],
      "name": "getUserCount",
      "outputs": [
        {
          "internalType": "uint256",
          "name": "user_count",
          "type": "uint256"
        }
      ],
      "stateMutability": "view",
      "type": "function"
    },
    {
      "inputs": [
        {
          "internalType": "uint256",
          "name": "id",
          "type": "uint256"
        }
      ],
      "name": "getUserById",
      "outputs": [
        {
          "internalType": "address payable",
          "name": "user_address",
          "type": "address"
        }
      ],
      "stateMutability": "view",
      "type": "function"
    },
    {
      "inputs": [
        {
          "internalType": "string",
          "name": "event_name",
          "type": "string"
        },
        {
          "internalType": "string",
          "name": "event_location",
          "type": "string"
        },
        {
          "internalType": "uint256",
          "name": "event_start_time",
          "type": "uint256"
        },
        {
          "internalType": "uint256",
          "name": "event_end_time",
          "type": "uint256"
        }
      ],
      "name": "createUserEvent",
      "outputs": [
        {
          "internalType": "address",
          "name": "new_event_address",
          "type": "address"
        }
      ],
      "stateMutability": "nonpayable",
      "type": "function"
    },
    {
      "inputs": [],
      "name": "getEventCount",
      "outputs": [
        {
          "internalType": "uint256",
          "name": "event_count",
          "type": "uint256"
        }
      ],
      "stateMutability": "view",
      "type": "function"
    },
    {
      "inputs": [
        {
          "internalType": "uint256",
          "name": "event_id",
          "type": "uint256"
        }
      ],
      "name": "getEventById",
      "outputs": [
        {
          "internalType": "contract Event",
          "name": "event_element",
          "type": "address"
        }
      ],
      "stateMutability": "view",
      "type": "function"
    },
    {
      "inputs": [
        {
          "internalType": "address",
          "name": "event_address",
          "type": "address"
        }
      ],
      "name": "getEventPosition",
      "outputs": [
        {
          "internalType": "uint256",
          "name": "event_position",
          "type": "uint256"
        }
      ],
      "stateMutability": "view",
      "type": "function"
    },
    {
      "inputs": [
        {
          "internalType": "contract Event",
          "name": "event_address",
          "type": "address"
        }
      ],
      "name": "getEventInfo",
      "outputs": [
        {
          "internalType": "address",
          "name": "event_id",
          "type": "address"
        },
        {
          "internalType": "address",
          "name": "event_initiator",
          "type": "address"
        },
        {
          "internalType": "string",
          "name": "event_name",
          "type": "string"
        },
        {
          "internalType": "string",
          "name": "event_location",
          "type": "string"
        },
        {
          "internalType": "uint256",
          "name": "event_start_time",
          "type": "uint256"
        },
        {
          "internalType": "uint256",
          "name": "event_end_time",
          "type": "uint256"
        },
        {
          "internalType": "uint256",
          "name": "event_created_time",
          "type": "uint256"
        },
        {
          "internalType": "contract Set",
          "name": "event_participants",
          "type": "address"
        }
      ],
      "stateMutability": "view",
      "type": "function"
    },
    {
      "inputs": [],
      "name": "getAllEvents",
      "outputs": [
        {
          "internalType": "contract Event[]",
          "name": "all_events",
          "type": "address[]"
        }
      ],
      "stateMutability": "view",
      "type": "function"
    },
    {
      "inputs": [],
      "name": "getUserEvents",
      "outputs": [
        {
          "internalType": "address[]",
          "name": "user_events",
          "type": "address[]"
        }
      ],
      "stateMutability": "view",
      "type": "function"
    },
    {
      "inputs": [],
      "name": "getUserParticipantEvents",
      "outputs": [
        {
          "internalType": "address[]",
          "name": "user_participant_events",
          "type": "address[]"
        }
      ],
      "stateMutability": "view",
      "type": "function"
    },
    {
      "inputs": [
        {
          "internalType": "contract Event",
          "name": "event_address",
          "type": "address"
        }
      ],
      "name": "participateEventById",
      "outputs": [],
      "stateMutability": "nonpayable",
      "type": "function"
    },
    {
      "inputs": [
        {
          "internalType": "contract Event",
          "name": "event_address",
          "type": "address"
        }
      ],
      "name": "getEventParticipants",
      "outputs": [
        {
          "internalType": "address[]",
          "name": "participants_array",
          "type": "address[]"
        }
      ],
      "stateMutability": "view",
      "type": "function"
    },
    {
      "inputs": [
        {
          "internalType": "contract Event",
          "name": "event_address",
          "type": "address"
        },
        {
          "internalType": "string",
          "name": "event_item_name",
          "type": "string"
        }
      ],
      "name": "createUserEventItem",
      "outputs": [],
      "stateMutability": "nonpayable",
      "type": "function"
    },
    {
      "inputs": [
        {
          "internalType": "contract Event",
          "name": "event_address",
          "type": "address"
        },
        {
          "internalType": "uint256",
          "name": "event_item_id",
          "type": "uint256"
        }
      ],
      "name": "getEventItemInfo",
      "outputs": [
        {
          "internalType": "uint256",
          "name": "item_id",
          "type": "uint256"
        },
        {
          "internalType": "address payable",
          "name": "item_holder",
          "type": "address"
        },
        {
          "internalType": "string",
          "name": "item_name",
          "type": "string"
        },
        {
          "internalType": "uint256",
          "name": "item_time_expiration",
          "type": "uint256"
        },
        {
          "internalType": "bool",
          "name": "item_checked",
          "type": "bool"
        }
      ],
      "stateMutability": "view",
      "type": "function"
    },
    {
      "inputs": [
        {
          "internalType": "contract Event",
          "name": "event_address",
          "type": "address"
        }
      ],
      "name": "getEventItemCount",
      "outputs": [
        {
          "internalType": "uint256",
          "name": "item_count",
          "type": "uint256"
        }
      ],
      "stateMutability": "view",
      "type": "function"
    },
    {
      "inputs": [
        {
          "internalType": "contract Event",
          "name": "event_address",
          "type": "address"
        },
        {
          "internalType": "uint256",
          "name": "item_id",
          "type": "uint256"
        }
      ],
      "name": "updateEventItemState",
      "outputs": [],
      "stateMutability": "nonpayable",
      "type": "function"
    },
    {
      "inputs": [
        {
          "internalType": "contract Event",
          "name": "event_address",
          "type": "address"
        },
        {
          "internalType": "uint256",
          "name": "event_item_id",
          "type": "uint256"
        }
      ],
      "name": "removeEventItem",
      "outputs": [],
      "stateMutability": "nonpayable",
      "type": "function"
    },
    {
      "inputs": [
        {
          "internalType": "contract Event",
          "name": "event_address",
          "type": "address"
        }
      ],
      "name": "removeEvent",
      "outputs": [],
      "stateMutability": "nonpayable",
      "type": "function"
    }
  ],
  "bytecode": "0x608060405273ad67a760e4cb77e19f1b7b79d6b4901b5360def1600260006101000a81548173ffffffffffffffffffffffffffffffffffffffff021916908373ffffffffffffffffffffffffffffffffffffffff16021790555034801561006557600080fd5b50600260009054906101000a900473ffffffffffffffffffffffffffffffffffffffff1673ffffffffffffffffffffffffffffffffffffffff163373ffffffffffffffffffffffffffffffffffffffff1614610129576040517f08c379a000000000000000000000000000000000000000000000000000000000815260040180806020018281038252600d8152602001807f4163636573732064656e6965640000000000000000000000000000000000000081525060200191505060405180910390fd5b61a8ad80620001396000396000f3fe60806040523480156200001157600080fd5b50600436106200017c576000357c0100000000000000000000000000000000000000000000000000000000900480639568ebf611620000e6578063b98079bc11620000a4578063b98079bc1462000a9d578063b9f827021462000b0e578063c27a500d1462000b55578063c386e5451462000bb8578063d9e48f5c1462000c09578063eaf8bcdd1462000c29576200017c565b80639568ebf6146200094057806398f82573146200099b578063acf65ecd14620009f6578063b34e97e81462000a59578063b5cb15f71462000a7d576200017c565b8063280ea2531162000140578063280ea25314620005e45780632bf7698014620006fd578063328cadef146200070957806366bc7b7f146200075057806368d02e0014620008315780636ed6da9e14620008cf576200017c565b80620ad44e14620001815780630f0332a314620001d25780630f97756114620003b2578063138b5db614620004155780631aa3a00814620005c4575b600080fd5b620001d0600480360360408110156200019957600080fd5b81019080803573ffffffffffffffffffffffffffffffffffffffff1690602001909291908035906020019092919050505062000ca8565b005b6200021760048036036020811015620001ea57600080fd5b81019080803573ffffffffffffffffffffffffffffffffffffffff16906020019092919050505062000eb8565b604051808973ffffffffffffffffffffffffffffffffffffffff1673ffffffffffffffffffffffffffffffffffffffff1681526020018873ffffffffffffffffffffffffffffffffffffffff1673ffffffffffffffffffffffffffffffffffffffff16815260200180602001806020018781526020018681526020018581526020018473ffffffffffffffffffffffffffffffffffffffff1673ffffffffffffffffffffffffffffffffffffffff168152602001838103835289818151815260200191508051906020019080838360005b8381101562000305578082015181840152602081019050620002e8565b50505050905090810190601f168015620003335780820380516001836020036101000a031916815260200191505b50838103825288818151815260200191508051906020019080838360005b838110156200036e57808201518184015260208101905062000351565b50505050905090810190601f1680156200039c5780820380516001836020036101000a031916815260200191505b509a505050505050505050505060405180910390f35b620003bc6200128f565b6040518080602001828103825283818151815260200191508051906020019060200280838360005b8381101562000401578082015181840152602081019050620003e4565b505050509050019250505060405180910390f35b62000582600480360360808110156200042d57600080fd5b81019080803590602001906401000000008111156200044b57600080fd5b8201836020820111156200045e57600080fd5b803590602001918460018302840111640100000000831117156200048157600080fd5b91908080601f016020809104026020016040519081016040528093929190818152602001838380828437600081840152601f19601f82011690508083019250505050505050919291929080359060200190640100000000811115620004e557600080fd5b820183602082011115620004f857600080fd5b803590602001918460018302840111640100000000831117156200051b57600080fd5b91908080601f016020809104026020016040519081016040528093929190818152602001838380828437600081840152601f19601f82011690508083019250505050505050919291929080359060200190929190803590602001909291905050506200158a565b604051808273ffffffffffffffffffffffffffffffffffffffff1673ffffffffffffffffffffffffffffffffffffffff16815260200191505060405180910390f35b620005ce62001915565b6040518082815260200191505060405180910390f35b6200063360048036036040811015620005fc57600080fd5b81019080803573ffffffffffffffffffffffffffffffffffffffff1690602001909291908035906020019092919050505062001c5b565b604051808681526020018573ffffffffffffffffffffffffffffffffffffffff1673ffffffffffffffffffffffffffffffffffffffff1681526020018060200184815260200183151515158152602001828103825285818151815260200191508051906020019080838360005b83811015620006bd578082015181840152602081019050620006a0565b50505050905090810190601f168015620006eb5780820380516001836020036101000a031916815260200191505b50965050505050505060405180910390f35b6200070762001f60565b005b6200074e600480360360208110156200072157600080fd5b81019080803573ffffffffffffffffffffffffffffffffffffffff169060200190929190505050620020fd565b005b6200082f600480360360408110156200076857600080fd5b81019080803573ffffffffffffffffffffffffffffffffffffffff16906020019092919080359060200190640100000000811115620007a657600080fd5b820183602082011115620007b957600080fd5b80359060200191846001830284011164010000000083111715620007dc57600080fd5b91908080601f016020809104026020016040519081016040528093929190818152602001838380828437600081840152601f19601f82011690508083019250505050505050919291929050505062002304565b005b62000876600480360360208110156200084957600080fd5b81019080803573ffffffffffffffffffffffffffffffffffffffff1690602001909291905050506200257c565b6040518080602001828103825283818151815260200191508051906020019060200280838360005b83811015620008bb5780820151818401526020810190506200089e565b505050509050019250505060405180910390f35b620008fe60048036036020811015620008e757600080fd5b810190808035906020019092919050505062002813565b604051808273ffffffffffffffffffffffffffffffffffffffff1673ffffffffffffffffffffffffffffffffffffffff16815260200191505060405180910390f35b62000985600480360360208110156200095857600080fd5b81019080803573ffffffffffffffffffffffffffffffffffffffff169060200190929190505050620029ac565b6040518082815260200191505060405180910390f35b620009e060048036036020811015620009b357600080fd5b81019080803573ffffffffffffffffffffffffffffffffffffffff16906020019092919050505062002bfd565b6040518082815260200191505060405180910390f35b62000a0062002df5565b6040518080602001828103825283818151815260200191508051906020019060200280838360005b8381101562000a4557808201518184015260208101905062000a28565b505050509050019250505060405180910390f35b62000a63620030f0565b604051808215151515815260200191505060405180910390f35b62000a87620031ef565b6040518082815260200191505060405180910390f35b62000acc6004803603602081101562000ab557600080fd5b81019080803590602001909291905050506200337b565b604051808273ffffffffffffffffffffffffffffffffffffffff1673ffffffffffffffffffffffffffffffffffffffff16815260200191505060405180910390f35b62000b536004803603602081101562000b2657600080fd5b81019080803573ffffffffffffffffffffffffffffffffffffffff16906020019092919050505062003515565b005b62000b5f62003772565b6040518080602001828103825283818151815260200191508051906020019060200280838360005b8381101562000ba457808201518184015260208101905062000b87565b505050509050019250505060405180910390f35b62000c076004803603604081101562000bd057600080fd5b81019080803573ffffffffffffffffffffffffffffffffffffffff169060200190929190803590602001909291905050506200399e565b005b62000c1362003bae565b6040518082815260200191505060405180910390f35b62000c3362003d3b565b604051808373ffffffffffffffffffffffffffffffffffffffff1673ffffffffffffffffffffffffffffffffffffffff1681526020018273ffffffffffffffffffffffffffffffffffffffff1673ffffffffffffffffffffffffffffffffffffffff1681526020019250505060405180910390f35b6000809054906101000a900473ffffffffffffffffffffffffffffffffffffffff1673ffffffffffffffffffffffffffffffffffffffff1663deac4659336040518263ffffffff167c0100000000000000000000000000000000000000000000000000000000028152600401808273ffffffffffffffffffffffffffffffffffffffff1673ffffffffffffffffffffffffffffffffffffffff16815260200191505060206040518083038186803b15801562000d6357600080fd5b505afa15801562000d78573d6000803e3d6000fd5b505050506040513d602081101562000d8f57600080fd5b810190808051906020019092919050505062000df7576040517f08c379a000000000000000000000000000000000000000000000000000000000815260040180806020018281038252602b8152602001806200a84d602b913960400191505060405180910390fd5b8173ffffffffffffffffffffffffffffffffffffffff1663a650f68433836040518363ffffffff167c0100000000000000000000000000000000000000000000000000000000028152600401808373ffffffffffffffffffffffffffffffffffffffff1673ffffffffffffffffffffffffffffffffffffffff16815260200182815260200192505050600060405180830381600087803b15801562000e9b57600080fd5b505af115801562000eb0573d6000803e3d6000fd5b505050505050565b6000806060806000806000806000809054906101000a900473ffffffffffffffffffffffffffffffffffffffff1673ffffffffffffffffffffffffffffffffffffffff1663deac4659336040518263ffffffff167c0100000000000000000000000000000000000000000000000000000000028152600401808273ffffffffffffffffffffffffffffffffffffffff1673ffffffffffffffffffffffffffffffffffffffff16815260200191505060206040518083038186803b15801562000f7f57600080fd5b505afa15801562000f94573d6000803e3d6000fd5b505050506040513d602081101562000fab57600080fd5b810190808051906020019092919050505062001013576040517f08c379a000000000000000000000000000000000000000000000000000000000815260040180806020018281038252602b8152602001806200a84d602b913960400191505060405180910390fd5b8873ffffffffffffffffffffffffffffffffffffffff16635a9b0b896040518163ffffffff167c010000000000000000000000000000000000000000000000000000000002815260040160006040518083038186803b1580156200107657600080fd5b505afa1580156200108b573d6000803e3d6000fd5b505050506040513d6000823e3d601f19601f82011682018060405250610100811015620010b757600080fd5b81019080805190602001909291908051906020019092919080516040519392919084640100000000821115620010ec57600080fd5b838201915060208201858111156200110357600080fd5b82518660018202830111640100000000821117156200112157600080fd5b8083526020830192505050908051906020019080838360005b83811015620011575780820151818401526020810190506200113a565b50505050905090810190601f168015620011855780820380516001836020036101000a031916815260200191505b5060405260200180516040519392919084640100000000821115620011a957600080fd5b83820191506020820185811115620011c057600080fd5b8251866001820283011164010000000082111715620011de57600080fd5b8083526020830192505050908051906020019080838360005b8381101562001214578082015181840152602081019050620011f7565b50505050905090810190601f168015620012425780820380516001836020036101000a031916815260200191505b506040526020018051906020019092919080519060200190929190805190602001909291908051906020019092919050505097509750975097509750975097509750919395975091939597565b60606000809054906101000a900473ffffffffffffffffffffffffffffffffffffffff1673ffffffffffffffffffffffffffffffffffffffff1663deac4659336040518263ffffffff167c0100000000000000000000000000000000000000000000000000000000028152600401808273ffffffffffffffffffffffffffffffffffffffff1673ffffffffffffffffffffffffffffffffffffffff16815260200191505060206040518083038186803b1580156200134c57600080fd5b505afa15801562001361573d6000803e3d6000fd5b505050506040513d60208110156200137857600080fd5b8101908080519060200190929190505050620013e0576040517f08c379a000000000000000000000000000000000000000000000000000000000815260040180806020018281038252602b8152602001806200a84d602b913960400191505060405180910390fd5b600160009054906101000a900473ffffffffffffffffffffffffffffffffffffffff1673ffffffffffffffffffffffffffffffffffffffff1663436df0563360006040518363ffffffff167c0100000000000000000000000000000000000000000000000000000000028152600401808373ffffffffffffffffffffffffffffffffffffffff1673ffffffffffffffffffffffffffffffffffffffff168152602001821515151581526020019250505060006040518083038186803b158015620014a957600080fd5b505afa158015620014be573d6000803e3d6000fd5b505050506040513d6000823e3d601f19601f820116820180604052506020811015620014e957600080fd5b81019080805160405193929190846401000000008211156200150a57600080fd5b838201915060208201858111156200152157600080fd5b82518660208202830111640100000000821117156200153f57600080fd5b8083526020830192505050908051906020019060200280838360005b83811015620015785780820151818401526020810190506200155b565b50505050905001604052505050905090565b60008060009054906101000a900473ffffffffffffffffffffffffffffffffffffffff1673ffffffffffffffffffffffffffffffffffffffff1663deac4659336040518263ffffffff167c0100000000000000000000000000000000000000000000000000000000028152600401808273ffffffffffffffffffffffffffffffffffffffff1673ffffffffffffffffffffffffffffffffffffffff16815260200191505060206040518083038186803b1580156200164757600080fd5b505afa1580156200165c573d6000803e3d6000fd5b505050506040513d60208110156200167357600080fd5b8101908080519060200190929190505050620016db576040517f08c379a000000000000000000000000000000000000000000000000000000000815260040180806020018281038252602b8152602001806200a84d602b913960400191505060405180910390fd5b60003386868686604051620016f09062003e4f565b808673ffffffffffffffffffffffffffffffffffffffff1673ffffffffffffffffffffffffffffffffffffffff1681526020018060200180602001858152602001848152602001838103835287818151815260200191508051906020019080838360005b838110156200177157808201518184015260208101905062001754565b50505050905090810190601f1680156200179f5780820380516001836020036101000a031916815260200191505b50838103825286818151815260200191508051906020019080838360005b83811015620017da578082015181840152602081019050620017bd565b50505050905090810190601f168015620018085780820380516001836020036101000a031916815260200191505b50975050505050505050604051809103906000f0801580156200182f573d6000803e3d6000fd5b509050600160009054906101000a900473ffffffffffffffffffffffffffffffffffffffff1673ffffffffffffffffffffffffffffffffffffffff1663243d9220826040518263ffffffff167c0100000000000000000000000000000000000000000000000000000000028152600401808273ffffffffffffffffffffffffffffffffffffffff1673ffffffffffffffffffffffffffffffffffffffff168152602001915050600060405180830381600087803b158015620018f057600080fd5b505af115801562001905573d6000803e3d6000fd5b5050505080915050949350505050565b6000803390506000809054906101000a900473ffffffffffffffffffffffffffffffffffffffff1673ffffffffffffffffffffffffffffffffffffffff1663deac4659826040518263ffffffff167c0100000000000000000000000000000000000000000000000000000000028152600401808273ffffffffffffffffffffffffffffffffffffffff1673ffffffffffffffffffffffffffffffffffffffff16815260200191505060206040518083038186803b158015620019d657600080fd5b505afa158015620019eb573d6000803e3d6000fd5b505050506040513d602081101562001a0257600080fd5b81019080805190602001909291905050501562001a87576040517f08c379a00000000000000000000000000000000000000000000000000000000081526004018080602001828103825260178152602001807f5573657220616c7265616479207265676973746572656400000000000000000081525060200191505060405180910390fd5b6000809054906101000a900473ffffffffffffffffffffffffffffffffffffffff1673ffffffffffffffffffffffffffffffffffffffff1663243d9220826040518263ffffffff167c0100000000000000000000000000000000000000000000000000000000028152600401808273ffffffffffffffffffffffffffffffffffffffff1673ffffffffffffffffffffffffffffffffffffffff168152602001915050600060405180830381600087803b15801562001b4457600080fd5b505af115801562001b59573d6000803e3d6000fd5b505050506000809054906101000a900473ffffffffffffffffffffffffffffffffffffffff1673ffffffffffffffffffffffffffffffffffffffff166316c19739826040518263ffffffff167c0100000000000000000000000000000000000000000000000000000000028152600401808273ffffffffffffffffffffffffffffffffffffffff1673ffffffffffffffffffffffffffffffffffffffff16815260200191505060206040518083038186803b15801562001c1857600080fd5b505afa15801562001c2d573d6000803e3d6000fd5b505050506040513d602081101562001c4457600080fd5b810190808051906020019092919050505091505090565b60008060606000806000809054906101000a900473ffffffffffffffffffffffffffffffffffffffff1673ffffffffffffffffffffffffffffffffffffffff1663deac4659336040518263ffffffff167c0100000000000000000000000000000000000000000000000000000000028152600401808273ffffffffffffffffffffffffffffffffffffffff1673ffffffffffffffffffffffffffffffffffffffff16815260200191505060206040518083038186803b15801562001d1e57600080fd5b505afa15801562001d33573d6000803e3d6000fd5b505050506040513d602081101562001d4a57600080fd5b810190808051906020019092919050505062001db2576040517f08c379a000000000000000000000000000000000000000000000000000000000815260040180806020018281038252602b8152602001806200a84d602b913960400191505060405180910390fd5b8673ffffffffffffffffffffffffffffffffffffffff1663de7fe3e7876040518263ffffffff167c01000000000000000000000000000000000000000000000000000000000281526004018082815260200191505060006040518083038186803b15801562001e2057600080fd5b505afa15801562001e35573d6000803e3d6000fd5b505050506040513d6000823e3d601f19601f8201168201806040525060a081101562001e6057600080fd5b8101908080519060200190929190805190602001909291908051604051939291908464010000000082111562001e9557600080fd5b8382019150602082018581111562001eac57600080fd5b825186600182028301116401000000008211171562001eca57600080fd5b8083526020830192505050908051906020019080838360005b8381101562001f0057808201518184015260208101905062001ee3565b50505050905090810190601f16801562001f2e5780820380516001836020036101000a031916815260200191505b506040526020018051906020019092919080519060200190929190505050945094509450945094509295509295909350565b600260009054906101000a900473ffffffffffffffffffffffffffffffffffffffff1673ffffffffffffffffffffffffffffffffffffffff163373ffffffffffffffffffffffffffffffffffffffff161462002024576040517f08c379a000000000000000000000000000000000000000000000000000000000815260040180806020018281038252600d8152602001807f4163636573732064656e6965640000000000000000000000000000000000000081525060200191505060405180910390fd5b604051620020329062003e5d565b604051809103906000f0801580156200204f573d6000803e3d6000fd5b506000806101000a81548173ffffffffffffffffffffffffffffffffffffffff021916908373ffffffffffffffffffffffffffffffffffffffff1602179055506040516200209d9062003e6b565b604051809103906000f080158015620020ba573d6000803e3d6000fd5b50600160006101000a81548173ffffffffffffffffffffffffffffffffffffffff021916908373ffffffffffffffffffffffffffffffffffffffff160217905550565b6000809054906101000a900473ffffffffffffffffffffffffffffffffffffffff1673ffffffffffffffffffffffffffffffffffffffff1663deac4659336040518263ffffffff167c0100000000000000000000000000000000000000000000000000000000028152600401808273ffffffffffffffffffffffffffffffffffffffff1673ffffffffffffffffffffffffffffffffffffffff16815260200191505060206040518083038186803b158015620021b857600080fd5b505afa158015620021cd573d6000803e3d6000fd5b505050506040513d6020811015620021e457600080fd5b81019080805190602001909291905050506200224c576040517f08c379a000000000000000000000000000000000000000000000000000000000815260040180806020018281038252602b8152602001806200a84d602b913960400191505060405180910390fd5b8073ffffffffffffffffffffffffffffffffffffffff1663b91038c7336040518263ffffffff167c0100000000000000000000000000000000000000000000000000000000028152600401808273ffffffffffffffffffffffffffffffffffffffff1673ffffffffffffffffffffffffffffffffffffffff168152602001915050600060405180830381600087803b158015620022e857600080fd5b505af1158015620022fd573d6000803e3d6000fd5b5050505050565b6000809054906101000a900473ffffffffffffffffffffffffffffffffffffffff1673ffffffffffffffffffffffffffffffffffffffff1663deac4659336040518263ffffffff167c0100000000000000000000000000000000000000000000000000000000028152600401808273ffffffffffffffffffffffffffffffffffffffff1673ffffffffffffffffffffffffffffffffffffffff16815260200191505060206040518083038186803b158015620023bf57600080fd5b505afa158015620023d4573d6000803e3d6000fd5b505050506040513d6020811015620023eb57600080fd5b810190808051906020019092919050505062002453576040517f08c379a000000000000000000000000000000000000000000000000000000000815260040180806020018281038252602b8152602001806200a84d602b913960400191505060405180910390fd5b8173ffffffffffffffffffffffffffffffffffffffff16638ab77ed533836040518363ffffffff167c0100000000000000000000000000000000000000000000000000000000028152600401808373ffffffffffffffffffffffffffffffffffffffff1673ffffffffffffffffffffffffffffffffffffffff16815260200180602001828103825283818151815260200191508051906020019080838360005b8381101562002510578082015181840152602081019050620024f3565b50505050905090810190601f1680156200253e5780820380516001836020036101000a031916815260200191505b509350505050600060405180830381600087803b1580156200255f57600080fd5b505af115801562002574573d6000803e3d6000fd5b505050505050565b60606000809054906101000a900473ffffffffffffffffffffffffffffffffffffffff1673ffffffffffffffffffffffffffffffffffffffff1663deac4659336040518263ffffffff167c0100000000000000000000000000000000000000000000000000000000028152600401808273ffffffffffffffffffffffffffffffffffffffff1673ffffffffffffffffffffffffffffffffffffffff16815260200191505060206040518083038186803b1580156200263957600080fd5b505afa1580156200264e573d6000803e3d6000fd5b505050506040513d60208110156200266557600080fd5b8101908080519060200190929190505050620026cd576040517f08c379a000000000000000000000000000000000000000000000000000000000815260040180806020018281038252602b8152602001806200a84d602b913960400191505060405180910390fd5b8173ffffffffffffffffffffffffffffffffffffffff1663c94d0a486040518163ffffffff167c010000000000000000000000000000000000000000000000000000000002815260040160006040518083038186803b1580156200273057600080fd5b505afa15801562002745573d6000803e3d6000fd5b505050506040513d6000823e3d601f19601f8201168201806040525060208110156200277057600080fd5b81019080805160405193929190846401000000008211156200279157600080fd5b83820191506020820185811115620027a857600080fd5b8251866020820283011164010000000082111715620027c657600080fd5b8083526020830192505050908051906020019060200280838360005b83811015620027ff578082015181840152602081019050620027e2565b505050509050016040525050509050919050565b6000600260009054906101000a900473ffffffffffffffffffffffffffffffffffffffff1673ffffffffffffffffffffffffffffffffffffffff163373ffffffffffffffffffffffffffffffffffffffff1614620028d9576040517f08c379a000000000000000000000000000000000000000000000000000000000815260040180806020018281038252600d8152602001807f4163636573732064656e6965640000000000000000000000000000000000000081525060200191505060405180910390fd5b6000809054906101000a900473ffffffffffffffffffffffffffffffffffffffff1673ffffffffffffffffffffffffffffffffffffffff16636714b669836040518263ffffffff167c01000000000000000000000000000000000000000000000000000000000281526004018082815260200191505060206040518083038186803b1580156200296857600080fd5b505afa1580156200297d573d6000803e3d6000fd5b505050506040513d60208110156200299457600080fd5b81019080805190602001909291905050509050919050565b60008060009054906101000a900473ffffffffffffffffffffffffffffffffffffffff1673ffffffffffffffffffffffffffffffffffffffff1663deac4659336040518263ffffffff167c0100000000000000000000000000000000000000000000000000000000028152600401808273ffffffffffffffffffffffffffffffffffffffff1673ffffffffffffffffffffffffffffffffffffffff16815260200191505060206040518083038186803b15801562002a6957600080fd5b505afa15801562002a7e573d6000803e3d6000fd5b505050506040513d602081101562002a9557600080fd5b810190808051906020019092919050505062002afd576040517f08c379a000000000000000000000000000000000000000000000000000000000815260040180806020018281038252602b8152602001806200a84d602b913960400191505060405180910390fd5b600160009054906101000a900473ffffffffffffffffffffffffffffffffffffffff1673ffffffffffffffffffffffffffffffffffffffff166316c19739836040518263ffffffff167c0100000000000000000000000000000000000000000000000000000000028152600401808273ffffffffffffffffffffffffffffffffffffffff1673ffffffffffffffffffffffffffffffffffffffff16815260200191505060206040518083038186803b15801562002bb957600080fd5b505afa15801562002bce573d6000803e3d6000fd5b505050506040513d602081101562002be557600080fd5b81019080805190602001909291905050509050919050565b60008060009054906101000a900473ffffffffffffffffffffffffffffffffffffffff1673ffffffffffffffffffffffffffffffffffffffff1663deac4659336040518263ffffffff167c0100000000000000000000000000000000000000000000000000000000028152600401808273ffffffffffffffffffffffffffffffffffffffff1673ffffffffffffffffffffffffffffffffffffffff16815260200191505060206040518083038186803b15801562002cba57600080fd5b505afa15801562002ccf573d6000803e3d6000fd5b505050506040513d602081101562002ce657600080fd5b810190808051906020019092919050505062002d4e576040517f08c379a000000000000000000000000000000000000000000000000000000000815260040180806020018281038252602b8152602001806200a84d602b913960400191505060405180910390fd5b8173ffffffffffffffffffffffffffffffffffffffff16637749cf236040518163ffffffff167c010000000000000000000000000000000000000000000000000000000002815260040160206040518083038186803b15801562002db157600080fd5b505afa15801562002dc6573d6000803e3d6000fd5b505050506040513d602081101562002ddd57600080fd5b81019080805190602001909291905050509050919050565b60606000809054906101000a900473ffffffffffffffffffffffffffffffffffffffff1673ffffffffffffffffffffffffffffffffffffffff1663deac4659336040518263ffffffff167c0100000000000000000000000000000000000000000000000000000000028152600401808273ffffffffffffffffffffffffffffffffffffffff1673ffffffffffffffffffffffffffffffffffffffff16815260200191505060206040518083038186803b15801562002eb257600080fd5b505afa15801562002ec7573d6000803e3d6000fd5b505050506040513d602081101562002ede57600080fd5b810190808051906020019092919050505062002f46576040517f08c379a000000000000000000000000000000000000000000000000000000000815260040180806020018281038252602b8152602001806200a84d602b913960400191505060405180910390fd5b600160009054906101000a900473ffffffffffffffffffffffffffffffffffffffff1673ffffffffffffffffffffffffffffffffffffffff1663436df0563360016040518363ffffffff167c0100000000000000000000000000000000000000000000000000000000028152600401808373ffffffffffffffffffffffffffffffffffffffff1673ffffffffffffffffffffffffffffffffffffffff168152602001821515151581526020019250505060006040518083038186803b1580156200300f57600080fd5b505afa15801562003024573d6000803e3d6000fd5b505050506040513d6000823e3d601f19601f8201168201806040525060208110156200304f57600080fd5b81019080805160405193929190846401000000008211156200307057600080fd5b838201915060208201858111156200308757600080fd5b8251866020820283011164010000000082111715620030a557600080fd5b8083526020830192505050908051906020019060200280838360005b83811015620030de578082015181840152602081019050620030c1565b50505050905001604052505050905090565b60008060009054906101000a900473ffffffffffffffffffffffffffffffffffffffff1673ffffffffffffffffffffffffffffffffffffffff1663deac4659336040518263ffffffff167c0100000000000000000000000000000000000000000000000000000000028152600401808273ffffffffffffffffffffffffffffffffffffffff1673ffffffffffffffffffffffffffffffffffffffff16815260200191505060206040518083038186803b158015620031ad57600080fd5b505afa158015620031c2573d6000803e3d6000fd5b505050506040513d6020811015620031d957600080fd5b8101908080519060200190929190505050905090565b6000600260009054906101000a900473ffffffffffffffffffffffffffffffffffffffff1673ffffffffffffffffffffffffffffffffffffffff163373ffffffffffffffffffffffffffffffffffffffff1614620032b5576040517f08c379a000000000000000000000000000000000000000000000000000000000815260040180806020018281038252600d8152602001807f4163636573732064656e6965640000000000000000000000000000000000000081525060200191505060405180910390fd5b6000809054906101000a900473ffffffffffffffffffffffffffffffffffffffff1673ffffffffffffffffffffffffffffffffffffffff16633ec768576040518163ffffffff167c010000000000000000000000000000000000000000000000000000000002815260040160206040518083038186803b1580156200333957600080fd5b505afa1580156200334e573d6000803e3d6000fd5b505050506040513d60208110156200336557600080fd5b8101908080519060200190929190505050905090565b6000600260009054906101000a900473ffffffffffffffffffffffffffffffffffffffff1673ffffffffffffffffffffffffffffffffffffffff163373ffffffffffffffffffffffffffffffffffffffff161462003441576040517f08c379a000000000000000000000000000000000000000000000000000000000815260040180806020018281038252600d8152602001807f4163636573732064656e6965640000000000000000000000000000000000000081525060200191505060405180910390fd5b600160009054906101000a900473ffffffffffffffffffffffffffffffffffffffff1673ffffffffffffffffffffffffffffffffffffffff16636714b669836040518263ffffffff167c01000000000000000000000000000000000000000000000000000000000281526004018082815260200191505060206040518083038186803b158015620034d157600080fd5b505afa158015620034e6573d6000803e3d6000fd5b505050506040513d6020811015620034fd57600080fd5b81019080805190602001909291905050509050919050565b6000809054906101000a900473ffffffffffffffffffffffffffffffffffffffff1673ffffffffffffffffffffffffffffffffffffffff1663deac4659336040518263ffffffff167c0100000000000000000000000000000000000000000000000000000000028152600401808273ffffffffffffffffffffffffffffffffffffffff1673ffffffffffffffffffffffffffffffffffffffff16815260200191505060206040518083038186803b158015620035d057600080fd5b505afa158015620035e5573d6000803e3d6000fd5b505050506040513d6020811015620035fc57600080fd5b810190808051906020019092919050505062003664576040517f08c379a000000000000000000000000000000000000000000000000000000000815260040180806020018281038252602b8152602001806200a84d602b913960400191505060405180910390fd5b600160009054906101000a900473ffffffffffffffffffffffffffffffffffffffff1673ffffffffffffffffffffffffffffffffffffffff1663e5b40eaf82336040518363ffffffff167c0100000000000000000000000000000000000000000000000000000000028152600401808373ffffffffffffffffffffffffffffffffffffffff1673ffffffffffffffffffffffffffffffffffffffff1681526020018273ffffffffffffffffffffffffffffffffffffffff1673ffffffffffffffffffffffffffffffffffffffff16815260200192505050600060405180830381600087803b1580156200375657600080fd5b505af11580156200376b573d6000803e3d6000fd5b5050505050565b6060600260009054906101000a900473ffffffffffffffffffffffffffffffffffffffff1673ffffffffffffffffffffffffffffffffffffffff163373ffffffffffffffffffffffffffffffffffffffff161462003838576040517f08c379a000000000000000000000000000000000000000000000000000000000815260040180806020018281038252600d8152602001807f4163636573732064656e6965640000000000000000000000000000000000000081525060200191505060405180910390fd5b600160009054906101000a900473ffffffffffffffffffffffffffffffffffffffff1673ffffffffffffffffffffffffffffffffffffffff166311ef241b6040518163ffffffff167c010000000000000000000000000000000000000000000000000000000002815260040160006040518083038186803b158015620038bd57600080fd5b505afa158015620038d2573d6000803e3d6000fd5b505050506040513d6000823e3d601f19601f820116820180604052506020811015620038fd57600080fd5b81019080805160405193929190846401000000008211156200391e57600080fd5b838201915060208201858111156200393557600080fd5b82518660208202830111640100000000821117156200395357600080fd5b8083526020830192505050908051906020019060200280838360005b838110156200398c5780820151818401526020810190506200396f565b50505050905001604052505050905090565b6000809054906101000a900473ffffffffffffffffffffffffffffffffffffffff1673ffffffffffffffffffffffffffffffffffffffff1663deac4659336040518263ffffffff167c0100000000000000000000000000000000000000000000000000000000028152600401808273ffffffffffffffffffffffffffffffffffffffff1673ffffffffffffffffffffffffffffffffffffffff16815260200191505060206040518083038186803b15801562003a5957600080fd5b505afa15801562003a6e573d6000803e3d6000fd5b505050506040513d602081101562003a8557600080fd5b810190808051906020019092919050505062003aed576040517f08c379a000000000000000000000000000000000000000000000000000000000815260040180806020018281038252602b8152602001806200a84d602b913960400191505060405180910390fd5b8173ffffffffffffffffffffffffffffffffffffffff16638d25821233836040518363ffffffff167c0100000000000000000000000000000000000000000000000000000000028152600401808373ffffffffffffffffffffffffffffffffffffffff1673ffffffffffffffffffffffffffffffffffffffff16815260200182815260200192505050600060405180830381600087803b15801562003b9157600080fd5b505af115801562003ba6573d6000803e3d6000fd5b505050505050565b6000600260009054906101000a900473ffffffffffffffffffffffffffffffffffffffff1673ffffffffffffffffffffffffffffffffffffffff163373ffffffffffffffffffffffffffffffffffffffff161462003c74576040517f08c379a000000000000000000000000000000000000000000000000000000000815260040180806020018281038252600d8152602001807f4163636573732064656e6965640000000000000000000000000000000000000081525060200191505060405180910390fd5b600160009054906101000a900473ffffffffffffffffffffffffffffffffffffffff1673ffffffffffffffffffffffffffffffffffffffff16633ec768576040518163ffffffff167c010000000000000000000000000000000000000000000000000000000002815260040160206040518083038186803b15801562003cf957600080fd5b505afa15801562003d0e573d6000803e3d6000fd5b505050506040513d602081101562003d2557600080fd5b8101908080519060200190929190505050905090565b600080600260009054906101000a900473ffffffffffffffffffffffffffffffffffffffff1673ffffffffffffffffffffffffffffffffffffffff163373ffffffffffffffffffffffffffffffffffffffff161462003e02576040517f08c379a000000000000000000000000000000000000000000000000000000000815260040180806020018281038252600d8152602001807f4163636573732064656e6965640000000000000000000000000000000000000081525060200191505060405180910390fd5b6000809054906101000a900473ffffffffffffffffffffffffffffffffffffffff16600160009054906101000a900473ffffffffffffffffffffffffffffffffffffffff16915091509091565b6149268062003e7a83390190565b610b0880620087a083390190565b6115a580620092a88339019056fe60806040523480156200001157600080fd5b506040516200492638038062004926833981810160405281019062000037919062000395565b306000806101000a81548173ffffffffffffffffffffffffffffffffffffffff021916908373ffffffffffffffffffffffffffffffffffffffff16021790555084600260006101000a81548173ffffffffffffffffffffffffffffffffffffffff021916908373ffffffffffffffffffffffffffffffffffffffff16021790555033600160006101000a81548173ffffffffffffffffffffffffffffffffffffffff021916908373ffffffffffffffffffffffffffffffffffffffff1602179055508360049080519060200190620001119291906200024e565b5082600690805190602001906200012a9291906200024e565b5042600781905550816008819055508060098190555081600a819055506040516200015590620002d5565b604051809103906000f08015801562000172573d6000803e3d6000fd5b50600360006101000a81548173ffffffffffffffffffffffffffffffffffffffff021916908373ffffffffffffffffffffffffffffffffffffffff16021790555060095460085410620001fc576040517f08c379a0000000000000000000000000000000000000000000000000000000008152600401620001f3906200053b565b60405180910390fd5b426008541162000243576040517f08c379a00000000000000000000000000000000000000000000000000000000081526004016200023a9062000519565b60405180910390fd5b505050505062000671565b828054600181600116156101000203166002900490600052602060002090601f016020900481019282601f106200029157805160ff1916838001178555620002c2565b82800160010185558215620002c2579182015b82811115620002c1578251825591602001919060010190620002a4565b5b509050620002d19190620002e3565b5090565b610b088062003e1e83390190565b6200030891905b8082111562000304576000816000905550600101620002ea565b5090565b90565b6000815190506200031c816200063d565b92915050565b600082601f8301126200033457600080fd5b81516200034b62000345826200058b565b6200055d565b915080825260208301602083018583830111156200036857600080fd5b6200037583828462000607565b50505092915050565b6000815190506200038f8162000657565b92915050565b600080600080600060a08688031215620003ae57600080fd5b6000620003be888289016200030b565b955050602086015167ffffffffffffffff811115620003dc57600080fd5b620003ea8882890162000322565b945050604086015167ffffffffffffffff8111156200040857600080fd5b620004168882890162000322565b935050606062000429888289016200037e565b92505060806200043c888289016200037e565b9150509295509295909350565b600062000458602683620005b8565b91507f6576656e742073746172742074696d65206d75737420626520696e207468652060008301527f66757475726500000000000000000000000000000000000000000000000000006020830152604082019050919050565b6000620004c0602883620005b8565b91507f6576656e742073746172742074696d65206d757374206265206265666f72652060008301527f656e642074696d650000000000000000000000000000000000000000000000006020830152604082019050919050565b60006020820190508181036000830152620005348162000449565b9050919050565b600060208201905081810360008301526200055681620004b1565b9050919050565b6000604051905081810181811067ffffffffffffffff821117156200058157600080fd5b8060405250919050565b600067ffffffffffffffff821115620005a357600080fd5b601f19601f8301169050602081019050919050565b600082825260208201905092915050565b6000620005d682620005dd565b9050919050565b600073ffffffffffffffffffffffffffffffffffffffff82169050919050565b6000819050919050565b60005b83811015620006275780820151818401526020810190506200060a565b8381111562000637576000848401525b50505050565b6200064881620005c9565b81146200065457600080fd5b50565b6200066281620005fd565b81146200066e57600080fd5b50565b61379d80620006816000396000f3fe608060405234801561001057600080fd5b506004361061022e576000357c0100000000000000000000000000000000000000000000000000000000900480638d25821211610142578063c94d0a48116100ca578063d9561a9111610099578063d9561a9114610602578063de7fe3e714610632578063ded7374c14610666578063e23a845a14610696578063e5b0c5a7146106b45761022e565b8063c94d0a481461058c578063ccb98ffc146105aa578063ce2ce3fc146105c6578063d5009584146105e45761022e565b8063a2221ffc11610111578063a2221ffc146104fc578063a650f6841461051a578063b22c36d514610536578063b91038c714610554578063c0cc365d146105705761022e565b80638d2582121461047857806390c3f38f14610494578063929066f5146104b0578063932354c1146104e05761022e565b80635d1ca631116101c5578063843bd64111610194578063843bd641146103d457806384da92a71461040457806384de1ea5146104205780638ab77ed51461043e5780638b915c251461045a5761022e565b80635d1ca6311461035e578063668a20011461037c5780637749cf231461039857806383707647146103b65761022e565b806338a730611161020157806338a73061146102cf5780633e0a322d146102ff5780635a9b0b891461031b5780635aa68ac0146103405761022e565b806305111c1e1461023357806317d7de7c146102635780631a092541146102815780632e141e901461029f575b600080fd5b61024d60048036038101906102489190612bf6565b6106e4565b60405161025a919061320c565b60405180910390f35b61026b6107bc565b604051610278919061332d565b60405180910390f35b61028961085e565b604051610296919061332d565b60405180910390f35b6102b960048036038101906102b49190612bf6565b610900565b6040516102c691906132f7565b60405180910390f35b6102e960048036038101906102e49190612bf6565b6109c5565b6040516102f6919061346f565b60405180910390f35b61031960048036038101906103149190612bf6565b610a7d565b005b610323610b5b565b604051610337989796959493929190613227565b60405180910390f35b610348610d31565b6040516103559190613312565b60405180910390f35b610366610d5b565b60405161037391906131d6565b60405180910390f35b61039660048036038101906103919190612a69565b610d84565b005b6103a0610ec0565b6040516103ad919061346f565b60405180910390f35b6103be610f5d565b6040516103cb91906132d5565b60405180910390f35b6103ee60048036038101906103e99190612bf6565b611173565b6040516103fb91906132f7565b60405180910390f35b61041e60048036038101906104199190612bb5565b611223565b005b6104286112cd565b60405161043591906131d6565b60405180910390f35b61045860048036038101906104539190612abb565b6112f7565b005b61046261153f565b60405161046f919061346f565b60405180910390f35b610492600480360381019061048d9190612b0f565b611549565b005b6104ae60048036038101906104a99190612bb5565b6118ee565b005b6104ca60048036038101906104c59190612a92565b611998565b6040516104d791906132f7565b60405180910390f35b6104fa60048036038101906104f59190612bb5565b611a68565b005b610504611b12565b604051610511919061346f565b60405180910390f35b610534600480360381019061052f9190612b0f565b611b1c565b005b61053e611cde565b60405161054b919061346f565b60405180910390f35b61056e60048036038101906105699190612a92565b611ce8565b005b61058a60048036038101906105859190612bf6565b611ef9565b005b610594611fd8565b6040516105a191906132b3565b60405180910390f35b6105c460048036038101906105bf9190612bf6565b6120a0565b005b6105ce61217e565b6040516105db919061332d565b60405180910390f35b6105ec612220565b6040516105f991906131d6565b60405180910390f35b61061c60048036038101906106179190612bf6565b6122da565b604051610629919061332d565b60405180910390f35b61064c60048036038101906106479190612bf6565b61242a565b60405161065d95949392919061348a565b60405180910390f35b610680600480360381019061067b9190612c1f565b612680565b60405161068d91906132f7565b60405180910390f35b61069e612751565b6040516106ab919061346f565b60405180910390f35b6106ce60048036038101906106c99190612a92565b61275b565b6040516106db91906132f7565b60405180910390f35b6000600160009054906101000a900473ffffffffffffffffffffffffffffffffffffffff1673ffffffffffffffffffffffffffffffffffffffff163373ffffffffffffffffffffffffffffffffffffffff1614610776576040517f08c379a000000000000000000000000000000000000000000000000000000000815260040161076d9061334f565b60405180910390fd5b600b828154811061078357fe5b906000526020600020906005020160010160009054906101000a900473ffffffffffffffffffffffffffffffffffffffff169050919050565b606060048054600181600116156101000203166002900480601f0160208091040260200160405190810160405280929190818152602001828054600181600116156101000203166002900480156108545780601f1061082957610100808354040283529160200191610854565b820191906000526020600020905b81548152906001019060200180831161083757829003601f168201915b5050505050905090565b606060058054600181600116156101000203166002900480601f0160208091040260200160405190810160405280929190818152602001828054600181600116156101000203166002900480156108f65780601f106108cb576101008083540402835291602001916108f6565b820191906000526020600020905b8154815290600101906020018083116108d957829003601f168201915b5050505050905090565b6000600160009054906101000a900473ffffffffffffffffffffffffffffffffffffffff1673ffffffffffffffffffffffffffffffffffffffff163373ffffffffffffffffffffffffffffffffffffffff1614610992576040517f08c379a00000000000000000000000000000000000000000000000000000000081526004016109899061334f565b60405180910390fd5b600b828154811061099f57fe5b906000526020600020906005020160040160009054906101000a900460ff169050919050565b6000600160009054906101000a900473ffffffffffffffffffffffffffffffffffffffff1673ffffffffffffffffffffffffffffffffffffffff163373ffffffffffffffffffffffffffffffffffffffff1614610a57576040517f08c379a0000000000000000000000000000000000000000000000000000000008152600401610a4e9061334f565b60405180910390fd5b600b8281548110610a6457fe5b9060005260206000209060050201600301549050919050565b600160009054906101000a900473ffffffffffffffffffffffffffffffffffffffff1673ffffffffffffffffffffffffffffffffffffffff163373ffffffffffffffffffffffffffffffffffffffff1614610b0d576040517f08c379a0000000000000000000000000000000000000000000000000000000008152600401610b049061334f565b60405180910390fd5b6009548110610b51576040517f08c379a0000000000000000000000000000000000000000000000000000000008152600401610b489061344f565b60405180910390fd5b8060088190555050565b6000806060806000806000806000809054906101000a900473ffffffffffffffffffffffffffffffffffffffff16600260009054906101000a900473ffffffffffffffffffffffffffffffffffffffff1660046006600854600954600754600360009054906101000a900473ffffffffffffffffffffffffffffffffffffffff16869650858054600181600116156101000203166002900480601f016020809104026020016040519081016040528092919081815260200182805460018160011615610100020316600290048015610c745780601f10610c4957610100808354040283529160200191610c74565b820191906000526020600020905b815481529060010190602001808311610c5757829003601f168201915b50505050509550848054600181600116156101000203166002900480601f016020809104026020016040519081016040528092919081815260200182805460018160011615610100020316600290048015610d105780601f10610ce557610100808354040283529160200191610d10565b820191906000526020600020905b815481529060010190602001808311610cf357829003601f168201915b50505050509450975097509750975097509750975097509091929394959697565b6000600360009054906101000a900473ffffffffffffffffffffffffffffffffffffffff16905090565b60008060009054906101000a900473ffffffffffffffffffffffffffffffffffffffff16905090565b600160009054906101000a900473ffffffffffffffffffffffffffffffffffffffff1673ffffffffffffffffffffffffffffffffffffffff163373ffffffffffffffffffffffffffffffffffffffff1614610e14576040517f08c379a0000000000000000000000000000000000000000000000000000000008152600401610e0b9061334f565b60405180910390fd5b600360009054906101000a900473ffffffffffffffffffffffffffffffffffffffff1673ffffffffffffffffffffffffffffffffffffffff1663f0335205826040518263ffffffff167c0100000000000000000000000000000000000000000000000000000000028152600401610e8b91906131d6565b600060405180830381600087803b158015610ea557600080fd5b505af1158015610eb9573d6000803e3d6000fd5b5050505050565b6000600160009054906101000a900473ffffffffffffffffffffffffffffffffffffffff1673ffffffffffffffffffffffffffffffffffffffff163373ffffffffffffffffffffffffffffffffffffffff1614610f52576040517f08c379a0000000000000000000000000000000000000000000000000000000008152600401610f499061334f565b60405180910390fd5b600b80549050905090565b6060600160009054906101000a900473ffffffffffffffffffffffffffffffffffffffff1673ffffffffffffffffffffffffffffffffffffffff163373ffffffffffffffffffffffffffffffffffffffff1614610fef576040517f08c379a0000000000000000000000000000000000000000000000000000000008152600401610fe69061334f565b60405180910390fd5b600b805480602002602001604051908101604052809291908181526020016000905b8282101561116a57838290600052602060002090600502016040518060a0016040529081600082015481526020016001820160009054906101000a900473ffffffffffffffffffffffffffffffffffffffff1673ffffffffffffffffffffffffffffffffffffffff1673ffffffffffffffffffffffffffffffffffffffff168152602001600282018054600181600116156101000203166002900480601f01602080910402602001604051908101604052809291908181526020018280546001816001161561010002031660029004801561112d5780601f106111025761010080835404028352916020019161112d565b820191906000526020600020905b81548152906001019060200180831161111057829003601f168201915b50505050508152602001600382015481526020016004820160009054906101000a900460ff16151515158152505081526020019060010190611011565b50505050905090565b6000600160009054906101000a900473ffffffffffffffffffffffffffffffffffffffff1673ffffffffffffffffffffffffffffffffffffffff163373ffffffffffffffffffffffffffffffffffffffff1614611205576040517f08c379a00000000000000000000000000000000000000000000000000000000081526004016111fc9061334f565b60405180910390fd5b6000821015801561121c5750611219610ec0565b82105b9050919050565b600160009054906101000a900473ffffffffffffffffffffffffffffffffffffffff1673ffffffffffffffffffffffffffffffffffffffff163373ffffffffffffffffffffffffffffffffffffffff16146112b3576040517f08c379a00000000000000000000000000000000000000000000000000000000081526004016112aa9061334f565b60405180910390fd5b80600490805190602001906112c99291906127b5565b5050565b6000600260009054906101000a900473ffffffffffffffffffffffffffffffffffffffff16905090565b600160009054906101000a900473ffffffffffffffffffffffffffffffffffffffff1673ffffffffffffffffffffffffffffffffffffffff163373ffffffffffffffffffffffffffffffffffffffff1614611387576040517f08c379a000000000000000000000000000000000000000000000000000000000815260040161137e9061334f565b60405180910390fd5b600260009054906101000a900473ffffffffffffffffffffffffffffffffffffffff1673ffffffffffffffffffffffffffffffffffffffff168273ffffffffffffffffffffffffffffffffffffffff1614806113e857506113e782611998565b5b611427576040517f08c379a000000000000000000000000000000000000000000000000000000000815260040161141e906133cf565b60405180910390fd5b6000611431610ec0565b9050600b6040518060a001604052808381526020018573ffffffffffffffffffffffffffffffffffffffff168152602001848152602001600a5481526020016000151581525090806001815401808255809150506001900390600052602060002090600502016000909190919091506000820151816000015560208201518160010160006101000a81548173ffffffffffffffffffffffffffffffffffffffff021916908373ffffffffffffffffffffffffffffffffffffffff160217905550604082015181600201908051906020019061150d9291906127b5565b506060820151816003015560808201518160040160006101000a81548160ff0219169083151502179055505050505050565b6000600854905090565b600160009054906101000a900473ffffffffffffffffffffffffffffffffffffffff1673ffffffffffffffffffffffffffffffffffffffff163373ffffffffffffffffffffffffffffffffffffffff16146115d9576040517f08c379a00000000000000000000000000000000000000000000000000000000081526004016115d09061334f565b60405180910390fd5b600260009054906101000a900473ffffffffffffffffffffffffffffffffffffffff1673ffffffffffffffffffffffffffffffffffffffff168273ffffffffffffffffffffffffffffffffffffffff16148061163b575061163a8183612680565b5b61167a576040517f08c379a00000000000000000000000000000000000000000000000000000000081526004016116719061338f565b60405180910390fd5b61168381611173565b6116c2576040517f08c379a00000000000000000000000000000000000000000000000000000000081526004016116b99061340f565b60405180910390fd5b600b81815481106116cf57fe5b90600052602060002090600502016000808201600090556001820160006101000a81549073ffffffffffffffffffffffffffffffffffffffff021916905560028201600061171d9190612835565b60038201600090556004820160006101000a81549060ff0219169055505060008190505b6001600b805490500381101561186a57600b600182018154811061176157fe5b9060005260206000209060050201600b828154811061177c57fe5b9060005260206000209060050201600082015481600001556001820160009054906101000a900473ffffffffffffffffffffffffffffffffffffffff168160010160006101000a81548173ffffffffffffffffffffffffffffffffffffffff021916908373ffffffffffffffffffffffffffffffffffffffff1602179055506002820181600201908054600181600116156101000203166002900461182292919061287d565b50600382015481600301556004820160009054906101000a900460ff168160040160006101000a81548160ff0219169083151502179055509050508080600101915050611741565b50600b80548061187657fe5b60019003818190600052602060002090600502016000808201600090556001820160006101000a81549073ffffffffffffffffffffffffffffffffffffffff02191690556002820160006118ca9190612835565b60038201600090556004820160006101000a81549060ff0219169055505090555050565b600160009054906101000a900473ffffffffffffffffffffffffffffffffffffffff1673ffffffffffffffffffffffffffffffffffffffff163373ffffffffffffffffffffffffffffffffffffffff161461197e576040517f08c379a00000000000000000000000000000000000000000000000000000000081526004016119759061334f565b60405180910390fd5b80600590805190602001906119949291906127b5565b5050565b6000600360009054906101000a900473ffffffffffffffffffffffffffffffffffffffff1673ffffffffffffffffffffffffffffffffffffffff1663deac4659836040518263ffffffff167c0100000000000000000000000000000000000000000000000000000000028152600401611a1191906131f1565b60206040518083038186803b158015611a2957600080fd5b505afa158015611a3d573d6000803e3d6000fd5b505050506040513d601f19601f82011682018060405250810190611a619190612b8c565b9050919050565b600160009054906101000a900473ffffffffffffffffffffffffffffffffffffffff1673ffffffffffffffffffffffffffffffffffffffff163373ffffffffffffffffffffffffffffffffffffffff1614611af8576040517f08c379a0000000000000000000000000000000000000000000000000000000008152600401611aef9061334f565b60405180910390fd5b8060069080519060200190611b0e9291906127b5565b5050565b6000600954905090565b600160009054906101000a900473ffffffffffffffffffffffffffffffffffffffff1673ffffffffffffffffffffffffffffffffffffffff163373ffffffffffffffffffffffffffffffffffffffff1614611bac576040517f08c379a0000000000000000000000000000000000000000000000000000000008152600401611ba39061334f565b60405180910390fd5b600260009054906101000a900473ffffffffffffffffffffffffffffffffffffffff1673ffffffffffffffffffffffffffffffffffffffff168273ffffffffffffffffffffffffffffffffffffffff161480611c0e5750611c0d8183612680565b5b611c4d576040517f08c379a0000000000000000000000000000000000000000000000000000000008152600401611c449061338f565b60405180910390fd5b611c5681611173565b611c95576040517f08c379a0000000000000000000000000000000000000000000000000000000008152600401611c8c9061340f565b60405180910390fd5b6000611ca082610900565b90508015600b8381548110611cb157fe5b906000526020600020906005020160040160006101000a81548160ff021916908315150217905550505050565b6000600754905090565b600160009054906101000a900473ffffffffffffffffffffffffffffffffffffffff1673ffffffffffffffffffffffffffffffffffffffff163373ffffffffffffffffffffffffffffffffffffffff1614611d78576040517f08c379a0000000000000000000000000000000000000000000000000000000008152600401611d6f9061334f565b60405180910390fd5b600260009054906101000a900473ffffffffffffffffffffffffffffffffffffffff1673ffffffffffffffffffffffffffffffffffffffff168173ffffffffffffffffffffffffffffffffffffffff161415611e09576040517f08c379a0000000000000000000000000000000000000000000000000000000008152600401611e00906133af565b60405180910390fd5b42600a5411611e4d576040517f08c379a0000000000000000000000000000000000000000000000000000000008152600401611e449061336f565b60405180910390fd5b600360009054906101000a900473ffffffffffffffffffffffffffffffffffffffff1673ffffffffffffffffffffffffffffffffffffffff1663243d9220826040518263ffffffff167c0100000000000000000000000000000000000000000000000000000000028152600401611ec491906131f1565b600060405180830381600087803b158015611ede57600080fd5b505af1158015611ef2573d6000803e3d6000fd5b5050505050565b600160009054906101000a900473ffffffffffffffffffffffffffffffffffffffff1673ffffffffffffffffffffffffffffffffffffffff163373ffffffffffffffffffffffffffffffffffffffff1614611f89576040517f08c379a0000000000000000000000000000000000000000000000000000000008152600401611f809061334f565b60405180910390fd5b600854811115611fce576040517f08c379a0000000000000000000000000000000000000000000000000000000008152600401611fc59061342f565b60405180910390fd5b80600a8190555050565b6060600360009054906101000a900473ffffffffffffffffffffffffffffffffffffffff1673ffffffffffffffffffffffffffffffffffffffff1663d504ea1d6040518163ffffffff167c010000000000000000000000000000000000000000000000000000000002815260040160006040518083038186803b15801561205e57600080fd5b505afa158015612072573d6000803e3d6000fd5b505050506040513d6000823e3d601f19601f8201168201806040525081019061209b9190612b4b565b905090565b600160009054906101000a900473ffffffffffffffffffffffffffffffffffffffff1673ffffffffffffffffffffffffffffffffffffffff163373ffffffffffffffffffffffffffffffffffffffff1614612130576040517f08c379a00000000000000000000000000000000000000000000000000000000081526004016121279061334f565b60405180910390fd5b6008548111612174576040517f08c379a000000000000000000000000000000000000000000000000000000000815260040161216b906133ef565b60405180910390fd5b8060098190555050565b606060068054600181600116156101000203166002900480601f0160208091040260200160405190810160405280929190818152602001828054600181600116156101000203166002900480156122165780601f106121eb57610100808354040283529160200191612216565b820191906000526020600020905b8154815290600101906020018083116121f957829003601f168201915b5050505050905090565b6000600160009054906101000a900473ffffffffffffffffffffffffffffffffffffffff1673ffffffffffffffffffffffffffffffffffffffff163373ffffffffffffffffffffffffffffffffffffffff16146122b2576040517f08c379a00000000000000000000000000000000000000000000000000000000081526004016122a99061334f565b60405180910390fd5b600160009054906101000a900473ffffffffffffffffffffffffffffffffffffffff16905090565b6060600160009054906101000a900473ffffffffffffffffffffffffffffffffffffffff1673ffffffffffffffffffffffffffffffffffffffff163373ffffffffffffffffffffffffffffffffffffffff161461236c576040517f08c379a00000000000000000000000000000000000000000000000000000000081526004016123639061334f565b60405180910390fd5b600b828154811061237957fe5b90600052602060002090600502016002018054600181600116156101000203166002900480601f01602080910402602001604051908101604052809291908181526020018280546001816001161561010002031660029004801561241e5780601f106123f35761010080835404028352916020019161241e565b820191906000526020600020905b81548152906001019060200180831161240157829003601f168201915b50505050509050919050565b6000806060600080600160009054906101000a900473ffffffffffffffffffffffffffffffffffffffff1673ffffffffffffffffffffffffffffffffffffffff163373ffffffffffffffffffffffffffffffffffffffff16146124c2576040517f08c379a00000000000000000000000000000000000000000000000000000000081526004016124b99061334f565b60405180910390fd5b6124cb86611173565b61250a576040517f08c379a00000000000000000000000000000000000000000000000000000000081526004016125019061340f565b60405180910390fd5b600b868154811061251757fe5b906000526020600020906005020160000154600b878154811061253657fe5b906000526020600020906005020160010160009054906101000a900473ffffffffffffffffffffffffffffffffffffffff16600b888154811061257557fe5b9060005260206000209060050201600201600b898154811061259357fe5b906000526020600020906005020160030154600b8a815481106125b257fe5b906000526020600020906005020160040160009054906101000a900460ff16828054600181600116156101000203166002900480601f0160208091040260200160405190810160405280929190818152602001828054600181600116156101000203166002900480156126665780601f1061263b57610100808354040283529160200191612666565b820191906000526020600020905b81548152906001019060200180831161264957829003601f168201915b505050505092509450945094509450945091939590929450565b6000600160009054906101000a900473ffffffffffffffffffffffffffffffffffffffff1673ffffffffffffffffffffffffffffffffffffffff163373ffffffffffffffffffffffffffffffffffffffff1614612712576040517f08c379a00000000000000000000000000000000000000000000000000000000081526004016127099061334f565b60405180910390fd5b8173ffffffffffffffffffffffffffffffffffffffff16612732846106e4565b73ffffffffffffffffffffffffffffffffffffffff1614905092915050565b6000600a54905090565b6000600260009054906101000a900473ffffffffffffffffffffffffffffffffffffffff1673ffffffffffffffffffffffffffffffffffffffff168273ffffffffffffffffffffffffffffffffffffffff16149050919050565b828054600181600116156101000203166002900490600052602060002090601f016020900481019282601f106127f657805160ff1916838001178555612824565b82800160010185558215612824579182015b82811115612823578251825591602001919060010190612808565b5b5090506128319190612904565b5090565b50805460018160011615610100020316600290046000825580601f1061285b575061287a565b601f0160209004906000526020600020908101906128799190612904565b5b50565b828054600181600116156101000203166002900490600052602060002090601f016020900481019282601f106128b657805485556128f3565b828001600101855582156128f357600052602060002091601f016020900482015b828111156128f25782548255916001019190600101906128d7565b5b5090506129009190612904565b5090565b61292691905b8082111561292257600081600090555060010161290a565b5090565b90565b6000813590506129388161370b565b92915050565b60008151905061294d8161370b565b92915050565b60008135905061296281613722565b92915050565b600082601f83011261297957600080fd5b815161298c61298782613511565b6134e4565b915081818352602084019350602081019050838560208402820111156129b157600080fd5b60005b838110156129e157816129c7888261293e565b8452602084019350602083019250506001810190506129b4565b5050505092915050565b6000815190506129fa81613739565b92915050565b600082601f830112612a1157600080fd5b8135612a24612a1f82613539565b6134e4565b91508082526020830160208301858383011115612a4057600080fd5b612a4b8382846136b8565b50505092915050565b600081359050612a6381613750565b92915050565b600060208284031215612a7b57600080fd5b6000612a8984828501612929565b91505092915050565b600060208284031215612aa457600080fd5b6000612ab284828501612953565b91505092915050565b60008060408385031215612ace57600080fd5b6000612adc85828601612953565b925050602083013567ffffffffffffffff811115612af957600080fd5b612b0585828601612a00565b9150509250929050565b60008060408385031215612b2257600080fd5b6000612b3085828601612953565b9250506020612b4185828601612a54565b9150509250929050565b600060208284031215612b5d57600080fd5b600082015167ffffffffffffffff811115612b7757600080fd5b612b8384828501612968565b91505092915050565b600060208284031215612b9e57600080fd5b6000612bac848285016129eb565b91505092915050565b600060208284031215612bc757600080fd5b600082013567ffffffffffffffff811115612be157600080fd5b612bed84828501612a00565b91505092915050565b600060208284031215612c0857600080fd5b6000612c1684828501612a54565b91505092915050565b60008060408385031215612c3257600080fd5b6000612c4085828601612a54565b9250506020612c5185828601612929565b9150509250929050565b6000612c678383612cb4565b60208301905092915050565b6000612c7f8383613142565b905092915050565b612c908161365e565b82525050565b612c9f81613616565b82525050565b612cae81613616565b82525050565b612cbd81613604565b82525050565b612ccc81613604565b82525050565b6000612cdd82613585565b612ce781856135c0565b9350612cf283613565565b8060005b83811015612d23578151612d0a8882612c5b565b9750612d15836135a6565b925050600181019050612cf6565b5085935050505092915050565b6000612d3b82613590565b612d4581856135d1565b935083602082028501612d5785613575565b8060005b85811015612d935784840389528151612d748582612c73565b9450612d7f836135b3565b925060208a01995050600181019050612d5b565b50829750879550505050505092915050565b612dae81613628565b82525050565b612dbd81613628565b82525050565b612dcc81613670565b82525050565b6000612ddd8261359b565b612de781856135e2565b9350612df78185602086016136c7565b612e00816136fa565b840191505092915050565b6000612e168261359b565b612e2081856135f3565b9350612e308185602086016136c7565b612e39816136fa565b840191505092915050565b6000612e516023836135f3565b91507f416363657373206973206f6e6c7920616c6c6f77656420666f72206d616e616760008301527f65722e00000000000000000000000000000000000000000000000000000000006020830152604082019050919050565b6000612eb76010836135f3565b91507f6576656e742069732065787069726564000000000000000000000000000000006000830152602082019050919050565b6000612ef76027836135f3565b91507f55736572206973206e6f7420616c6c6f77656420746f2075706461746520697460008301527f656d20696e666f000000000000000000000000000000000000000000000000006020830152604082019050919050565b6000612f5d601d836135f3565b91507f796f752061726520616c72656164792074686520696e69746961746f720000006000830152602082019050919050565b6000612f9d6017836135f3565b91507f55736572206973206e6f74207061727469636970616e740000000000000000006000830152602082019050919050565b6000612fdd6027836135f3565b91507f6576656e7420656e642074696d65206d7573742062652061667465722073746160008301527f72742074696d65000000000000000000000000000000000000000000000000006020830152604082019050919050565b60006130436013836135f3565b91507f4974656d20646f6573206e6f74206578697374000000000000000000000000006000830152602082019050919050565b6000613083602f836135f3565b91507f6576656e742065787069726174696f6e2074696d65206d75737420626520626560008301527f666f72652073746172742074696d6500000000000000000000000000000000006020830152604082019050919050565b60006130e96028836135f3565b91507f6576656e742073746172742074696d65206d757374206265206265666f72652060008301527f656e642074696d650000000000000000000000000000000000000000000000006020830152604082019050919050565b600060a08301600083015161315a60008601826131b8565b50602083015161316d6020860182612c96565b50604083015184820360408601526131858282612dd2565b915050606083015161319a60608601826131b8565b5060808301516131ad6080860182612da5565b508091505092915050565b6131c181613654565b82525050565b6131d081613654565b82525050565b60006020820190506131eb6000830184612cc3565b92915050565b60006020820190506132066000830184612c87565b92915050565b60006020820190506132216000830184612ca5565b92915050565b60006101008201905061323d600083018b612cc3565b61324a602083018a612cc3565b818103604083015261325c8189612e0b565b905081810360608301526132708188612e0b565b905061327f60808301876131c7565b61328c60a08301866131c7565b61329960c08301856131c7565b6132a660e0830184612dc3565b9998505050505050505050565b600060208201905081810360008301526132cd8184612cd2565b905092915050565b600060208201905081810360008301526132ef8184612d30565b905092915050565b600060208201905061330c6000830184612db4565b92915050565b60006020820190506133276000830184612dc3565b92915050565b600060208201905081810360008301526133478184612e0b565b905092915050565b6000602082019050818103600083015261336881612e44565b9050919050565b6000602082019050818103600083015261338881612eaa565b9050919050565b600060208201905081810360008301526133a881612eea565b9050919050565b600060208201905081810360008301526133c881612f50565b9050919050565b600060208201905081810360008301526133e881612f90565b9050919050565b6000602082019050818103600083015261340881612fd0565b9050919050565b6000602082019050818103600083015261342881613036565b9050919050565b6000602082019050818103600083015261344881613076565b9050919050565b60006020820190508181036000830152613468816130dc565b9050919050565b600060208201905061348460008301846131c7565b92915050565b600060a08201905061349f60008301886131c7565b6134ac6020830187612ca5565b81810360408301526134be8186612e0b565b90506134cd60608301856131c7565b6134da6080830184612db4565b9695505050505050565b6000604051905081810181811067ffffffffffffffff8211171561350757600080fd5b8060405250919050565b600067ffffffffffffffff82111561352857600080fd5b602082029050602081019050919050565b600067ffffffffffffffff82111561355057600080fd5b601f19601f8301169050602081019050919050565b6000819050602082019050919050565b6000819050602082019050919050565b600081519050919050565b600081519050919050565b600081519050919050565b6000602082019050919050565b6000602082019050919050565b600082825260208201905092915050565b600082825260208201905092915050565b600082825260208201905092915050565b600082825260208201905092915050565b600061360f82613634565b9050919050565b600061362182613634565b9050919050565b60008115159050919050565b600073ffffffffffffffffffffffffffffffffffffffff82169050919050565b6000819050919050565b600061366982613694565b9050919050565b600061367b82613682565b9050919050565b600061368d82613634565b9050919050565b600061369f826136a6565b9050919050565b60006136b182613634565b9050919050565b82818337600083830152505050565b60005b838110156136e55780820151818401526020810190506136ca565b838111156136f4576000848401525b50505050565b6000601f19601f8301169050919050565b61371481613604565b811461371f57600080fd5b50565b61372b81613616565b811461373657600080fd5b50565b61374281613628565b811461374d57600080fd5b50565b61375981613654565b811461376457600080fd5b5056fea2646970667358221220f62e1f4a0b8e5f11794f0df2d522f4ae28aa8e733c076138735f7d357443f07a64736f6c63430006070033608060405234801561001057600080fd5b50600160009080600181540180825580915050600190039060005260206000200160009091909190916101000a81548173ffffffffffffffffffffffffffffffffffffffff021916908373ffffffffffffffffffffffffffffffffffffffff160217905550610a84806100846000396000f3fe608060405234801561001057600080fd5b506004361061009a576000357c0100000000000000000000000000000000000000000000000000000000900480636714b669116100785780636714b66914610159578063d504ea1d146101c7578063deac465914610226578063f0335205146102825761009a565b806316c197391461009f578063243d9220146100f75780633ec768571461013b575b600080fd5b6100e1600480360360208110156100b557600080fd5b81019080803573ffffffffffffffffffffffffffffffffffffffff1690602001909291905050506102c6565b6040518082815260200191505060405180910390f35b6101396004803603602081101561010d57600080fd5b81019080803573ffffffffffffffffffffffffffffffffffffffff16906020019092919050505061034c565b005b610143610519565b6040518082815260200191505060405180910390f35b6101856004803603602081101561016f57600080fd5b8101908080359060200190929190505050610528565b604051808273ffffffffffffffffffffffffffffffffffffffff1673ffffffffffffffffffffffffffffffffffffffff16815260200191505060405180910390f35b6101cf610658565b6040518080602001828103825283818151815260200191508051906020019060200280838360005b838110156102125780820151818401526020810190506101f7565b505050509050019250505060405180910390f35b6102686004803603602081101561023c57600080fd5b81019080803573ffffffffffffffffffffffffffffffffffffffff169060200190929190505050610753565b604051808215151515815260200191505060405180910390f35b6102c46004803603602081101561029857600080fd5b81019080803573ffffffffffffffffffffffffffffffffffffffff16906020019092919050505061079d565b005b60008073ffffffffffffffffffffffffffffffffffffffff168273ffffffffffffffffffffffffffffffffffffffff1614156103055760009050610347565b6000808373ffffffffffffffffffffffffffffffffffffffff1673ffffffffffffffffffffffffffffffffffffffff1681526020019081526020016000205490505b919050565b600073ffffffffffffffffffffffffffffffffffffffff168173ffffffffffffffffffffffffffffffffffffffff1614156103ef576040517f08c379a000000000000000000000000000000000000000000000000000000000815260040180806020018281038252600f8152602001807f496e76616c69642061646472657373000000000000000000000000000000000081525060200191505060405180910390fd5b6103f881610753565b1561046b576040517f08c379a00000000000000000000000000000000000000000000000000000000081526004018080602001828103825260188152602001807f4164647265737320616c726561647920696e204172726179000000000000000081525060200191505060405180910390fd5b6001805490506000808373ffffffffffffffffffffffffffffffffffffffff1673ffffffffffffffffffffffffffffffffffffffff168152602001908152602001600020819055506001819080600181540180825580915050600190039060005260206000200160009091909190916101000a81548173ffffffffffffffffffffffffffffffffffffffff021916908373ffffffffffffffffffffffffffffffffffffffff16021790555050565b60006001808054905003905090565b600080821161059f576040517f08c379a00000000000000000000000000000000000000000000000000000000081526004018080602001828103825260178152602001807f7468697320696e646578206973206e6f742076616c696400000000000000000081525060200191505060405180910390fd5b6001805490508210610619576040517f08c379a000000000000000000000000000000000000000000000000000000000815260040180806020018281038252600d8152602001807f6f7574206f6620626f756e64730000000000000000000000000000000000000081525060200191505060405180910390fd5b6001828154811061062657fe5b9060005260206000200160009054906101000a900473ffffffffffffffffffffffffffffffffffffffff169050919050565b6060600180805490500367ffffffffffffffff8111801561067857600080fd5b506040519080825280602002602001820160405280156106a75781602001602082028036833780820191505090505b50905060008090505b600180805490500381101561074c576001808201815481106106ce57fe5b9060005260206000200160009054906101000a900473ffffffffffffffffffffffffffffffffffffffff1682828151811061070557fe5b602002602001019073ffffffffffffffffffffffffffffffffffffffff16908173ffffffffffffffffffffffffffffffffffffffff168152505080806001019150506106b0565b5080905090565b6000806000808473ffffffffffffffffffffffffffffffffffffffff1673ffffffffffffffffffffffffffffffffffffffff16815260200190815260200160002054119050919050565b6107a681610753565b610818576040517f08c379a00000000000000000000000000000000000000000000000000000000081526004018080602001828103825260148152602001807f41646472657373206e6f7420696e20417272617900000000000000000000000081525060200191505060405180910390fd5b6000610823826102c6565b905060008190505b60018080549050038110156109c7576000806001838154811061084a57fe5b9060005260206000200160009054906101000a900473ffffffffffffffffffffffffffffffffffffffff1673ffffffffffffffffffffffffffffffffffffffff1673ffffffffffffffffffffffffffffffffffffffff168152602001908152602001600020546000806001808501815481106108c257fe5b9060005260206000200160009054906101000a900473ffffffffffffffffffffffffffffffffffffffff1673ffffffffffffffffffffffffffffffffffffffff1673ffffffffffffffffffffffffffffffffffffffff1681526020019081526020016000208190555060018082018154811061093a57fe5b9060005260206000200160009054906101000a900473ffffffffffffffffffffffffffffffffffffffff166001828154811061097257fe5b9060005260206000200160006101000a81548173ffffffffffffffffffffffffffffffffffffffff021916908373ffffffffffffffffffffffffffffffffffffffff160217905550808060010191505061082b565b506000808373ffffffffffffffffffffffffffffffffffffffff1673ffffffffffffffffffffffffffffffffffffffff168152602001908152602001600020600090556001805480610a1557fe5b6001900381819060005260206000200160006101000a81549073ffffffffffffffffffffffffffffffffffffffff02191690559055505056fea2646970667358221220e0b58e49561203eee5f673a93f58ce6e06081c7acb21ae3252cf708cd57d0dd864736f6c63430006070033608060405234801561001057600080fd5b50600160009080600181540180825580915050600190039060005260206000200160009091909190916101000a81548173ffffffffffffffffffffffffffffffffffffffff021916908373ffffffffffffffffffffffffffffffffffffffff160217905550610a84806100846000396000f3fe608060405234801561001057600080fd5b506004361061009a576000357c0100000000000000000000000000000000000000000000000000000000900480636714b669116100785780636714b66914610159578063d504ea1d146101c7578063deac465914610226578063f0335205146102825761009a565b806316c197391461009f578063243d9220146100f75780633ec768571461013b575b600080fd5b6100e1600480360360208110156100b557600080fd5b81019080803573ffffffffffffffffffffffffffffffffffffffff1690602001909291905050506102c6565b6040518082815260200191505060405180910390f35b6101396004803603602081101561010d57600080fd5b81019080803573ffffffffffffffffffffffffffffffffffffffff16906020019092919050505061034c565b005b610143610519565b6040518082815260200191505060405180910390f35b6101856004803603602081101561016f57600080fd5b8101908080359060200190929190505050610528565b604051808273ffffffffffffffffffffffffffffffffffffffff1673ffffffffffffffffffffffffffffffffffffffff16815260200191505060405180910390f35b6101cf610658565b6040518080602001828103825283818151815260200191508051906020019060200280838360005b838110156102125780820151818401526020810190506101f7565b505050509050019250505060405180910390f35b6102686004803603602081101561023c57600080fd5b81019080803573ffffffffffffffffffffffffffffffffffffffff169060200190929190505050610753565b604051808215151515815260200191505060405180910390f35b6102c46004803603602081101561029857600080fd5b81019080803573ffffffffffffffffffffffffffffffffffffffff16906020019092919050505061079d565b005b60008073ffffffffffffffffffffffffffffffffffffffff168273ffffffffffffffffffffffffffffffffffffffff1614156103055760009050610347565b6000808373ffffffffffffffffffffffffffffffffffffffff1673ffffffffffffffffffffffffffffffffffffffff1681526020019081526020016000205490505b919050565b600073ffffffffffffffffffffffffffffffffffffffff168173ffffffffffffffffffffffffffffffffffffffff1614156103ef576040517f08c379a000000000000000000000000000000000000000000000000000000000815260040180806020018281038252600f8152602001807f496e76616c69642061646472657373000000000000000000000000000000000081525060200191505060405180910390fd5b6103f881610753565b1561046b576040517f08c379a00000000000000000000000000000000000000000000000000000000081526004018080602001828103825260188152602001807f4164647265737320616c726561647920696e204172726179000000000000000081525060200191505060405180910390fd5b6001805490506000808373ffffffffffffffffffffffffffffffffffffffff1673ffffffffffffffffffffffffffffffffffffffff168152602001908152602001600020819055506001819080600181540180825580915050600190039060005260206000200160009091909190916101000a81548173ffffffffffffffffffffffffffffffffffffffff021916908373ffffffffffffffffffffffffffffffffffffffff16021790555050565b60006001808054905003905090565b600080821161059f576040517f08c379a00000000000000000000000000000000000000000000000000000000081526004018080602001828103825260178152602001807f7468697320696e646578206973206e6f742076616c696400000000000000000081525060200191505060405180910390fd5b6001805490508210610619576040517f08c379a000000000000000000000000000000000000000000000000000000000815260040180806020018281038252600d8152602001807f6f7574206f6620626f756e64730000000000000000000000000000000000000081525060200191505060405180910390fd5b6001828154811061062657fe5b9060005260206000200160009054906101000a900473ffffffffffffffffffffffffffffffffffffffff169050919050565b6060600180805490500367ffffffffffffffff8111801561067857600080fd5b506040519080825280602002602001820160405280156106a75781602001602082028036833780820191505090505b50905060008090505b600180805490500381101561074c576001808201815481106106ce57fe5b9060005260206000200160009054906101000a900473ffffffffffffffffffffffffffffffffffffffff1682828151811061070557fe5b602002602001019073ffffffffffffffffffffffffffffffffffffffff16908173ffffffffffffffffffffffffffffffffffffffff168152505080806001019150506106b0565b5080905090565b6000806000808473ffffffffffffffffffffffffffffffffffffffff1673ffffffffffffffffffffffffffffffffffffffff16815260200190815260200160002054119050919050565b6107a681610753565b610818576040517f08c379a00000000000000000000000000000000000000000000000000000000081526004018080602001828103825260148152602001807f41646472657373206e6f7420696e20417272617900000000000000000000000081525060200191505060405180910390fd5b6000610823826102c6565b905060008190505b60018080549050038110156109c7576000806001838154811061084a57fe5b9060005260206000200160009054906101000a900473ffffffffffffffffffffffffffffffffffffffff1673ffffffffffffffffffffffffffffffffffffffff1673ffffffffffffffffffffffffffffffffffffffff168152602001908152602001600020546000806001808501815481106108c257fe5b9060005260206000200160009054906101000a900473ffffffffffffffffffffffffffffffffffffffff1673ffffffffffffffffffffffffffffffffffffffff1673ffffffffffffffffffffffffffffffffffffffff1681526020019081526020016000208190555060018082018154811061093a57fe5b9060005260206000200160009054906101000a900473ffffffffffffffffffffffffffffffffffffffff166001828154811061097257fe5b9060005260206000200160006101000a81548173ffffffffffffffffffffffffffffffffffffffff021916908373ffffffffffffffffffffffffffffffffffffffff160217905550808060010191505061082b565b506000808373ffffffffffffffffffffffffffffffffffffffff1673ffffffffffffffffffffffffffffffffffffffff168152602001908152602001600020600090556001805480610a1557fe5b6001900381819060005260206000200160006101000a81549073ffffffffffffffffffffffffffffffffffffffff02191690559055505056fea2646970667358221220e0b58e49561203eee5f673a93f58ce6e06081c7acb21ae3252cf708cd57d0dd864736f6c63430006070033608060405234801561001057600080fd5b5060008060008073ffffffffffffffffffffffffffffffffffffffff1673ffffffffffffffffffffffffffffffffffffffff16815260200190815260200160002081905550600260009080600181540180825580915050600190039060005260206000200160009091909190916101000a81548173ffffffffffffffffffffffffffffffffffffffff021916908373ffffffffffffffffffffffffffffffffffffffff1602179055506114dd806100c86000396000f3fe608060405234801561001057600080fd5b50600436106100a5576000357c010000000000000000000000000000000000000000000000000000000090048063436df05611610078578063436df056146101c35780636714b66914610268578063deac4659146102d6578063e5b40eaf14610332576100a5565b806311ef241b146100aa57806316c1973914610109578063243d9220146101615780633ec76857146101a5575b600080fd5b6100b2610396565b6040518080602001828103825283818151815260200191508051906020019060200280838360005b838110156100f55780820151818401526020810190506100da565b505050509050019250505060405180910390f35b61014b6004803603602081101561011f57600080fd5b81019080803573ffffffffffffffffffffffffffffffffffffffff169060200190929190505050610494565b6040518082815260200191505060405180910390f35b6101a36004803603602081101561017757600080fd5b81019080803573ffffffffffffffffffffffffffffffffffffffff16906020019092919050505061051a565b005b6101ad61082f565b6040518082815260200191505060405180910390f35b610211600480360360408110156101d957600080fd5b81019080803573ffffffffffffffffffffffffffffffffffffffff16906020019092919080351515906020019092919050505061083f565b6040518080602001828103825283818151815260200191508051906020019060200280838360005b83811015610254578082015181840152602081019050610239565b505050509050019250505060405180910390f35b6102946004803603602081101561027e57600080fd5b8101908080359060200190929190505050610c38565b604051808273ffffffffffffffffffffffffffffffffffffffff1673ffffffffffffffffffffffffffffffffffffffff16815260200191505060405180910390f35b610318600480360360208110156102ec57600080fd5b81019080803573ffffffffffffffffffffffffffffffffffffffff169060200190929190505050610d68565b604051808215151515815260200191505060405180910390f35b6103946004803603604081101561034857600080fd5b81019080803573ffffffffffffffffffffffffffffffffffffffff169060200190929190803573ffffffffffffffffffffffffffffffffffffffff169060200190929190505050610db2565b005b606060016002805490500367ffffffffffffffff811180156103b757600080fd5b506040519080825280602002602001820160405280156103e65781602001602082028036833780820191505090505b50905060008090505b60016002805490500381101561048d576002600182018154811061040f57fe5b9060005260206000200160009054906101000a900473ffffffffffffffffffffffffffffffffffffffff1682828151811061044657fe5b602002602001019073ffffffffffffffffffffffffffffffffffffffff16908173ffffffffffffffffffffffffffffffffffffffff168152505080806001019150506103ef565b5080905090565b60008073ffffffffffffffffffffffffffffffffffffffff168273ffffffffffffffffffffffffffffffffffffffff1614156104d35760009050610515565b6000808373ffffffffffffffffffffffffffffffffffffffff1673ffffffffffffffffffffffffffffffffffffffff1681526020019081526020016000205490505b919050565b6000819050600073ffffffffffffffffffffffffffffffffffffffff168173ffffffffffffffffffffffffffffffffffffffff1614156105c2576040517f08c379a000000000000000000000000000000000000000000000000000000000815260040180806020018281038252600d8152602001807f496e76616c6964204576656e740000000000000000000000000000000000000081525060200191505060405180910390fd5b6105cb81610d68565b1561063e576040517f08c379a00000000000000000000000000000000000000000000000000000000081526004018080602001828103825260168152602001807f4576656e7420616c726561647920696e2041727261790000000000000000000081525060200191505060405180910390fd5b6002805490506000808373ffffffffffffffffffffffffffffffffffffffff1673ffffffffffffffffffffffffffffffffffffffff168152602001908152602001600020819055506002829080600181540180825580915050600190039060005260206000200160009091909190916101000a81548173ffffffffffffffffffffffffffffffffffffffff021916908373ffffffffffffffffffffffffffffffffffffffff16021790555060008273ffffffffffffffffffffffffffffffffffffffff166384de1ea56040518163ffffffff167c010000000000000000000000000000000000000000000000000000000002815260040160206040518083038186803b15801561074d57600080fd5b505afa158015610761573d6000803e3d6000fd5b505050506040513d602081101561077757600080fd5b81019080805190602001909291905050509050600160008273ffffffffffffffffffffffffffffffffffffffff1673ffffffffffffffffffffffffffffffffffffffff168152602001908152602001600020829080600181540180825580915050600190039060005260206000200160009091909190916101000a81548173ffffffffffffffffffffffffffffffffffffffff021916908373ffffffffffffffffffffffffffffffffffffffff160217905550505050565b6000600160028054905003905090565b60608161091157600160008473ffffffffffffffffffffffffffffffffffffffff1673ffffffffffffffffffffffffffffffffffffffff16815260200190815260200160002080548060200260200160405190810160405280929190818152602001828054801561090557602002820191906000526020600020905b8160009054906101000a900473ffffffffffffffffffffffffffffffffffffffff1673ffffffffffffffffffffffffffffffffffffffff16815260200190600101908083116108bb575b50505050509050610c32565b60008090506000600190505b600280549050811015610a50576002818154811061093757fe5b9060005260206000200160009054906101000a900473ffffffffffffffffffffffffffffffffffffffff1673ffffffffffffffffffffffffffffffffffffffff1663929066f5866040518263ffffffff167c0100000000000000000000000000000000000000000000000000000000028152600401808273ffffffffffffffffffffffffffffffffffffffff1673ffffffffffffffffffffffffffffffffffffffff16815260200191505060206040518083038186803b1580156109fa57600080fd5b505afa158015610a0e573d6000803e3d6000fd5b505050506040513d6020811015610a2457600080fd5b810190808051906020019092919050505015610a435781806001019250505b808060010191505061091d565b508067ffffffffffffffff81118015610a6857600080fd5b50604051908082528060200260200182016040528015610a975781602001602082028036833780820191505090505b509150600080905060008090505b600160028054905003811015610c2b57600060026001830181548110610ac757fe5b9060005260206000200160009054906101000a900473ffffffffffffffffffffffffffffffffffffffff1690508073ffffffffffffffffffffffffffffffffffffffff1663929066f5886040518263ffffffff167c0100000000000000000000000000000000000000000000000000000000028152600401808273ffffffffffffffffffffffffffffffffffffffff1673ffffffffffffffffffffffffffffffffffffffff16815260200191505060206040518083038186803b158015610b8d57600080fd5b505afa158015610ba1573d6000803e3d6000fd5b505050506040513d6020811015610bb757600080fd5b810190808051906020019092919050505015610c1d5780858481518110610bda57fe5b602002602001019073ffffffffffffffffffffffffffffffffffffffff16908173ffffffffffffffffffffffffffffffffffffffff168152505082806001019350505b508080600101915050610aa5565b5082925050505b92915050565b6000808211610caf576040517f08c379a00000000000000000000000000000000000000000000000000000000081526004018080602001828103825260178152602001807f7468697320696e646578206973206e6f742076616c696400000000000000000081525060200191505060405180910390fd5b6002805490508210610d29576040517f08c379a000000000000000000000000000000000000000000000000000000000815260040180806020018281038252600d8152602001807f6f7574206f6620626f756e64730000000000000000000000000000000000000081525060200191505060405180910390fd5b60028281548110610d3657fe5b9060005260206000200160009054906101000a900473ffffffffffffffffffffffffffffffffffffffff169050919050565b6000806000808473ffffffffffffffffffffffffffffffffffffffff1673ffffffffffffffffffffffffffffffffffffffff16815260200190815260200160002054119050919050565b60008273ffffffffffffffffffffffffffffffffffffffff166384de1ea56040518163ffffffff167c010000000000000000000000000000000000000000000000000000000002815260040160206040518083038186803b158015610e1657600080fd5b505afa158015610e2a573d6000803e3d6000fd5b505050506040513d6020811015610e4057600080fd5b810190808051906020019092919050505090508073ffffffffffffffffffffffffffffffffffffffff168273ffffffffffffffffffffffffffffffffffffffff1614610ef4576040517f08c379a000000000000000000000000000000000000000000000000000000000815260040180806020018281038252601f8152602001807f4f6e6c7920496e69746961746f722063616e2064656c657465204576656e740081525060200191505060405180910390fd5b6000839050610f0281610d68565b610f74576040517f08c379a00000000000000000000000000000000000000000000000000000000081526004018080602001828103825260128152602001807f4576656e74206e6f7420696e204172726179000000000000000000000000000081525060200191505060405180910390fd5b6000610f7f82610494565b905060008190505b6001600280549050038110156111265760008060028381548110610fa757fe5b9060005260206000200160009054906101000a900473ffffffffffffffffffffffffffffffffffffffff1673ffffffffffffffffffffffffffffffffffffffff1673ffffffffffffffffffffffffffffffffffffffff168152602001908152602001600020546000806002600185018154811061102057fe5b9060005260206000200160009054906101000a900473ffffffffffffffffffffffffffffffffffffffff1673ffffffffffffffffffffffffffffffffffffffff1673ffffffffffffffffffffffffffffffffffffffff168152602001908152602001600020819055506002600182018154811061109957fe5b9060005260206000200160009054906101000a900473ffffffffffffffffffffffffffffffffffffffff16600282815481106110d157fe5b9060005260206000200160006101000a81548173ffffffffffffffffffffffffffffffffffffffff021916908373ffffffffffffffffffffffffffffffffffffffff1602179055508080600101915050610f87565b506000808373ffffffffffffffffffffffffffffffffffffffff1673ffffffffffffffffffffffffffffffffffffffff16815260200190815260200160002060009055600280548061117457fe5b6001900381819060005260206000200160006101000a81549073ffffffffffffffffffffffffffffffffffffffff02191690559055600080905060008090505b600160008673ffffffffffffffffffffffffffffffffffffffff1673ffffffffffffffffffffffffffffffffffffffff168152602001908152602001600020805490508110156112b7578373ffffffffffffffffffffffffffffffffffffffff16600160008773ffffffffffffffffffffffffffffffffffffffff1673ffffffffffffffffffffffffffffffffffffffff168152602001908152602001600020828154811061125f57fe5b9060005260206000200160009054906101000a900473ffffffffffffffffffffffffffffffffffffffff1673ffffffffffffffffffffffffffffffffffffffff1614156112aa578091505b80806001019150506111b4565b5060008190505b60018060008773ffffffffffffffffffffffffffffffffffffffff1673ffffffffffffffffffffffffffffffffffffffff168152602001908152602001600020805490500381101561142157600160008673ffffffffffffffffffffffffffffffffffffffff1673ffffffffffffffffffffffffffffffffffffffff168152602001908152602001600020600182018154811061135757fe5b9060005260206000200160009054906101000a900473ffffffffffffffffffffffffffffffffffffffff16600160008773ffffffffffffffffffffffffffffffffffffffff1673ffffffffffffffffffffffffffffffffffffffff16815260200190815260200160002082815481106113cc57fe5b9060005260206000200160006101000a81548173ffffffffffffffffffffffffffffffffffffffff021916908373ffffffffffffffffffffffffffffffffffffffff16021790555080806001019150506112be565b50600160008573ffffffffffffffffffffffffffffffffffffffff1673ffffffffffffffffffffffffffffffffffffffff16815260200190815260200160002080548061146a57fe5b6001900381819060005260206000200160006101000a81549073ffffffffffffffffffffffffffffffffffffffff0219169055905550505050505056fea2646970667358221220856f357c533ddd713ff017f58bfde093e9c19de8bbeb110cd93b836a0262e30b64736f6c63430006070033416363657373206973206f6e6c7920616c6c6f77656420666f722072656769737465726564207573657273a2646970667358221220a47b04cae6f82981c4a2b0eaecfab6356a8c1fed2a6200e65bf72e31d1df8ec164736f6c63430006070033",
  "immutableReferences": {},
  "source": "pragma solidity ^0.6.7;\r\n\r\n// import storage \r\nimport \"../contracts/Storage/Set.sol\" as SetStorage;\r\nimport \"../contracts/Storage/EventSet.sol\" as EventStorage;\r\n\r\n// import event contract\r\nimport \"../contracts/Event.sol\" as EventContract;\r\n\r\n// EVENTMANAGER \r\n// Governance Contract\r\n// This contract manages \r\n// - User Account Creation \r\n// - Event Creation and Management by the User itself \r\ncontract EventManager {\r\n    \r\n    // VARIABLES  \r\n    SetStorage.Set                  private user_storage;               // user address storage \r\n    EventStorage.EventSet           private event_storage;              // event storage\r\n    \r\n    address                 payable private admin = 0xad67a760e4Cb77e19F1B7B79d6B4901B5360DEF1;     // admin address\r\n    \r\n    // ADMIN ACCESS \r\n    // only admin can see or change sensible data\r\n    modifier onlyAdmin {\r\n        require(msg.sender == admin, \"Access denied\");\r\n        _;\r\n    }\r\n    \r\n    // CONSTRUCTOR \r\n    // this is only called once with the final version\r\n    constructor() public onlyAdmin\r\n    { }\r\n    \r\n    // INIT STORAGE \r\n    // this function must be called immediately after Constructor and helps to save gas costs \r\n    function init_storage() public onlyAdmin \r\n    {\r\n        // create users and events sets where the addresses are stored \r\n        user_storage            = new SetStorage.Set();\r\n        \r\n        // create event storage set \r\n        event_storage           = new EventStorage.EventSet();\r\n    }\r\n    \r\n    // EXPORT STORAGE \r\n    // for future upgrades \r\n    function export_storage() public view onlyAdmin returns (address user_storage_address, address event_storage_address)\r\n    {\r\n        return (address(user_storage), address(event_storage));\r\n    }\r\n    \r\n    \r\n    // USER MANAGEMENT \r\n    \r\n    // user authentication\r\n    // only a user has access to his account, events, etc \r\n    modifier onlyUser {\r\n        require(user_storage.inArray(msg.sender), \"Access is only allowed for registered users\");\r\n        _;\r\n    }\r\n    \r\n    // user login status  \r\n    // access: everybody - every user has to log in\r\n    function login() public view returns(bool is_user)\r\n    {\r\n        // return login status \r\n        return user_storage.inArray(msg.sender);\r\n    }\r\n    \r\n    // user registration \r\n    // access: everybody can register\r\n    function register() public \r\n    returns (uint user_id)\r\n    {\r\n        // user address \r\n        address payable user_address = msg.sender;\r\n        \r\n        // check if user is already registered \r\n        require(!user_storage.inArray(user_address), \"User already registered\");\r\n        \r\n        // register new user \r\n        user_storage.addToArray(user_address);\r\n        \r\n        // return user id \r\n        return user_storage.getPosition(user_address);\r\n    }\r\n    \r\n    // get user count \r\n    // access: admin only\r\n    function getUserCount() public view onlyAdmin returns(uint256 user_count)\r\n    {\r\n        return user_storage.getElementCount();\r\n    }\r\n    \r\n    // get user address by id \r\n    // access: admin only\r\n    function getUserById(uint256 id) public view onlyAdmin returns(address payable user_address) \r\n    {\r\n        return payable(user_storage.getByPosition(id));\r\n    }\r\n    \r\n    \r\n    // EVENT MANAGEMENT\r\n    \r\n    // event creation \r\n    // access: user only \r\n    function createUserEvent( \r\n        string memory event_name, \r\n        string memory event_location, \r\n        uint256 event_start_time, \r\n        uint256 event_end_time    \r\n    ) public onlyUser returns (address new_event_address)\r\n    {\r\n        // new event \r\n        EventContract.Event new_event = new EventContract.Event(msg.sender, event_name, event_location, event_start_time, event_end_time);\r\n        \r\n        // add event to event storage\r\n        event_storage.addToArray(new_event);\r\n        \r\n        // add event address to event address storage \r\n        // event_address_storage.addToArray(address(new_event));\r\n        \r\n        // return event address \r\n        return address(new_event);\r\n    }\r\n    \r\n    \r\n    // get event count\r\n    // access: admin only \r\n    function getEventCount() public view onlyAdmin returns(uint256 event_count) \r\n    {\r\n        return event_storage.getElementCount();\r\n    }\r\n    \r\n    // get event by id \r\n    // access: admin only \r\n    function getEventById(uint event_id) public view onlyAdmin returns(EventContract.Event event_element)\r\n    {\r\n        return event_storage.getByPosition(event_id);\r\n    }\r\n    \r\n    // get event position \r\n    // access: user only \r\n    function getEventPosition(address event_address) public view onlyUser returns(uint event_position)\r\n    {\r\n        return event_storage.getPosition(event_address);\r\n    }\r\n    \r\n    // get event info \r\n    // access: user only\r\n    function getEventInfo(EventContract.Event event_address) public view onlyUser\r\n    returns(\r\n        address         event_id, \r\n        address         event_initiator,\r\n        string memory   event_name,\r\n        string memory   event_location,\r\n        uint256         event_start_time,\r\n        uint256         event_end_time,\r\n        uint256         event_created_time,\r\n        SetStorage.Set  event_participants\r\n    ) {\r\n        // return event info \r\n        return event_address.getInfo();\r\n    }\r\n    \r\n    // get all events \r\n    // access: admin only \r\n    function getAllEvents() public view onlyAdmin returns(EventContract.Event [] memory all_events)\r\n    {\r\n        // return event array \r\n        return event_storage.getEventArray();\r\n    }\r\n\r\n    // get user events\r\n    // access: user only \r\n    function getUserEvents() public view onlyUser returns(address [] memory user_events) \r\n    {\r\n        // return user event array \r\n        return event_storage.getUserEventArray(msg.sender, false);\r\n    }\r\n    \r\n    // get events where user participates \r\n    // access: user only \r\n    function getUserParticipantEvents() public view onlyUser returns(address [] memory user_participant_events) \r\n    {\r\n        // return user participant event array \r\n        return event_storage.getUserEventArray(msg.sender, true);\r\n    }\r\n    \r\n    // participate at an event \r\n    // access: user only \r\n    function participateEventById(EventContract.Event event_address) public onlyUser \r\n    {\r\n        // participate at an event \r\n        event_address.participate(msg.sender);\r\n    }\r\n    \r\n    // get event participants \r\n    // access: user only \r\n    function getEventParticipants(EventContract.Event event_address) public view onlyUser returns(address [] memory participants_array)\r\n    {\r\n        return event_address.getParticipantsArray();\r\n    }\r\n    \r\n    \r\n    // propose new event item \r\n    // access: user only \r\n    function createUserEventItem(EventContract.Event event_address, string memory event_item_name) public onlyUser \r\n    {\r\n        // create a new item \r\n        event_address.proposeItemToBringWith(msg.sender, event_item_name); \r\n    }\r\n    \r\n    // get event item info \r\n    // access: user only \r\n    function getEventItemInfo(EventContract.Event event_address, uint event_item_id) public view onlyUser \r\n    returns (\r\n        uint256                 item_id, \r\n        address     payable     item_holder,\r\n        string      memory      item_name, \r\n        uint256                 item_time_expiration,\r\n        bool                    item_checked\r\n    )\r\n    {\r\n        return event_address.getItemInfo(event_item_id);\r\n    }\r\n    \r\n    // get event item count \r\n    // access: user only \r\n    function getEventItemCount(EventContract.Event event_address) public view onlyUser \r\n    returns (uint item_count) \r\n    {\r\n        return event_address.getItemCount();\r\n    }\r\n    \r\n    // update item state \r\n    // access: user only \r\n    function updateEventItemState(EventContract.Event event_address, uint item_id) public onlyUser \r\n    {\r\n        event_address.updatePartyItemCheck(msg.sender, item_id);\r\n    }\r\n    \r\n    // remove event item \r\n    // access: user only \r\n    function removeEventItem(EventContract.Event event_address, uint event_item_id) public onlyUser\r\n    {\r\n        event_address.deletePartyItem(msg.sender, event_item_id);\r\n    }\r\n    \r\n    // remove event \r\n    // access: user only \r\n    function removeEvent(EventContract.Event event_address) public onlyUser \r\n    {\r\n        event_storage.removeFromArray(event_address, msg.sender);    \r\n    }\r\n    \r\n}",
  "sourcePath": "C:/Users/maxr2011/OneDrive/FH/FWPM Blockchain und Smart Contracts/solidity/src/eventManagerTruffle/contracts/EventManager.sol",
  "compiler": {
    "name": "solc",
    "version": "0.6.7+commit.b8d736ae.Emscripten.clang"
  },
  "schemaVersion": "3.2.2",
  "updatedAt": "2020-07-21T11:28:52.219Z",
  "devdoc": {
    "methods": {}
  },
  "userdoc": {
    "methods": {}
  }
}