{
  "contractName": "EventManager",
  "abi": [
    {
      "inputs": [],
      "stateMutability": "nonpayable",
      "type": "constructor"
    },
    {
      "inputs": [],
      "name": "init_storage",
      "outputs": [],
      "stateMutability": "nonpayable",
      "type": "function"
    },
    {
      "inputs": [],
      "name": "login",
      "outputs": [
        {
          "internalType": "bool",
          "name": "is_user",
          "type": "bool"
        }
      ],
      "stateMutability": "view",
      "type": "function"
    },
    {
      "inputs": [],
      "name": "register",
      "outputs": [
        {
          "internalType": "uint256",
          "name": "user_id",
          "type": "uint256"
        }
      ],
      "stateMutability": "nonpayable",
      "type": "function"
    },
    {
      "inputs": [],
      "name": "getUserCount",
      "outputs": [
        {
          "internalType": "uint256",
          "name": "user_count",
          "type": "uint256"
        }
      ],
      "stateMutability": "view",
      "type": "function"
    },
    {
      "inputs": [
        {
          "internalType": "uint256",
          "name": "id",
          "type": "uint256"
        }
      ],
      "name": "getUserById",
      "outputs": [
        {
          "internalType": "address payable",
          "name": "user_address",
          "type": "address"
        }
      ],
      "stateMutability": "view",
      "type": "function"
    },
    {
      "inputs": [
        {
          "internalType": "string",
          "name": "event_name",
          "type": "string"
        },
        {
          "internalType": "string",
          "name": "event_location",
          "type": "string"
        },
        {
          "internalType": "uint256",
          "name": "event_start_time",
          "type": "uint256"
        },
        {
          "internalType": "uint256",
          "name": "event_end_time",
          "type": "uint256"
        }
      ],
      "name": "createUserEvent",
      "outputs": [
        {
          "internalType": "address",
          "name": "new_event_address",
          "type": "address"
        }
      ],
      "stateMutability": "nonpayable",
      "type": "function"
    },
    {
      "inputs": [],
      "name": "getEventCount",
      "outputs": [
        {
          "internalType": "uint256",
          "name": "event_count",
          "type": "uint256"
        }
      ],
      "stateMutability": "view",
      "type": "function"
    },
    {
      "inputs": [
        {
          "internalType": "uint256",
          "name": "event_id",
          "type": "uint256"
        }
      ],
      "name": "getEventById",
      "outputs": [
        {
          "internalType": "contract Event",
          "name": "event_element",
          "type": "address"
        }
      ],
      "stateMutability": "view",
      "type": "function"
    },
    {
      "inputs": [
        {
          "internalType": "address",
          "name": "event_address",
          "type": "address"
        }
      ],
      "name": "getEventPosition",
      "outputs": [
        {
          "internalType": "uint256",
          "name": "event_position",
          "type": "uint256"
        }
      ],
      "stateMutability": "view",
      "type": "function"
    },
    {
      "inputs": [
        {
          "internalType": "contract Event",
          "name": "event_address",
          "type": "address"
        }
      ],
      "name": "getEventInfo",
      "outputs": [
        {
          "internalType": "address",
          "name": "event_id",
          "type": "address"
        },
        {
          "internalType": "address",
          "name": "event_initiator",
          "type": "address"
        },
        {
          "internalType": "string",
          "name": "event_name",
          "type": "string"
        },
        {
          "internalType": "string",
          "name": "event_location",
          "type": "string"
        },
        {
          "internalType": "uint256",
          "name": "event_start_time",
          "type": "uint256"
        },
        {
          "internalType": "uint256",
          "name": "event_end_time",
          "type": "uint256"
        },
        {
          "internalType": "uint256",
          "name": "event_created_time",
          "type": "uint256"
        },
        {
          "internalType": "contract Set",
          "name": "event_participants",
          "type": "address"
        }
      ],
      "stateMutability": "view",
      "type": "function"
    },
    {
      "inputs": [],
      "name": "getAllEvents",
      "outputs": [
        {
          "internalType": "contract Event[]",
          "name": "all_events",
          "type": "address[]"
        }
      ],
      "stateMutability": "view",
      "type": "function"
    },
    {
      "inputs": [],
      "name": "getUserEvents",
      "outputs": [
        {
          "internalType": "address[]",
          "name": "user_events",
          "type": "address[]"
        }
      ],
      "stateMutability": "view",
      "type": "function"
    },
    {
      "inputs": [],
      "name": "getUserParticipantEvents",
      "outputs": [
        {
          "internalType": "address[]",
          "name": "user_participant_events",
          "type": "address[]"
        }
      ],
      "stateMutability": "view",
      "type": "function"
    },
    {
      "inputs": [
        {
          "internalType": "contract Event",
          "name": "event_address",
          "type": "address"
        }
      ],
      "name": "participateEventById",
      "outputs": [],
      "stateMutability": "nonpayable",
      "type": "function"
    },
    {
      "inputs": [
        {
          "internalType": "contract Event",
          "name": "event_address",
          "type": "address"
        }
      ],
      "name": "getEventParticipants",
      "outputs": [
        {
          "internalType": "address[]",
          "name": "participants_array",
          "type": "address[]"
        }
      ],
      "stateMutability": "view",
      "type": "function"
    },
    {
      "inputs": [
        {
          "internalType": "contract Event",
          "name": "event_address",
          "type": "address"
        },
        {
          "internalType": "string",
          "name": "event_item_name",
          "type": "string"
        }
      ],
      "name": "createUserEventItem",
      "outputs": [],
      "stateMutability": "nonpayable",
      "type": "function"
    },
    {
      "inputs": [
        {
          "internalType": "contract Event",
          "name": "event_address",
          "type": "address"
        },
        {
          "internalType": "uint256",
          "name": "event_item_id",
          "type": "uint256"
        }
      ],
      "name": "getEventItemInfo",
      "outputs": [
        {
          "internalType": "uint256",
          "name": "item_id",
          "type": "uint256"
        },
        {
          "internalType": "address payable",
          "name": "item_holder",
          "type": "address"
        },
        {
          "internalType": "string",
          "name": "item_name",
          "type": "string"
        },
        {
          "internalType": "uint256",
          "name": "item_time_expiration",
          "type": "uint256"
        },
        {
          "internalType": "bool",
          "name": "item_checked",
          "type": "bool"
        }
      ],
      "stateMutability": "view",
      "type": "function"
    },
    {
      "inputs": [
        {
          "internalType": "contract Event",
          "name": "event_address",
          "type": "address"
        }
      ],
      "name": "getEventItemCount",
      "outputs": [
        {
          "internalType": "uint256",
          "name": "item_count",
          "type": "uint256"
        }
      ],
      "stateMutability": "view",
      "type": "function"
    },
    {
      "inputs": [
        {
          "internalType": "contract Event",
          "name": "event_address",
          "type": "address"
        },
        {
          "internalType": "uint256",
          "name": "item_id",
          "type": "uint256"
        }
      ],
      "name": "updateEventItemState",
      "outputs": [],
      "stateMutability": "nonpayable",
      "type": "function"
    },
    {
      "inputs": [
        {
          "internalType": "contract Event",
          "name": "event_address",
          "type": "address"
        },
        {
          "internalType": "uint256",
          "name": "event_item_id",
          "type": "uint256"
        }
      ],
      "name": "removeEventItem",
      "outputs": [],
      "stateMutability": "nonpayable",
      "type": "function"
    },
    {
      "inputs": [
        {
          "internalType": "contract Event",
          "name": "event_address",
          "type": "address"
        }
      ],
      "name": "removeEvent",
      "outputs": [],
      "stateMutability": "nonpayable",
      "type": "function"
    }
  ],
  "bytecode": "0x608060405260028054600160a060020a03191673367e7e251f63eeccd9af88121a2c7d9f3cd5168c17905534801561003657600080fd5b50600254600160a060020a031633146100b057604080517f08c379a000000000000000000000000000000000000000000000000000000000815260206004820152600d60248201527f4163636573732064656e69656400000000000000000000000000000000000000604482015290519081900360640190fd5b61654f806100bf6000396000f3fe60806040523480156200001157600080fd5b5060043610620001575760003560e060020a900480636ed6da9e11620000cd578063b5cb15f7116200008b578063b5cb15f71462000757578063b98079bc1462000761578063b9f827021462000781578063c27a500d14620007aa578063c386e54514620007b4578063d9e48f5c14620007e35762000157565b80636ed6da9e14620006bd5780639568ebf614620006dd57806398f825731462000706578063acf65ecd146200072f578063b34e97e814620007395762000157565b8063280ea253116200011b578063280ea25314620004c95780632bf7698014620005a5578063328cadef14620005af57806366bc7b7f14620005d857806368d02e0014620006945762000157565b80620ad44e146200015c5780630f0332a3146200018d5780630f97756114620002fa578063138b5db614620003565780631aa3a00814620004ad575b600080fd5b6200018b600480360360408110156200017457600080fd5b50600160a060020a038135169060200135620007ed565b005b620001b660048036036020811015620001a557600080fd5b5035600160a060020a03166200092f565b6040518089600160a060020a0316600160a060020a0316815260200188600160a060020a0316600160a060020a03168152602001806020018060200187815260200186815260200185815260200184600160a060020a0316600160a060020a03168152602001838103835289818151815260200191508051906020019080838360005b838110156200025357818101518382015260200162000239565b50505050905090810190601f168015620002815780820380516001836020036101000a031916815260200191505b5083810382528851815288516020918201918a019080838360005b83811015620002b65781810151838201526020016200029c565b50505050905090810190601f168015620002e45780820380516001836020036101000a031916815260200191505b509a505050505050505050505060405180910390f35b6200030462000c2f565b60408051602080825283518183015283519192839290830191858101910280838360005b838110156200034257818101518382015260200162000328565b505050509050019250505060405180910390f35b62000491600480360360808110156200036e57600080fd5b8101906020810181356401000000008111156200038a57600080fd5b8201836020820111156200039d57600080fd5b80359060200191846001830284011164010000000083111715620003c057600080fd5b91908080601f01602080910402602001604051908101604052809392919081815260200183838082843760009201919091525092959493602081019350359150506401000000008111156200041457600080fd5b8201836020820111156200042757600080fd5b803590602001918460018302840111640100000000831117156200044a57600080fd5b91908080601f016020809104026020016040519081016040528093929190818152602001838380828437600092019190915250929550508235935050506020013562000e2c565b60408051600160a060020a039092168252519081900360200190f35b620004b7620010a9565b60408051918252519081900360200190f35b620004f860048036036040811015620004e157600080fd5b50600160a060020a03813516906020013562001298565b6040518086815260200185600160a060020a0316600160a060020a031681526020018060200184815260200183151515158152602001828103825285818151815260200191508051906020019080838360005b83811015620005655781810151838201526020016200054b565b50505050905090810190601f168015620005935780820380516001836020036101000a031916815260200191505b50965050505050505060405180910390f35b6200018b620014c2565b6200018b60048036036020811015620005c757600080fd5b5035600160a060020a0316620015c8565b6200018b60048036036040811015620005f057600080fd5b600160a060020a0382351691908101906040810160208201356401000000008111156200061c57600080fd5b8201836020820111156200062f57600080fd5b803590602001918460018302840111640100000000831117156200065257600080fd5b91908080601f01602080910402602001604051908101604052809392919081815260200183838082843760009201919091525092955062001702945050505050565b6200030460048036036020811015620006ac57600080fd5b5035600160a060020a03166200188c565b6200049160048036036020811015620006d557600080fd5b503562001a5d565b620004b760048036036020811015620006f557600080fd5b5035600160a060020a031662001b4c565b620004b7600480360360208110156200071e57600080fd5b5035600160a060020a031662001c71565b6200030462001d6c565b6200074362001e95565b604080519115158252519081900360200190f35b620004b762001f18565b62000491600480360360208110156200077957600080fd5b503562001fbe565b6200018b600480360360208110156200079957600080fd5b5035600160a060020a031662002079565b62000304620021a4565b6200018b60048036036040811015620007cc57600080fd5b50600160a060020a0381351690602001356200224b565b620004b762002370565b6000546040805160e060020a63deac46590281523360048201529051600160a060020a039092169163deac465991602480820192602092909190829003018186803b1580156200083c57600080fd5b505afa15801562000851573d6000803e3d6000fd5b505050506040513d60208110156200086857600080fd5b5051620008aa5760405160e560020a62461bcd02815260040180806020018281038252602b815260200180620064ef602b913960400191505060405180910390fd5b604080517fa650f684000000000000000000000000000000000000000000000000000000008152336004820152602481018390529051600160a060020a0384169163a650f68491604480830192600092919082900301818387803b1580156200091257600080fd5b505af115801562000927573d6000803e3d6000fd5b505050505050565b600080546040805160e060020a63deac46590281523360048201529051839260609283928592839283928392600160a060020a03169163deac4659916024808301926020929190829003018186803b1580156200098b57600080fd5b505afa158015620009a0573d6000803e3d6000fd5b505050506040513d6020811015620009b757600080fd5b5051620009f95760405160e560020a62461bcd02815260040180806020018281038252602b815260200180620064ef602b913960400191505060405180910390fd5b88600160a060020a0316635a9b0b896040518163ffffffff1660e060020a02815260040160006040518083038186803b15801562000a3657600080fd5b505afa15801562000a4b573d6000803e3d6000fd5b505050506040513d6000823e601f3d908101601f1916820160405261010081101562000a7657600080fd5b8151602083015160408085018051915193959294830192918464010000000082111562000aa257600080fd5b90830190602082018581111562000ab857600080fd5b825164010000000081118282018810171562000ad357600080fd5b82525081516020918201929091019080838360005b8381101562000b0257818101518382015260200162000ae8565b50505050905090810190601f16801562000b305780820380516001836020036101000a031916815260200191505b506040526020018051604051939291908464010000000082111562000b5457600080fd5b90830190602082018581111562000b6a57600080fd5b825164010000000081118282018810171562000b8557600080fd5b82525081516020918201929091019080838360005b8381101562000bb457818101518382015260200162000b9a565b50505050905090810190601f16801562000be25780820380516001836020036101000a031916815260200191505b506040526020018051906020019092919080519060200190929190805190602001909291908051906020019092919050505097509750975097509750975097509750919395975091939597565b6000546040805160e060020a63deac46590281523360048201529051606092600160a060020a03169163deac4659916024808301926020929190829003018186803b15801562000c7e57600080fd5b505afa15801562000c93573d6000803e3d6000fd5b505050506040513d602081101562000caa57600080fd5b505162000cec5760405160e560020a62461bcd02815260040180806020018281038252602b815260200180620064ef602b913960400191505060405180910390fd5b600154604080517f436df0560000000000000000000000000000000000000000000000000000000081523360048201526000602482018190529151600160a060020a039093169263436df05692604480840193919291829003018186803b15801562000d5757600080fd5b505afa15801562000d6c573d6000803e3d6000fd5b505050506040513d6000823e601f3d908101601f19168201604052602081101562000d9657600080fd5b810190808051604051939291908464010000000082111562000db757600080fd5b90830190602082018581111562000dcd57600080fd5b825186602082028301116401000000008211171562000deb57600080fd5b82525081516020918201928201910280838360005b8381101562000e1a57818101518382015260200162000e00565b50505050905001604052505050905090565b600080546040805160e060020a63deac46590281523360048201529051600160a060020a039092169163deac465991602480820192602092909190829003018186803b15801562000e7c57600080fd5b505afa15801562000e91573d6000803e3d6000fd5b505050506040513d602081101562000ea857600080fd5b505162000eea5760405160e560020a62461bcd02815260040180806020018281038252602b815260200180620064ef602b913960400191505060405180910390fd5b6000338686868660405162000eff9062002417565b8086600160a060020a0316600160a060020a031681526020018060200180602001858152602001848152602001838103835287818151815260200191508051906020019080838360005b8381101562000f6357818101518382015260200162000f49565b50505050905090810190601f16801562000f915780820380516001836020036101000a031916815260200191505b50838103825286518152865160209182019188019080838360005b8381101562000fc657818101518382015260200162000fac565b50505050905090810190601f16801562000ff45780820380516001836020036101000a031916815260200191505b50975050505050505050604051809103906000f0801580156200101b573d6000803e3d6000fd5b50600154604080517f243d9220000000000000000000000000000000000000000000000000000000008152600160a060020a038085166004830152915193945091169163243d92209160248082019260009290919082900301818387803b1580156200108657600080fd5b505af11580156200109b573d6000803e3d6000fd5b509298975050505050505050565b600080546040805160e060020a63deac4659028152336004820181905291519192600160a060020a03169163deac465991602480820192602092909190829003018186803b158015620010fb57600080fd5b505afa15801562001110573d6000803e3d6000fd5b505050506040513d60208110156200112757600080fd5b5051156200117f576040805160e560020a62461bcd02815260206004820152601760248201527f5573657220616c72656164792072656769737465726564000000000000000000604482015290519081900360640190fd5b60008054604080517f243d9220000000000000000000000000000000000000000000000000000000008152600160a060020a0385811660048301529151919092169263243d9220926024808201939182900301818387803b158015620011e457600080fd5b505af1158015620011f9573d6000803e3d6000fd5b5050600054604080517f16c19739000000000000000000000000000000000000000000000000000000008152600160a060020a03868116600483015291519190921693506316c1973992506024808301926020929190829003018186803b1580156200126457600080fd5b505afa15801562001279573d6000803e3d6000fd5b505050506040513d60208110156200129057600080fd5b505191505090565b600080546040805160e060020a63deac46590281523360048201529051839260609284928392600160a060020a03169163deac4659916024808301926020929190829003018186803b158015620012ee57600080fd5b505afa15801562001303573d6000803e3d6000fd5b505050506040513d60208110156200131a57600080fd5b50516200135c5760405160e560020a62461bcd02815260040180806020018281038252602b815260200180620064ef602b913960400191505060405180910390fd5b86600160a060020a031663de7fe3e7876040518263ffffffff1660e060020a0281526004018082815260200191505060006040518083038186803b158015620013a457600080fd5b505afa158015620013b9573d6000803e3d6000fd5b505050506040513d6000823e601f3d908101601f1916820160405260a0811015620013e357600080fd5b815160208301516040808501805191519395929483019291846401000000008211156200140f57600080fd5b9083019060208201858111156200142557600080fd5b82516401000000008111828201881017156200144057600080fd5b82525081516020918201929091019080838360005b838110156200146f57818101518382015260200162001455565b50505050905090810190601f1680156200149d5780820380516001836020036101000a031916815260200191505b5060409081526020820151910151959d949c50929a5091985092965090945050505050565b600254600160a060020a0316331462001514576040805160e560020a62461bcd02815260206004820152600d6024820152600080516020620064cf833981519152604482015290519081900360640190fd5b604051620015229062002425565b604051809103906000f0801580156200153f573d6000803e3d6000fd5b506000805473ffffffffffffffffffffffffffffffffffffffff1916600160a060020a03929092169190911790556040516200157b9062002433565b604051809103906000f08015801562001598573d6000803e3d6000fd5b506001805473ffffffffffffffffffffffffffffffffffffffff1916600160a060020a0392909216919091179055565b6000546040805160e060020a63deac46590281523360048201529051600160a060020a039092169163deac465991602480820192602092909190829003018186803b1580156200161757600080fd5b505afa1580156200162c573d6000803e3d6000fd5b505050506040513d60208110156200164357600080fd5b5051620016855760405160e560020a62461bcd02815260040180806020018281038252602b815260200180620064ef602b913960400191505060405180910390fd5b604080517fb91038c70000000000000000000000000000000000000000000000000000000081523360048201529051600160a060020a0383169163b91038c791602480830192600092919082900301818387803b158015620016e657600080fd5b505af1158015620016fb573d6000803e3d6000fd5b5050505050565b6000546040805160e060020a63deac46590281523360048201529051600160a060020a039092169163deac465991602480820192602092909190829003018186803b1580156200175157600080fd5b505afa15801562001766573d6000803e3d6000fd5b505050506040513d60208110156200177d57600080fd5b5051620017bf5760405160e560020a62461bcd02815260040180806020018281038252602b815260200180620064ef602b913960400191505060405180910390fd5b604080517f8ab77ed5000000000000000000000000000000000000000000000000000000008152336004820181815260248301938452845160448401528451600160a060020a03871694638ab77ed594879392606490910190602085019080838360005b838110156200183d57818101518382015260200162001823565b50505050905090810190601f1680156200186b5780820380516001836020036101000a031916815260200191505b509350505050600060405180830381600087803b1580156200091257600080fd5b6000546040805160e060020a63deac46590281523360048201529051606092600160a060020a03169163deac4659916024808301926020929190829003018186803b158015620018db57600080fd5b505afa158015620018f0573d6000803e3d6000fd5b505050506040513d60208110156200190757600080fd5b5051620019495760405160e560020a62461bcd02815260040180806020018281038252602b815260200180620064ef602b913960400191505060405180910390fd5b81600160a060020a031663c94d0a486040518163ffffffff1660e060020a02815260040160006040518083038186803b1580156200198657600080fd5b505afa1580156200199b573d6000803e3d6000fd5b505050506040513d6000823e601f3d908101601f191682016040526020811015620019c557600080fd5b8101908080516040519392919084640100000000821115620019e657600080fd5b908301906020820185811115620019fc57600080fd5b825186602082028301116401000000008211171562001a1a57600080fd5b82525081516020918201928201910280838360005b8381101562001a4957818101518382015260200162001a2f565b505050509050016040525050509050919050565b600254600090600160a060020a0316331462001ab2576040805160e560020a62461bcd02815260206004820152600d6024820152600080516020620064cf833981519152604482015290519081900360640190fd5b600054604080517f6714b669000000000000000000000000000000000000000000000000000000008152600481018590529051600160a060020a0390921691636714b66991602480820192602092909190829003018186803b15801562001b1857600080fd5b505afa15801562001b2d573d6000803e3d6000fd5b505050506040513d602081101562001b4457600080fd5b505192915050565b600080546040805160e060020a63deac46590281523360048201529051600160a060020a039092169163deac465991602480820192602092909190829003018186803b15801562001b9c57600080fd5b505afa15801562001bb1573d6000803e3d6000fd5b505050506040513d602081101562001bc857600080fd5b505162001c0a5760405160e560020a62461bcd02815260040180806020018281038252602b815260200180620064ef602b913960400191505060405180910390fd5b600154604080517f16c19739000000000000000000000000000000000000000000000000000000008152600160a060020a038581166004830152915191909216916316c19739916024808301926020929190829003018186803b15801562001b1857600080fd5b600080546040805160e060020a63deac46590281523360048201529051600160a060020a039092169163deac465991602480820192602092909190829003018186803b15801562001cc157600080fd5b505afa15801562001cd6573d6000803e3d6000fd5b505050506040513d602081101562001ced57600080fd5b505162001d2f5760405160e560020a62461bcd02815260040180806020018281038252602b815260200180620064ef602b913960400191505060405180910390fd5b81600160a060020a0316637749cf236040518163ffffffff1660e060020a02815260040160206040518083038186803b15801562001b1857600080fd5b6000546040805160e060020a63deac46590281523360048201529051606092600160a060020a03169163deac4659916024808301926020929190829003018186803b15801562001dbb57600080fd5b505afa15801562001dd0573d6000803e3d6000fd5b505050506040513d602081101562001de757600080fd5b505162001e295760405160e560020a62461bcd02815260040180806020018281038252602b815260200180620064ef602b913960400191505060405180910390fd5b60018054604080517f436df056000000000000000000000000000000000000000000000000000000008152336004820152602481019390935251600160a060020a039091169163436df056916044808301926000929190829003018186803b15801562000d5757600080fd5b600080546040805160e060020a63deac46590281523360048201529051600160a060020a039092169163deac465991602480820192602092909190829003018186803b15801562001ee557600080fd5b505afa15801562001efa573d6000803e3d6000fd5b505050506040513d602081101562001f1157600080fd5b5051905090565b600254600090600160a060020a0316331462001f6d576040805160e560020a62461bcd02815260206004820152600d6024820152600080516020620064cf833981519152604482015290519081900360640190fd5b6000809054906101000a9004600160a060020a0316600160a060020a0316633ec768576040518163ffffffff1660e060020a02815260040160206040518083038186803b15801562001ee557600080fd5b600254600090600160a060020a0316331462002013576040805160e560020a62461bcd02815260206004820152600d6024820152600080516020620064cf833981519152604482015290519081900360640190fd5b600154604080517f6714b669000000000000000000000000000000000000000000000000000000008152600481018590529051600160a060020a0390921691636714b66991602480820192602092909190829003018186803b15801562001b1857600080fd5b6000546040805160e060020a63deac46590281523360048201529051600160a060020a039092169163deac465991602480820192602092909190829003018186803b158015620020c857600080fd5b505afa158015620020dd573d6000803e3d6000fd5b505050506040513d6020811015620020f457600080fd5b5051620021365760405160e560020a62461bcd02815260040180806020018281038252602b815260200180620064ef602b913960400191505060405180910390fd5b600154604080517fe5b40eaf000000000000000000000000000000000000000000000000000000008152600160a060020a0384811660048301523360248301529151919092169163e5b40eaf91604480830192600092919082900301818387803b158015620016e657600080fd5b600254606090600160a060020a03163314620021f9576040805160e560020a62461bcd02815260206004820152600d6024820152600080516020620064cf833981519152604482015290519081900360640190fd5b600160009054906101000a9004600160a060020a0316600160a060020a03166311ef241b6040518163ffffffff1660e060020a02815260040160006040518083038186803b15801562000d5757600080fd5b6000546040805160e060020a63deac46590281523360048201529051600160a060020a039092169163deac465991602480820192602092909190829003018186803b1580156200229a57600080fd5b505afa158015620022af573d6000803e3d6000fd5b505050506040513d6020811015620022c657600080fd5b5051620023085760405160e560020a62461bcd02815260040180806020018281038252602b815260200180620064ef602b913960400191505060405180910390fd5b604080517f8d258212000000000000000000000000000000000000000000000000000000008152336004820152602481018390529051600160a060020a03841691638d25821291604480830192600092919082900301818387803b1580156200091257600080fd5b600254600090600160a060020a03163314620023c5576040805160e560020a62461bcd02815260206004820152600d6024820152600080516020620064cf833981519152604482015290519081900360640190fd5b600160009054906101000a9004600160a060020a0316600160a060020a0316633ec768576040518163ffffffff1660e060020a02815260040160206040518083038186803b15801562001ee557600080fd5b612b83806200244283390190565b6107618062004fc583390190565b610da980620057268339019056fe60806040523480156200001157600080fd5b5060405162002b8338038062002b838339810160408190526200003491620002df565b60008054600160a060020a0319908116301790915560028054600160a060020a038816908316179055600180549091163317905583516200007d90600490602087019062000185565b5082516200009390600690602086019062000185565b504260075560088290556009819055600a829055604051620000b5906200020a565b604051809103906000f080158015620000d2573d6000803e3d6000fd5b5060038054600160a060020a031916600160a060020a0392909216919091179055600954600854106200013c576040517f08c379a00000000000000000000000000000000000000000000000000000000081526004016200013390620003d5565b60405180910390fd5b42600854116200017a576040517f08c379a0000000000000000000000000000000000000000000000000000000008152600401620001339062000378565b505050505062000432565b828054600181600116156101000203166002900490600052602060002090601f016020900481019282601f10620001c857805160ff1916838001178555620001f8565b82800160010185558215620001f8579182015b82811115620001f8578251825591602001919060010190620001db565b506200020692915062000218565b5090565b610761806200242283390190565b6200023591905b808211156200020657600081556001016200021f565b90565b600082601f83011262000249578081fd5b81516001604060020a038082111562000260578283fd5b6040516020601f8401601f191682018101838111838210171562000282578586fd5b806040525081945083825286818588010111156200029f57600080fd5b600092505b83831015620002c35785830181015182840182015291820191620002a4565b83831115620002d55760008185840101525b5050505092915050565b600080600080600060a08688031215620002f7578081fd5b8551600160a060020a03811681146200030e578182fd5b60208701519095506001604060020a03808211156200032b578283fd5b6200033989838a0162000238565b955060408801519150808211156200034f578283fd5b506200035e8882890162000238565b606088015160809098015196999598509695949350505050565b60208082526026908201527f6576656e742073746172742074696d65206d75737420626520696e207468652060408201527f6675747572650000000000000000000000000000000000000000000000000000606082015260800190565b60208082526028908201527f6576656e742073746172742074696d65206d757374206265206265666f72652060408201527f656e642074696d65000000000000000000000000000000000000000000000000606082015260800190565b611fe080620004426000396000f3fe608060405234801561001057600080fd5b506004361061022e576000357c0100000000000000000000000000000000000000000000000000000000900480638d25821211610142578063c94d0a48116100ca578063d9561a9111610099578063d9561a9114610440578063de7fe3e714610453578063ded7374c14610477578063e23a845a1461048a578063e5b0c5a7146104925761022e565b8063c94d0a4814610408578063ccb98ffc1461041d578063ce2ce3fc14610430578063d5009584146104385761022e565b8063a2221ffc11610111578063a2221ffc146103bf578063a650f684146103c7578063b22c36d5146103da578063b91038c7146103e2578063c0cc365d146103f55761022e565b80638d2582121461037357806390c3f38f14610386578063929066f514610399578063932354c1146103ac5761022e565b80635d1ca631116101c5578063843bd64111610194578063843bd6411461032a57806384da92a71461033d57806384de1ea5146103505780638ab77ed5146103585780638b915c251461036b5761022e565b80635d1ca631146102f2578063668a2001146102fa5780637749cf231461030d57806383707647146103155761022e565b806338a730611161020157806338a73061146102995780633e0a322d146102b95780635a9b0b89146102ce5780635aa68ac0146102ea5761022e565b806305111c1e1461023357806317d7de7c1461025c5780631a092541146102715780632e141e9014610279575b600080fd5b610246610241366004611a5f565b6104a5565b6040516102539190611af1565b60405180910390f35b61026461050e565b6040516102539190611c64565b6102646105a5565b61028c610287366004611a5f565b610606565b6040516102539190611c59565b6102ac6102a7366004611a5f565b610660565b6040516102539190611f24565b6102cc6102c7366004611a5f565b6106b6565b005b6102d661070c565b604051610253989796959493929190611b05565b610246610883565b610246610892565b6102cc6103083660046118bd565b6108a1565b6102ac61094c565b61031d610983565b6040516102539190611bbc565b61028c610338366004611a5f565b610add565b6102cc61034b366004611a24565b610b1e565b610246610b62565b6102cc6103663660046118e0565b610b71565b6102ac610d02565b6102cc61038136600461192e565b610d08565b6102cc610394366004611a24565b610f3b565b61028c6103a73660046118bd565b610f7b565b6102cc6103ba366004611a24565b611015565b6102ac611055565b6102cc6103d536600461192e565b61105b565b6102ac611133565b6102cc6103f03660046118bd565b611139565b6102cc610403366004611a5f565b611204565b61041061125b565b6040516102539190611b6f565b6102cc61042b366004611a5f565b6112fa565b610264611350565b6102466113b1565b61026461044e366004611a5f565b6113f1565b610466610461366004611a5f565b6114d2565b604051610253959493929190611f2d565b61028c610485366004611a77565b611687565b6102ac6116db565b61028c6104a03660046118bd565b6116e1565b600154600090600160a060020a031633146104de5760405160e560020a62461bcd0281526004016104d590611c77565b60405180910390fd5b600b82815481106104eb57fe5b6000918252602090912060059091020160010154600160a060020a031692915050565b60048054604080516020601f600260001961010060018816150201909516949094049384018190048102820181019092528281526060939092909183018282801561059a5780601f1061056f5761010080835404028352916020019161059a565b820191906000526020600020905b81548152906001019060200180831161057d57829003601f168201915b505050505090505b90565b60058054604080516020601f600260001961010060018816150201909516949094049384018190048102820181019092528281526060939092909183018282801561059a5780601f1061056f5761010080835404028352916020019161059a565b600154600090600160a060020a031633146106365760405160e560020a62461bcd0281526004016104d590611c77565b600b828154811061064357fe5b600091825260209091206005909102016004015460ff1692915050565b600154600090600160a060020a031633146106905760405160e560020a62461bcd0281526004016104d590611c77565b600b828154811061069d57fe5b9060005260206000209060050201600301549050919050565b600154600160a060020a031633146106e35760405160e560020a62461bcd0281526004016104d590611c77565b60095481106107075760405160e560020a62461bcd0281526004016104d590611ec7565b600855565b6000805460028054600854600954600754600354600480546040805160206101006001851615026000190190931699909904601f810183900483028a0183019091528089528a996060998a998c998a998a998a99600160a060020a039687169994871698949760069794969395929490911692918891908301828280156107d45780601f106107a9576101008083540402835291602001916107d4565b820191906000526020600020905b8154815290600101906020018083116107b757829003601f168201915b5050885460408051602060026001851615610100026000190190941693909304601f8101849004840282018401909252818152959b508a9450925084019050828280156108625780601f1061083757610100808354040283529160200191610862565b820191906000526020600020905b81548152906001019060200180831161084557829003601f168201915b50505050509450975097509750975097509750975097509091929394959697565b600354600160a060020a031690565b600054600160a060020a031690565b600154600160a060020a031633146108ce5760405160e560020a62461bcd0281526004016104d590611c77565b6003546040517ff0335205000000000000000000000000000000000000000000000000000000008152600160a060020a039091169063f033520590610917908490600401611af1565b600060405180830381600087803b15801561093157600080fd5b505af1158015610945573d6000803e3d6000fd5b5050505050565b600154600090600160a060020a0316331461097c5760405160e560020a62461bcd0281526004016104d590611c77565b50600b5490565b600154606090600160a060020a031633146109b35760405160e560020a62461bcd0281526004016104d590611c77565b600b805480602002602001604051908101604052809291908181526020016000905b82821015610ad45760008481526020908190206040805160a0810182526005860290920180548352600180820154600160a060020a0316848601526002808301805485516101009482161594909402600019011691909104601f8101879004870283018701855280835294959294938601939192909190830182828015610a9d5780601f10610a7257610100808354040283529160200191610a9d565b820191906000526020600020905b815481529060010190602001808311610a8057829003601f168201915b5050509183525050600382015460208083019190915260049092015460ff16151560409091015290825260019290920191016109d5565b50505050905090565b600154600090600160a060020a03163314610b0d5760405160e560020a62461bcd0281526004016104d590611c77565b610b1561094c565b82105b92915050565b600154600160a060020a03163314610b4b5760405160e560020a62461bcd0281526004016104d590611c77565b8051610b5e9060049060208401906116f5565b5050565b600254600160a060020a031690565b600154600160a060020a03163314610b9e5760405160e560020a62461bcd0281526004016104d590611c77565b600254600160a060020a0383811691161480610bbe5750610bbe82610f7b565b610bdd5760405160e560020a62461bcd0281526004016104d590611d9f565b6000610be761094c565b6040805160a081018252828152600160a060020a038681166020808401918252938301878152600a546060850152600060808501819052600b8054600181018255915284517f0175b7a638427703f0dbe7bb9bbf987a2551717b34e79f33b5b1008d1fa01db9600590920291820190815592517f0175b7a638427703f0dbe7bb9bbf987a2551717b34e79f33b5b1008d1fa01dba8201805473ffffffffffffffffffffffffffffffffffffffff1916919095161790935551805195965092949093610cd8937f0175b7a638427703f0dbe7bb9bbf987a2551717b34e79f33b5b1008d1fa01dbb9093019201906116f5565b50606082015160038201556080909101516004909101805460ff1916911515919091179055505050565b60085490565b600154600160a060020a03163314610d355760405160e560020a62461bcd0281526004016104d590611c77565b600254600160a060020a0383811691161480610d565750610d568183611687565b610d755760405160e560020a62461bcd0281526004016104d590611d0b565b610d7e81610add565b610d9d5760405160e560020a62461bcd0281526004016104d590611e33565b600b8181548110610daa57fe5b60009182526020822060059091020181815560018101805473ffffffffffffffffffffffffffffffffffffffff1916905590610de96002830182611773565b5060006003820155600401805460ff19169055805b600b5460001901811015610ed157600b8160010181548110610e1c57fe5b9060005260206000209060050201600b8281548110610e3757fe5b600091825260209091208254600590920201908155600180830154818301805473ffffffffffffffffffffffffffffffffffffffff1916600160a060020a0390921691909117905560028084018054610ea39383860193908216156101000260001901909116046117ba565b50600382810154908201556004918201549101805460ff191660ff9092161515919091179055600101610dfe565b50600b805480610edd57fe5b60008281526020812060056000199093019283020181815560018101805473ffffffffffffffffffffffffffffffffffffffff1916905590610f226002830182611773565b5060006003820155600401805460ff1916905590555050565b600154600160a060020a03163314610f685760405160e560020a62461bcd0281526004016104d590611c77565b8051610b5e9060059060208401906116f5565b6003546040517fdeac4659000000000000000000000000000000000000000000000000000000008152600091600160a060020a03169063deac465990610fc5908590600401611af1565b60206040518083038186803b158015610fdd57600080fd5b505afa158015610ff1573d6000803e3d6000fd5b505050506040513d601f19601f82011682018060405250810190610b189190611a04565b600154600160a060020a031633146110425760405160e560020a62461bcd0281526004016104d590611c77565b8051610b5e9060069060208401906116f5565b60095490565b600154600160a060020a031633146110885760405160e560020a62461bcd0281526004016104d590611c77565b600254600160a060020a03838116911614806110a957506110a98183611687565b6110c85760405160e560020a62461bcd0281526004016104d590611d0b565b6110d181610add565b6110f05760405160e560020a62461bcd0281526004016104d590611e33565b60006110fb82610606565b90508015600b838154811061110c57fe5b60009182526020909120600590910201600401805460ff1916911515919091179055505050565b60075490565b600154600160a060020a031633146111665760405160e560020a62461bcd0281526004016104d590611c77565b600254600160a060020a03828116911614156111975760405160e560020a62461bcd0281526004016104d590611d68565b42600a54116111bb5760405160e560020a62461bcd0281526004016104d590611cd4565b6003546040517f243d9220000000000000000000000000000000000000000000000000000000008152600160a060020a039091169063243d922090610917908490600401611af1565b600154600160a060020a031633146112315760405160e560020a62461bcd0281526004016104d590611c77565b6008548111156112565760405160e560020a62461bcd0281526004016104d590611e6a565b600a55565b600354604080517fd504ea1d0000000000000000000000000000000000000000000000000000000081529051606092600160a060020a03169163d504ea1d916004808301926000929190829003018186803b1580156112b957600080fd5b505afa1580156112cd573d6000803e3d6000fd5b505050506040513d6000823e601f3d908101601f191682016040526112f59190810190611959565b905090565b600154600160a060020a031633146113275760405160e560020a62461bcd0281526004016104d590611c77565b600854811161134b5760405160e560020a62461bcd0281526004016104d590611dd6565b600955565b60068054604080516020601f600260001961010060018816150201909516949094049384018190048102820181019092528281526060939092909183018282801561059a5780601f1061056f5761010080835404028352916020019161059a565b600154600090600160a060020a031633146113e15760405160e560020a62461bcd0281526004016104d590611c77565b50600154600160a060020a031690565b600154606090600160a060020a031633146114215760405160e560020a62461bcd0281526004016104d590611c77565b600b828154811061142e57fe5b600091825260209182902060026005909202018101805460408051601f6000196101006001861615020190931694909404918201859004850284018501905280835291929091908301828280156114c65780601f1061149b576101008083540402835291602001916114c6565b820191906000526020600020905b8154815290600101906020018083116114a957829003601f168201915b50505050509050919050565b600154600090819060609082908190600160a060020a0316331461150b5760405160e560020a62461bcd0281526004016104d590611c77565b61151486610add565b6115335760405160e560020a62461bcd0281526004016104d590611e33565b600b868154811061154057fe5b906000526020600020906005020160000154600b878154811061155f57fe5b906000526020600020906005020160010160009054906101000a9004600160a060020a0316600b888154811061159157fe5b9060005260206000209060050201600201600b89815481106115af57fe5b906000526020600020906005020160030154600b8a815481106115ce57fe5b600091825260209182902060046005909202010154835460408051601f6002600019600186161561010002019094169390930492830185900485028101850190915281815260ff9092169285919083018282801561166d5780601f106116425761010080835404028352916020019161166d565b820191906000526020600020905b81548152906001019060200180831161165057829003601f168201915b505050505092509450945094509450945091939590929450565b600154600090600160a060020a031633146116b75760405160e560020a62461bcd0281526004016104d590611c77565b81600160a060020a03166116ca846104a5565b600160a060020a0316149392505050565b600a5490565b600254600160a060020a0390811691161490565b828054600181600116156101000203166002900490600052602060002090601f016020900481019282601f1061173657805160ff1916838001178555611763565b82800160010185558215611763579182015b82811115611763578251825591602001919060010190611748565b5061176f92915061182f565b5090565b50805460018160011615610100020316600290046000825580601f1061179957506117b7565b601f0160209004906000526020600020908101906117b7919061182f565b50565b828054600181600116156101000203166002900490600052602060002090601f016020900481019282601f106117f35780548555611763565b8280016001018555821561176357600052602060002091601f016020900482015b82811115611763578254825591600101919060010190611814565b6105a291905b8082111561176f5760008155600101611835565b8051610b1881611f95565b600082601f830112611864578081fd5b813567ffffffffffffffff81111561187a578182fd5b61188d601f8201601f1916602001611f6e565b91508082528360208285010111156118a457600080fd5b8060208401602084013760009082016020015292915050565b6000602082840312156118ce578081fd5b81356118d981611f95565b9392505050565b600080604083850312156118f2578081fd5b82356118fd81611f95565b9150602083013567ffffffffffffffff811115611918578182fd5b61192485828601611854565b9150509250929050565b60008060408385031215611940578182fd5b823561194b81611f95565b946020939093013593505050565b6000602080838503121561196b578182fd5b825167ffffffffffffffff80821115611982578384fd5b81850186601f820112611993578485fd5b80519250818311156119a3578485fd5b83830291506119b3848301611f6e565b8381528481019082860184840187018a10156119cd578788fd5b8794505b858510156119f7576119e38a82611849565b8352600194909401939186019186016119d1565b5098975050505050505050565b600060208284031215611a15578081fd5b815180151581146118d9578182fd5b600060208284031215611a35578081fd5b813567ffffffffffffffff811115611a4b578182fd5b611a5784828501611854565b949350505050565b600060208284031215611a70578081fd5b5035919050565b60008060408385031215611a89578182fd5b823591506020830135611a9b81611f95565b809150509250929050565b60008151808452815b81811015611acb57602081850181015186830182015201611aaf565b81811115611adc5782602083870101525b50601f01601f19169290920160200192915050565b600160a060020a0391909116815260200190565b6000610100600160a060020a03808c168452808b166020850152816040850152611b318285018b611aa6565b8481036060860152611b43818b611aa6565b9350508760808501528660a08501528560c085015280851660e085015250509998505050505050505050565b6020808252825182820181905260009190848201906040850190845b81811015611bb0578351600160a060020a031683529284019291840191600101611b8b565b50909695505050505050565b60208082528251828201819052600091906040908185019080840286018301878501865b83811015611c4b57603f19898403018552815160a081518552600160a060020a03898301511689860152878201518189870152611c1f82870182611aa6565b606084810151908801526080938401511515939096019290925250509386019390860190600101611be0565b509098975050505050505050565b901515815260200190565b6000602082526118d96020830184611aa6565b60208082526023908201527f416363657373206973206f6e6c7920616c6c6f77656420666f72206d616e616760408201527f65722e0000000000000000000000000000000000000000000000000000000000606082015260800190565b60208082526010908201527f6576656e74206973206578706972656400000000000000000000000000000000604082015260600190565b60208082526027908201527f55736572206973206e6f7420616c6c6f77656420746f2075706461746520697460408201527f656d20696e666f00000000000000000000000000000000000000000000000000606082015260800190565b6020808252601d908201527f796f752061726520616c72656164792074686520696e69746961746f72000000604082015260600190565b60208082526017908201527f55736572206973206e6f74207061727469636970616e74000000000000000000604082015260600190565b60208082526027908201527f6576656e7420656e642074696d65206d7573742062652061667465722073746160408201527f72742074696d6500000000000000000000000000000000000000000000000000606082015260800190565b60208082526013908201527f4974656d20646f6573206e6f7420657869737400000000000000000000000000604082015260600190565b6020808252602f908201527f6576656e742065787069726174696f6e2074696d65206d75737420626520626560408201527f666f72652073746172742074696d650000000000000000000000000000000000606082015260800190565b60208082526028908201527f6576656e742073746172742074696d65206d757374206265206265666f72652060408201527f656e642074696d65000000000000000000000000000000000000000000000000606082015260800190565b90815260200190565b6000868252600160a060020a038616602083015260a06040830152611f5560a0830186611aa6565b6060830194909452509015156080909101529392505050565b60405181810167ffffffffffffffff81118282101715611f8d57600080fd5b604052919050565b600160a060020a03811681146117b757600080fdfea26469706673582212204c46d9e2946ff12a64d790dd167f1ed5063e167aa0dd89e70485a87c36afc29b64736f6c63430006070033608060405234801561001057600080fd5b506001805480820182556000919091527fb10e2d527612073b26eecdfd717e6a320cf44b4afac2b0732d9fcbe2b7fa0cf6018054600160a060020a03191690556107028061005f6000396000f3fe608060405234801561001057600080fd5b506004361061009a576000357c0100000000000000000000000000000000000000000000000000000000900480636714b669116100785780636714b66914610107578063d504ea1d14610140578063deac465914610198578063f0335205146101d25761009a565b806316c197391461009f578063243d9220146100d75780633ec76857146100ff575b600080fd5b6100c5600480360360208110156100b557600080fd5b5035600160a060020a03166101f8565b60408051918252519081900360200190f35b6100fd600480360360208110156100ed57600080fd5b5035600160a060020a0316610230565b005b6100c5610359565b6101246004803603602081101561011d57600080fd5b5035610363565b60408051600160a060020a039092168252519081900360200190f35b61014861043d565b60408051602080825283518183015283519192839290830191858101910280838360005b8381101561018457818101518382015260200161016c565b505050509050019250505060405180910390f35b6101be600480360360208110156101ae57600080fd5b5035600160a060020a03166104f9565b604080519115158252519081900360200190f35b6100fd600480360360208110156101e857600080fd5b5035600160a060020a0316610516565b6000600160a060020a0382166102105750600061022b565b50600160a060020a0381166000908152602081905260409020545b919050565b600160a060020a03811661028e576040805160e560020a62461bcd02815260206004820152600f60248201527f496e76616c696420616464726573730000000000000000000000000000000000604482015290519081900360640190fd5b610297816104f9565b156102ec576040805160e560020a62461bcd02815260206004820152601860248201527f4164647265737320616c726561647920696e2041727261790000000000000000604482015290519081900360640190fd5b60018054600160a060020a0390921660008181526020819052604081208490558383018355919091527fb10e2d527612073b26eecdfd717e6a320cf44b4afac2b0732d9fcbe2b7fa0cf6909101805473ffffffffffffffffffffffffffffffffffffffff19169091179055565b6001546000190190565b60008082116103bc576040805160e560020a62461bcd02815260206004820152601760248201527f7468697320696e646578206973206e6f742076616c6964000000000000000000604482015290519081900360640190fd5b6001548210610415576040805160e560020a62461bcd02815260206004820152600d60248201527f6f7574206f6620626f756e647300000000000000000000000000000000000000604482015290519081900360640190fd5b6001828154811061042257fe5b600091825260209091200154600160a060020a031692915050565b6001546060906000190167ffffffffffffffff8111801561045d57600080fd5b50604051908082528060200260200182016040528015610487578160200160208202803683370190505b50905060005b600154600019018110156104f557600181600101815481106104ab57fe5b9060005260206000200160009054906101000a9004600160a060020a03168282815181106104d557fe5b600160a060020a039092166020928302919091019091015260010161048d565b5090565b600160a060020a0316600090815260208190526040902054151590565b61051f816104f9565b610573576040805160e560020a62461bcd02815260206004820152601460248201527f41646472657373206e6f7420696e204172726179000000000000000000000000604482015290519081900360640190fd5b600061057e826101f8565b9050805b6001546000190181101561067457600080600183815481106105a057fe5b6000918252602080832090910154600160a060020a03168352820192909252604001812054600180549192918291908582019081106105db57fe5b6000918252602080832090910154600160a060020a031683528201929092526040019020556001805482820190811061061057fe5b60009182526020909120015460018054600160a060020a03909216918390811061063657fe5b6000918252602090912001805473ffffffffffffffffffffffffffffffffffffffff1916600160a060020a0392909216919091179055600101610582565b50600160a060020a038216600090815260208190526040812055600180548061069957fe5b6000828152602090208101600019908101805473ffffffffffffffffffffffffffffffffffffffff19169055019055505056fea2646970667358221220348135cc4d7b66ab2c03879f799af0e640760fbc79cf11c90a439923f7c4b7c564736f6c63430006070033608060405234801561001057600080fd5b506001805480820182556000919091527fb10e2d527612073b26eecdfd717e6a320cf44b4afac2b0732d9fcbe2b7fa0cf6018054600160a060020a03191690556107028061005f6000396000f3fe608060405234801561001057600080fd5b506004361061009a576000357c0100000000000000000000000000000000000000000000000000000000900480636714b669116100785780636714b66914610107578063d504ea1d14610140578063deac465914610198578063f0335205146101d25761009a565b806316c197391461009f578063243d9220146100d75780633ec76857146100ff575b600080fd5b6100c5600480360360208110156100b557600080fd5b5035600160a060020a03166101f8565b60408051918252519081900360200190f35b6100fd600480360360208110156100ed57600080fd5b5035600160a060020a0316610230565b005b6100c5610359565b6101246004803603602081101561011d57600080fd5b5035610363565b60408051600160a060020a039092168252519081900360200190f35b61014861043d565b60408051602080825283518183015283519192839290830191858101910280838360005b8381101561018457818101518382015260200161016c565b505050509050019250505060405180910390f35b6101be600480360360208110156101ae57600080fd5b5035600160a060020a03166104f9565b604080519115158252519081900360200190f35b6100fd600480360360208110156101e857600080fd5b5035600160a060020a0316610516565b6000600160a060020a0382166102105750600061022b565b50600160a060020a0381166000908152602081905260409020545b919050565b600160a060020a03811661028e576040805160e560020a62461bcd02815260206004820152600f60248201527f496e76616c696420616464726573730000000000000000000000000000000000604482015290519081900360640190fd5b610297816104f9565b156102ec576040805160e560020a62461bcd02815260206004820152601860248201527f4164647265737320616c726561647920696e2041727261790000000000000000604482015290519081900360640190fd5b60018054600160a060020a0390921660008181526020819052604081208490558383018355919091527fb10e2d527612073b26eecdfd717e6a320cf44b4afac2b0732d9fcbe2b7fa0cf6909101805473ffffffffffffffffffffffffffffffffffffffff19169091179055565b6001546000190190565b60008082116103bc576040805160e560020a62461bcd02815260206004820152601760248201527f7468697320696e646578206973206e6f742076616c6964000000000000000000604482015290519081900360640190fd5b6001548210610415576040805160e560020a62461bcd02815260206004820152600d60248201527f6f7574206f6620626f756e647300000000000000000000000000000000000000604482015290519081900360640190fd5b6001828154811061042257fe5b600091825260209091200154600160a060020a031692915050565b6001546060906000190167ffffffffffffffff8111801561045d57600080fd5b50604051908082528060200260200182016040528015610487578160200160208202803683370190505b50905060005b600154600019018110156104f557600181600101815481106104ab57fe5b9060005260206000200160009054906101000a9004600160a060020a03168282815181106104d557fe5b600160a060020a039092166020928302919091019091015260010161048d565b5090565b600160a060020a0316600090815260208190526040902054151590565b61051f816104f9565b610573576040805160e560020a62461bcd02815260206004820152601460248201527f41646472657373206e6f7420696e204172726179000000000000000000000000604482015290519081900360640190fd5b600061057e826101f8565b9050805b6001546000190181101561067457600080600183815481106105a057fe5b6000918252602080832090910154600160a060020a03168352820192909252604001812054600180549192918291908582019081106105db57fe5b6000918252602080832090910154600160a060020a031683528201929092526040019020556001805482820190811061061057fe5b60009182526020909120015460018054600160a060020a03909216918390811061063657fe5b6000918252602090912001805473ffffffffffffffffffffffffffffffffffffffff1916600160a060020a0392909216919091179055600101610582565b50600160a060020a038216600090815260208190526040812055600180548061069957fe5b6000828152602090208101600019908101805473ffffffffffffffffffffffffffffffffffffffff19169055019055505056fea2646970667358221220348135cc4d7b66ab2c03879f799af0e640760fbc79cf11c90a439923f7c4b7c564736f6c63430006070033608060405234801561001057600080fd5b50600060208190527fad3228b676f7d3cd4284a5443f17f1962b36e491b30a40b2405849e597ba5fb58190556002805460018101825591527f405787fa12a823e0f2b7631cc41b3ba8828b3321ca811111fa75cd3aa3bb5ace018054600160a060020a0319169055610d22806100876000396000f3fe608060405234801561001057600080fd5b50600436106100a5576000357c010000000000000000000000000000000000000000000000000000000090048063436df05611610078578063436df0561461016a5780636714b66914610198578063deac4659146101d1578063e5b40eaf1461020b576100a5565b806311ef241b146100aa57806316c1973914610102578063243d92201461013a5780633ec7685714610162575b600080fd5b6100b2610239565b60408051602080825283518183015283519192839290830191858101910280838360005b838110156100ee5781810151838201526020016100d6565b505050509050019250505060405180910390f35b6101286004803603602081101561011857600080fd5b5035600160a060020a03166102f5565b60408051918252519081900360200190f35b6101606004803603602081101561015057600080fd5b5035600160a060020a031661032d565b005b610128610521565b6100b26004803603604081101561018057600080fd5b50600160a060020a038135169060200135151561052b565b6101b5600480360360208110156101ae57600080fd5b50356107bb565b60408051600160a060020a039092168252519081900360200190f35b6101f7600480360360208110156101e757600080fd5b5035600160a060020a0316610895565b604080519115158252519081900360200190f35b6101606004803603604081101561022157600080fd5b50600160a060020a03813581169160200135166108b2565b6002546060906000190167ffffffffffffffff8111801561025957600080fd5b50604051908082528060200260200182016040528015610283578160200160208202803683370190505b50905060005b600254600019018110156102f157600281600101815481106102a757fe5b9060005260206000200160009054906101000a9004600160a060020a03168282815181106102d157fe5b600160a060020a0390921660209283029190910190910152600101610289565b5090565b6000600160a060020a03821661030d57506000610328565b50600160a060020a0381166000908152602081905260409020545b919050565b80600160a060020a03811661038c576040805160e560020a62461bcd02815260206004820152600d60248201527f496e76616c6964204576656e7400000000000000000000000000000000000000604482015290519081900360640190fd5b61039581610895565b156103ea576040805160e560020a62461bcd02815260206004820152601660248201527f4576656e7420616c726561647920696e20417272617900000000000000000000604482015290519081900360640190fd5b60028054600160a060020a038381166000908152602081815260408083208590556001850186559482527f405787fa12a823e0f2b7631cc41b3ba8828b3321ca811111fa75cd3aa3bb5ace909301805473ffffffffffffffffffffffffffffffffffffffff1916928716928317905583517f84de1ea50000000000000000000000000000000000000000000000000000000081529351909391926384de1ea59260048082019391829003018186803b1580156104a557600080fd5b505afa1580156104b9573d6000803e3d6000fd5b505050506040513d60208110156104cf57600080fd5b5051600160a060020a039081166000908152600160208181526040832080549283018155835290912001805473ffffffffffffffffffffffffffffffffffffffff191693909116929092179091555050565b6002546000190190565b6060816105a657600160a060020a0383166000908152600160209081526040918290208054835181840281018401909452808452909183018282801561059a57602002820191906000526020600020905b8154600160a060020a0316815260019091019060200180831161057c575b505050505090506107b5565b600060015b60025481101561066e57600281815481106105c257fe5b60009182526020918290200154604080517f929066f5000000000000000000000000000000000000000000000000000000008152600160a060020a0389811660048301529151919092169263929066f59260248082019391829003018186803b15801561062e57600080fd5b505afa158015610642573d6000803e3d6000fd5b505050506040513d602081101561065857600080fd5b505115610666576001909101905b6001016105ab565b508067ffffffffffffffff8111801561068657600080fd5b506040519080825280602002602001820160405280156106b0578160200160208202803683370190505b5091506000805b600254600019018110156107ac576000600282600101815481106106d757fe5b60009182526020918290200154604080517f929066f5000000000000000000000000000000000000000000000000000000008152600160a060020a038b811660048301529151919092169350839263929066f59260248082019391829003018186803b15801561074657600080fd5b505afa15801561075a573d6000803e3d6000fd5b505050506040513d602081101561077057600080fd5b5051156107a3578085848151811061078457fe5b600160a060020a03909216602092830291909101909101526001909201915b506001016106b7565b506107b5915050565b92915050565b6000808211610814576040805160e560020a62461bcd02815260206004820152601760248201527f7468697320696e646578206973206e6f742076616c6964000000000000000000604482015290519081900360640190fd5b600254821061086d576040805160e560020a62461bcd02815260206004820152600d60248201527f6f7574206f6620626f756e647300000000000000000000000000000000000000604482015290519081900360640190fd5b6002828154811061087a57fe5b600091825260209091200154600160a060020a031692915050565b600160a060020a0316600090815260208190526040902054151590565b600082600160a060020a03166384de1ea56040518163ffffffff167c010000000000000000000000000000000000000000000000000000000002815260040160206040518083038186803b15801561090957600080fd5b505afa15801561091d573d6000803e3d6000fd5b505050506040513d602081101561093357600080fd5b50519050600160a060020a038281169082161461099a576040805160e560020a62461bcd02815260206004820152601f60248201527f4f6e6c7920496e69746961746f722063616e2064656c657465204576656e7400604482015290519081900360640190fd5b826109a481610895565b6109f8576040805160e560020a62461bcd02815260206004820152601260248201527f4576656e74206e6f7420696e2041727261790000000000000000000000000000604482015290519081900360640190fd5b6000610a03826102f5565b9050805b60025460001901811015610afb5760008060028381548110610a2557fe5b6000918252602080832090910154600160a060020a031683528201929092526040018120546002805491929182919060018601908110610a6157fe5b6000918252602080832090910154600160a060020a031683528201929092526040019020556002805460018301908110610a9757fe5b60009182526020909120015460028054600160a060020a039092169183908110610abd57fe5b6000918252602090912001805473ffffffffffffffffffffffffffffffffffffffff1916600160a060020a0392909216919091179055600101610a07565b50600160a060020a0382166000908152602081905260408120556002805480610b2057fe5b6000828152602081208201600019908101805473ffffffffffffffffffffffffffffffffffffffff19169055909101909155805b600160a060020a038516600090815260016020526040902054811015610bc457600160a060020a03858116600090815260016020526040902080549186169183908110610b9d57fe5b600091825260209091200154600160a060020a03161415610bbc578091505b600101610b54565b50805b600160a060020a03851660009081526001602052604090205460001901811015610c93576001600086600160a060020a0316600160a060020a031681526020019081526020016000208160010181548110610c1e57fe5b6000918252602080832090910154600160a060020a03888116845260019092526040909220805491909216919083908110610c5557fe5b6000918252602090912001805473ffffffffffffffffffffffffffffffffffffffff1916600160a060020a0392909216919091179055600101610bc7565b50600160a060020a0384166000908152600160205260409020805480610cb557fe5b6000828152602090208101600019908101805473ffffffffffffffffffffffffffffffffffffffff1916905501905550505050505056fea264697066735822122001a2134f34ddf7ae7c742c0264148a5b3789525f5b172e399afb372f768df05164736f6c634300060700334163636573732064656e69656400000000000000000000000000000000000000416363657373206973206f6e6c7920616c6c6f77656420666f722072656769737465726564207573657273a2646970667358221220e4fb7ed14f4e570a29f3d2773c4f6dafd0068b35847bd9a7780f3e0274b063f864736f6c63430006070033",
  "immutableReferences": {},
  "source": "pragma solidity ^0.6.7;\r\n\r\n// import storage \r\nimport \"../contracts/Storage/Set.sol\" as SetStorage;\r\nimport \"../contracts/Storage/EventSet.sol\" as EventStorage;\r\n\r\n// import event contract\r\nimport \"../contracts/Event.sol\" as EventContract;\r\n\r\n// EVENTMANAGER \r\n// Governance Contract\r\n// This contract manages \r\n// - User Account Creation \r\n// - Event Creation and Management by the User itself \r\ncontract EventManager {\r\n    \r\n    // VARIABLES  \r\n    SetStorage.Set                  private user_storage;               // user address storage \r\n    EventStorage.EventSet           private event_storage;              // event storage\r\n    \r\n    // address                 payable private admin = 0xad67a760e4Cb77e19F1B7B79d6B4901B5360DEF1;     // admin address (rinkeby)\r\n    address                 payable private admin = 0x367E7e251F63eeccD9Af88121A2C7D9F3cD5168c; // new admin address (ganache)\r\n\r\n    // ADMIN ACCESS \r\n    // only admin can see or change sensible data\r\n    modifier onlyAdmin {\r\n        require(msg.sender == admin, \"Access denied\");\r\n        _;\r\n    }\r\n    \r\n    // CONSTRUCTOR \r\n    // this is only called once with the final version\r\n    constructor() public onlyAdmin\r\n    { }\r\n    \r\n    \r\n    // INIT STORAGE \r\n    // this function must be called immediately after Constructor and helps to save gas costs \r\n    function init_storage() public onlyAdmin \r\n    {\r\n        // create users and events sets where the addresses are stored \r\n        user_storage            = new SetStorage.Set();\r\n        \r\n        // create event storage set \r\n        event_storage           = new EventStorage.EventSet();\r\n    }\r\n    \r\n    /*\r\n    // EXPORT STORAGE \r\n    // for future upgrades \r\n    function export_storage() public view onlyAdmin returns (address user_storage_address, address event_storage_address)\r\n    {\r\n        return (address(user_storage), address(event_storage));\r\n    }\r\n    */\r\n    \r\n    // USER MANAGEMENT \r\n    \r\n    // user authentication\r\n    // only a user has access to his account, events, etc \r\n    modifier onlyUser {\r\n        require(user_storage.inArray(msg.sender), \"Access is only allowed for registered users\");\r\n        _;\r\n    }\r\n    \r\n    // user login status  \r\n    // access: everybody - every user has to log in\r\n    function login() public view returns(bool is_user)\r\n    {\r\n        // return login status \r\n        return user_storage.inArray(msg.sender);\r\n    }\r\n    \r\n    // user registration \r\n    // access: everybody can register\r\n    function register() public \r\n    returns (uint user_id)\r\n    {\r\n        // user address \r\n        address payable user_address = msg.sender;\r\n        \r\n        // check if user is already registered \r\n        require(!user_storage.inArray(user_address), \"User already registered\");\r\n        \r\n        // register new user \r\n        user_storage.addToArray(user_address);\r\n        \r\n        // return user id \r\n        return user_storage.getPosition(user_address);\r\n    }\r\n    \r\n    // get user count \r\n    // access: admin only\r\n    function getUserCount() public view onlyAdmin returns(uint256 user_count)\r\n    {\r\n        return user_storage.getElementCount();\r\n    }\r\n    \r\n    // get user address by id \r\n    // access: admin only\r\n    function getUserById(uint256 id) public view onlyAdmin returns(address payable user_address) \r\n    {\r\n        return payable(user_storage.getByPosition(id));\r\n    }\r\n    \r\n    \r\n    // EVENT MANAGEMENT\r\n    \r\n    // event creation \r\n    // access: user only \r\n    function createUserEvent( \r\n        string memory event_name, \r\n        string memory event_location, \r\n        uint256 event_start_time, \r\n        uint256 event_end_time    \r\n    ) public onlyUser returns (address new_event_address)\r\n    {\r\n        // new event \r\n        EventContract.Event new_event = new EventContract.Event(msg.sender, event_name, event_location, event_start_time, event_end_time);\r\n        \r\n        // add event to event storage\r\n        event_storage.addToArray(new_event);\r\n        \r\n        // add event address to event address storage \r\n        // event_address_storage.addToArray(address(new_event));\r\n        \r\n        // return event address \r\n        return address(new_event);\r\n    }\r\n    \r\n    \r\n    // get event count\r\n    // access: admin only \r\n    function getEventCount() public view onlyAdmin returns(uint256 event_count) \r\n    {\r\n        return event_storage.getElementCount();\r\n    }\r\n    \r\n    // get event by id \r\n    // access: admin only \r\n    function getEventById(uint event_id) public view onlyAdmin returns(EventContract.Event event_element)\r\n    {\r\n        return event_storage.getByPosition(event_id);\r\n    }\r\n    \r\n    // get event position \r\n    // access: user only \r\n    function getEventPosition(address event_address) public view onlyUser returns(uint event_position)\r\n    {\r\n        return event_storage.getPosition(event_address);\r\n    }\r\n    \r\n    // get event info \r\n    // access: user only\r\n    function getEventInfo(EventContract.Event event_address) public view onlyUser\r\n    returns(\r\n        address         event_id, \r\n        address         event_initiator,\r\n        string memory   event_name,\r\n        string memory   event_location,\r\n        uint256         event_start_time,\r\n        uint256         event_end_time,\r\n        uint256         event_created_time,\r\n        SetStorage.Set  event_participants\r\n    ) {\r\n        // return event info \r\n        return event_address.getInfo();\r\n    }\r\n    \r\n    // get all events \r\n    // access: admin only \r\n    function getAllEvents() public view onlyAdmin returns(EventContract.Event [] memory all_events)\r\n    {\r\n        // return event array \r\n        return event_storage.getEventArray();\r\n    }\r\n\r\n    // get user events\r\n    // access: user only \r\n    function getUserEvents() public view onlyUser returns(address [] memory user_events) \r\n    {\r\n        // return user event array \r\n        return event_storage.getUserEventArray(msg.sender, false);\r\n    }\r\n    \r\n    // get events where user participates \r\n    // access: user only \r\n    function getUserParticipantEvents() public view onlyUser returns(address [] memory user_participant_events) \r\n    {\r\n        // return user participant event array \r\n        return event_storage.getUserEventArray(msg.sender, true);\r\n    }\r\n    \r\n    // participate at an event \r\n    // access: user only \r\n    function participateEventById(EventContract.Event event_address) public onlyUser \r\n    {\r\n        // participate at an event \r\n        event_address.participate(msg.sender);\r\n    }\r\n    \r\n    // get event participants \r\n    // access: user only \r\n    function getEventParticipants(EventContract.Event event_address) public view onlyUser returns(address [] memory participants_array)\r\n    {\r\n        return event_address.getParticipantsArray();\r\n    }\r\n    \r\n    \r\n    // propose new event item \r\n    // access: user only \r\n    function createUserEventItem(EventContract.Event event_address, string memory event_item_name) public onlyUser \r\n    {\r\n        // create a new item \r\n        event_address.proposeItemToBringWith(msg.sender, event_item_name); \r\n    }\r\n    \r\n    // get event item info \r\n    // access: user only \r\n    function getEventItemInfo(EventContract.Event event_address, uint event_item_id) public view onlyUser \r\n    returns (\r\n        uint256                 item_id, \r\n        address     payable     item_holder,\r\n        string      memory      item_name, \r\n        uint256                 item_time_expiration,\r\n        bool                    item_checked\r\n    )\r\n    {\r\n        return event_address.getItemInfo(event_item_id);\r\n    }\r\n    \r\n    // get event item count \r\n    // access: user only \r\n    function getEventItemCount(EventContract.Event event_address) public view onlyUser \r\n    returns (uint item_count) \r\n    {\r\n        return event_address.getItemCount();\r\n    }\r\n    \r\n    // update item state \r\n    // access: user only \r\n    function updateEventItemState(EventContract.Event event_address, uint item_id) public onlyUser \r\n    {\r\n        event_address.updatePartyItemCheck(msg.sender, item_id);\r\n    }\r\n    \r\n    // remove event item \r\n    // access: user only \r\n    function removeEventItem(EventContract.Event event_address, uint event_item_id) public onlyUser\r\n    {\r\n        event_address.deletePartyItem(msg.sender, event_item_id);\r\n    }\r\n    \r\n    // remove event \r\n    // access: user only \r\n    function removeEvent(EventContract.Event event_address) public onlyUser \r\n    {\r\n        event_storage.removeFromArray(event_address, msg.sender);    \r\n    }\r\n    \r\n}",
  "sourcePath": "C:/Users/maxr2011/OneDrive/FH/FWPM Blockchain und Smart Contracts/solidity/src/eventManagerTruffle/contracts/EventManager.sol",
  "compiler": {
    "name": "solc",
    "version": "0.6.7+commit.b8d736ae.Emscripten.clang"
  },
  "schemaVersion": "3.2.2",
  "updatedAt": "2020-07-21T23:50:15.887Z",
  "networkType": "ethereum",
  "devdoc": {
    "methods": {}
  },
  "userdoc": {
    "methods": {}
  }
}