{
  "contractName": "EventManager",
  "abi": [
    {
      "inputs": [
        {
          "internalType": "address",
          "name": "set",
          "type": "address"
        },
        {
          "internalType": "address",
          "name": "eventSet",
          "type": "address"
        }
      ],
      "stateMutability": "nonpayable",
      "type": "constructor"
    },
    {
      "inputs": [],
      "name": "export_storage",
      "outputs": [
        {
          "internalType": "address",
          "name": "user_storage_address",
          "type": "address"
        },
        {
          "internalType": "address",
          "name": "event_storage_address",
          "type": "address"
        }
      ],
      "stateMutability": "view",
      "type": "function"
    },
    {
      "inputs": [],
      "name": "login",
      "outputs": [
        {
          "internalType": "bool",
          "name": "is_user",
          "type": "bool"
        }
      ],
      "stateMutability": "view",
      "type": "function"
    },
    {
      "inputs": [],
      "name": "register",
      "outputs": [
        {
          "internalType": "uint256",
          "name": "user_id",
          "type": "uint256"
        }
      ],
      "stateMutability": "nonpayable",
      "type": "function"
    },
    {
      "inputs": [],
      "name": "getUserCount",
      "outputs": [
        {
          "internalType": "uint256",
          "name": "user_count",
          "type": "uint256"
        }
      ],
      "stateMutability": "view",
      "type": "function"
    },
    {
      "inputs": [
        {
          "internalType": "uint256",
          "name": "id",
          "type": "uint256"
        }
      ],
      "name": "getUserById",
      "outputs": [
        {
          "internalType": "address payable",
          "name": "user_address",
          "type": "address"
        }
      ],
      "stateMutability": "view",
      "type": "function"
    },
    {
      "inputs": [
        {
          "internalType": "string",
          "name": "event_name",
          "type": "string"
        },
        {
          "internalType": "string",
          "name": "event_location",
          "type": "string"
        },
        {
          "internalType": "uint256",
          "name": "event_start_time",
          "type": "uint256"
        },
        {
          "internalType": "uint256",
          "name": "event_end_time",
          "type": "uint256"
        }
      ],
      "name": "createUserEvent",
      "outputs": [
        {
          "internalType": "address",
          "name": "new_event_address",
          "type": "address"
        }
      ],
      "stateMutability": "nonpayable",
      "type": "function"
    },
    {
      "inputs": [],
      "name": "getEventCount",
      "outputs": [
        {
          "internalType": "uint256",
          "name": "event_count",
          "type": "uint256"
        }
      ],
      "stateMutability": "view",
      "type": "function"
    },
    {
      "inputs": [
        {
          "internalType": "uint256",
          "name": "event_id",
          "type": "uint256"
        }
      ],
      "name": "getEventById",
      "outputs": [
        {
          "internalType": "contract Event",
          "name": "event_element",
          "type": "address"
        }
      ],
      "stateMutability": "view",
      "type": "function"
    },
    {
      "inputs": [
        {
          "internalType": "address",
          "name": "event_address",
          "type": "address"
        }
      ],
      "name": "getEventPosition",
      "outputs": [
        {
          "internalType": "uint256",
          "name": "event_position",
          "type": "uint256"
        }
      ],
      "stateMutability": "view",
      "type": "function"
    },
    {
      "inputs": [
        {
          "internalType": "contract Event",
          "name": "event_address",
          "type": "address"
        }
      ],
      "name": "getEventInfo",
      "outputs": [
        {
          "internalType": "address",
          "name": "event_id",
          "type": "address"
        },
        {
          "internalType": "address",
          "name": "event_initiator",
          "type": "address"
        },
        {
          "internalType": "string",
          "name": "event_name",
          "type": "string"
        },
        {
          "internalType": "string",
          "name": "event_location",
          "type": "string"
        },
        {
          "internalType": "uint256",
          "name": "event_start_time",
          "type": "uint256"
        },
        {
          "internalType": "uint256",
          "name": "event_end_time",
          "type": "uint256"
        },
        {
          "internalType": "uint256",
          "name": "event_created_time",
          "type": "uint256"
        },
        {
          "internalType": "contract Set",
          "name": "event_participants",
          "type": "address"
        }
      ],
      "stateMutability": "view",
      "type": "function"
    },
    {
      "inputs": [],
      "name": "getAllEvents",
      "outputs": [
        {
          "internalType": "contract Event[]",
          "name": "all_events",
          "type": "address[]"
        }
      ],
      "stateMutability": "view",
      "type": "function"
    },
    {
      "inputs": [],
      "name": "getUserEvents",
      "outputs": [
        {
          "internalType": "address[]",
          "name": "user_events",
          "type": "address[]"
        }
      ],
      "stateMutability": "view",
      "type": "function"
    },
    {
      "inputs": [],
      "name": "getUserParticipantEvents",
      "outputs": [
        {
          "internalType": "address[]",
          "name": "user_participant_events",
          "type": "address[]"
        }
      ],
      "stateMutability": "view",
      "type": "function"
    },
    {
      "inputs": [
        {
          "internalType": "contract Event",
          "name": "event_address",
          "type": "address"
        }
      ],
      "name": "participateEventById",
      "outputs": [],
      "stateMutability": "nonpayable",
      "type": "function"
    },
    {
      "inputs": [
        {
          "internalType": "contract Event",
          "name": "event_address",
          "type": "address"
        }
      ],
      "name": "getEventParticipants",
      "outputs": [
        {
          "internalType": "address[]",
          "name": "participants_array",
          "type": "address[]"
        }
      ],
      "stateMutability": "view",
      "type": "function"
    },
    {
      "inputs": [
        {
          "internalType": "contract Event",
          "name": "event_address",
          "type": "address"
        },
        {
          "internalType": "address",
          "name": "participant",
          "type": "address"
        }
      ],
      "name": "removeParticipant",
      "outputs": [],
      "stateMutability": "nonpayable",
      "type": "function"
    },
    {
      "inputs": [
        {
          "internalType": "contract Event",
          "name": "event_address",
          "type": "address"
        },
        {
          "internalType": "string",
          "name": "event_item_name",
          "type": "string"
        }
      ],
      "name": "createUserEventItem",
      "outputs": [],
      "stateMutability": "nonpayable",
      "type": "function"
    },
    {
      "inputs": [
        {
          "internalType": "contract Event",
          "name": "event_address",
          "type": "address"
        },
        {
          "internalType": "uint256",
          "name": "event_item_id",
          "type": "uint256"
        }
      ],
      "name": "getEventItemInfo",
      "outputs": [
        {
          "internalType": "uint256",
          "name": "item_id",
          "type": "uint256"
        },
        {
          "internalType": "address payable",
          "name": "item_holder",
          "type": "address"
        },
        {
          "internalType": "string",
          "name": "item_name",
          "type": "string"
        },
        {
          "internalType": "uint256",
          "name": "item_time_expiration",
          "type": "uint256"
        },
        {
          "internalType": "bool",
          "name": "item_checked",
          "type": "bool"
        }
      ],
      "stateMutability": "view",
      "type": "function"
    },
    {
      "inputs": [
        {
          "internalType": "contract Event",
          "name": "event_address",
          "type": "address"
        }
      ],
      "name": "getEventItemCount",
      "outputs": [
        {
          "internalType": "uint256",
          "name": "item_count",
          "type": "uint256"
        }
      ],
      "stateMutability": "view",
      "type": "function"
    },
    {
      "inputs": [
        {
          "internalType": "contract Event",
          "name": "event_address",
          "type": "address"
        },
        {
          "internalType": "uint256",
          "name": "item_id",
          "type": "uint256"
        }
      ],
      "name": "updateEventItemState",
      "outputs": [],
      "stateMutability": "nonpayable",
      "type": "function"
    },
    {
      "inputs": [
        {
          "internalType": "contract Event",
          "name": "event_address",
          "type": "address"
        },
        {
          "internalType": "uint256",
          "name": "event_item_id",
          "type": "uint256"
        }
      ],
      "name": "removeEventItem",
      "outputs": [],
      "stateMutability": "nonpayable",
      "type": "function"
    },
    {
      "inputs": [
        {
          "internalType": "contract Event",
          "name": "event_address",
          "type": "address"
        }
      ],
      "name": "removeEvent",
      "outputs": [],
      "stateMutability": "nonpayable",
      "type": "function"
    }
  ],
  "bytecode": "0x608060405260028054600160a060020a03191673367e7e251f63eeccd9af88121a2c7d9f3cd5168c17905534801561003657600080fd5b50604051615b9b380380615b9b8339818101604052604081101561005957600080fd5b508051602090910151600254600160a060020a031633146100db57604080517f08c379a000000000000000000000000000000000000000000000000000000000815260206004820152600d60248201527f4163636573732064656e69656400000000000000000000000000000000000000604482015290519081900360640190fd5b60008054600160a060020a03938416600160a060020a03199182161790915560018054929093169116179055615a85806101166000396000f3fe60806040523480156200001157600080fd5b5060043610620001c4576000357c0100000000000000000000000000000000000000000000000000000000900480639568ebf6116200010a578063b98079bc11620000b6578063c386e545116200008c578063c386e5451462000848578063d9e48f5c1462000877578063eaf8bcdd146200088157620001c4565b8063b98079bc14620007f5578063b9f827021462000815578063c27a500d146200083e57620001c4565b8063acf65ecd11620000ec578063acf65ecd14620007c3578063b34e97e814620007cd578063b5cb15f714620007eb57620001c4565b80639568ebf6146200077157806398f82573146200079a57620001c4565b8063280ea253116200017657806366bc7b7f116200014c57806366bc7b7f146200066c57806368d02e0014620007285780636ed6da9e146200075157620001c4565b8063280ea25314620005365780632cbf4e271462000612578063328cadef146200064357620001c4565b80630f97756111620001ac5780630f9775611462000367578063138b5db614620003c35780631aa3a008146200051a57620001c4565b80620ad44e14620001c95780630f0332a314620001fa575b600080fd5b620001f860048036036040811015620001e157600080fd5b50600160a060020a038135169060200135620008b1565b005b62000223600480360360208110156200021257600080fd5b5035600160a060020a031662000a0f565b6040518089600160a060020a0316600160a060020a0316815260200188600160a060020a0316600160a060020a03168152602001806020018060200187815260200186815260200185815260200184600160a060020a0316600160a060020a03168152602001838103835289818151815260200191508051906020019080838360005b83811015620002c0578181015183820152602001620002a6565b50505050905090810190601f168015620002ee5780820380516001836020036101000a031916815260200191505b5083810382528851815288516020918201918a019080838360005b838110156200032357818101518382015260200162000309565b50505050905090810190601f168015620003515780820380516001836020036101000a031916815260200191505b509a505050505050505050505060405180910390f35b6200037162000d44565b60408051602080825283518183015283519192839290830191858101910280838360005b83811015620003af57818101518382015260200162000395565b505050509050019250505060405180910390f35b620004fe60048036036080811015620003db57600080fd5b810190602081018135640100000000811115620003f757600080fd5b8201836020820111156200040a57600080fd5b803590602001918460018302840111640100000000831117156200042d57600080fd5b91908080601f01602080910402602001604051908101604052809392919081815260200183838082843760009201919091525092959493602081019350359150506401000000008111156200048157600080fd5b8201836020820111156200049457600080fd5b80359060200191846001830284011164010000000083111715620004b757600080fd5b91908080601f016020809104026020016040519081016040528093929190818152602001838380828437600092019190915250929550508235935050506020013562000f5d565b60408051600160a060020a039092168252519081900360200190f35b62000524620011f6565b60408051918252519081900360200190f35b62000565600480360360408110156200054e57600080fd5b50600160a060020a03813516906020013562001401565b6040518086815260200185600160a060020a0316600160a060020a031681526020018060200184815260200183151515158152602001828103825285818151815260200191508051906020019080838360005b83811015620005d2578181015183820152602001620005b8565b50505050905090810190601f168015620006005780820380516001836020036101000a031916815260200191505b50965050505050505060405180910390f35b620001f8600480360360408110156200062a57600080fd5b50600160a060020a038135811691602001351662001660565b620001f8600480360360208110156200065b57600080fd5b5035600160a060020a0316620017a4565b620001f8600480360360408110156200068457600080fd5b600160a060020a038235169190810190604081016020820135640100000000811115620006b057600080fd5b820183602082011115620006c357600080fd5b80359060200191846001830284011164010000000083111715620006e657600080fd5b91908080601f016020809104026020016040519081016040528093929190818152602001838380828437600092019190915250929550620018fa945050505050565b62000371600480360360208110156200074057600080fd5b5035600160a060020a031662001aa0565b620004fe600480360360208110156200076957600080fd5b503562001ca6565b62000524600480360360208110156200078957600080fd5b5035600160a060020a031662001dac565b6200052460048036036020811015620007b257600080fd5b5035600160a060020a031662001eed565b620003716200201d565b620007d762002162565b604080519115158252519081900360200190f35b62000524620021fb565b620004fe600480360360208110156200080d57600080fd5b5035620022d1565b620001f8600480360360208110156200082d57600080fd5b5035600160a060020a0316620023a3565b62000371620024ea565b620001f8600480360360408110156200086057600080fd5b50600160a060020a038135169060200135620025c1565b6200052462002702565b6200088b620027d9565b60408051600160a060020a03938416815291909216602082015281519081900390910190f35b600054604080517fdeac46590000000000000000000000000000000000000000000000000000000081523360048201529051600160a060020a039092169163deac465991602480820192602092909190829003018186803b1580156200091657600080fd5b505afa1580156200092b573d6000803e3d6000fd5b505050506040513d60208110156200094257600080fd5b50516200098a5760405160008051602062005a05833981519152815260040180806020018281038252602b81526020018062005a25602b913960400191505060405180910390fd5b604080517fa650f684000000000000000000000000000000000000000000000000000000008152336004820152602481018390529051600160a060020a0384169163a650f68491604480830192600092919082900301818387803b158015620009f257600080fd5b505af115801562000a07573d6000803e3d6000fd5b505050505050565b60008054604080517fdeac46590000000000000000000000000000000000000000000000000000000081523360048201529051839260609283928592839283928392600160a060020a03169163deac4659916024808301926020929190829003018186803b15801562000a8157600080fd5b505afa15801562000a96573d6000803e3d6000fd5b505050506040513d602081101562000aad57600080fd5b505162000af55760405160008051602062005a05833981519152815260040180806020018281038252602b81526020018062005a25602b913960400191505060405180910390fd5b88600160a060020a0316635a9b0b896040518163ffffffff167c010000000000000000000000000000000000000000000000000000000002815260040160006040518083038186803b15801562000b4b57600080fd5b505afa15801562000b60573d6000803e3d6000fd5b505050506040513d6000823e601f3d908101601f1916820160405261010081101562000b8b57600080fd5b8151602083015160408085018051915193959294830192918464010000000082111562000bb757600080fd5b90830190602082018581111562000bcd57600080fd5b825164010000000081118282018810171562000be857600080fd5b82525081516020918201929091019080838360005b8381101562000c1757818101518382015260200162000bfd565b50505050905090810190601f16801562000c455780820380516001836020036101000a031916815260200191505b506040526020018051604051939291908464010000000082111562000c6957600080fd5b90830190602082018581111562000c7f57600080fd5b825164010000000081118282018810171562000c9a57600080fd5b82525081516020918201929091019080838360005b8381101562000cc957818101518382015260200162000caf565b50505050905090810190601f16801562000cf75780820380516001836020036101000a031916815260200191505b506040526020018051906020019092919080519060200190929190805190602001909291908051906020019092919050505097509750975097509750975097509750919395975091939597565b600054604080517fdeac46590000000000000000000000000000000000000000000000000000000081523360048201529051606092600160a060020a03169163deac4659916024808301926020929190829003018186803b15801562000da957600080fd5b505afa15801562000dbe573d6000803e3d6000fd5b505050506040513d602081101562000dd557600080fd5b505162000e1d5760405160008051602062005a05833981519152815260040180806020018281038252602b81526020018062005a25602b913960400191505060405180910390fd5b600154604080517f436df0560000000000000000000000000000000000000000000000000000000081523360048201526000602482018190529151600160a060020a039093169263436df05692604480840193919291829003018186803b15801562000e8857600080fd5b505afa15801562000e9d573d6000803e3d6000fd5b505050506040513d6000823e601f3d908101601f19168201604052602081101562000ec757600080fd5b810190808051604051939291908464010000000082111562000ee857600080fd5b90830190602082018581111562000efe57600080fd5b825186602082028301116401000000008211171562000f1c57600080fd5b82525081516020918201928201910280838360005b8381101562000f4b57818101518382015260200162000f31565b50505050905001604052505050905090565b60008054604080517fdeac46590000000000000000000000000000000000000000000000000000000081523360048201529051600160a060020a039092169163deac465991602480820192602092909190829003018186803b15801562000fc357600080fd5b505afa15801562000fd8573d6000803e3d6000fd5b505050506040513d602081101562000fef57600080fd5b5051620010375760405160008051602062005a05833981519152815260040180806020018281038252602b81526020018062005a25602b913960400191505060405180910390fd5b600033868686866040516200104c9062002860565b8086600160a060020a0316600160a060020a031681526020018060200180602001858152602001848152602001838103835287818151815260200191508051906020019080838360005b83811015620010b057818101518382015260200162001096565b50505050905090810190601f168015620010de5780820380516001836020036101000a031916815260200191505b50838103825286518152865160209182019188019080838360005b8381101562001113578181015183820152602001620010f9565b50505050905090810190601f168015620011415780820380516001836020036101000a031916815260200191505b50975050505050505050604051809103906000f08015801562001168573d6000803e3d6000fd5b50600154604080517f243d9220000000000000000000000000000000000000000000000000000000008152600160a060020a038085166004830152915193945091169163243d92209160248082019260009290919082900301818387803b158015620011d357600080fd5b505af1158015620011e8573d6000803e3d6000fd5b509298975050505050505050565b60008054604080517fdeac4659000000000000000000000000000000000000000000000000000000008152336004820181905291519192600160a060020a03169163deac465991602480820192602092909190829003018186803b1580156200125e57600080fd5b505afa15801562001273573d6000803e3d6000fd5b505050506040513d60208110156200128a57600080fd5b505115620012e8576040805160008051602062005a05833981519152815260206004820152601760248201527f5573657220616c72656164792072656769737465726564000000000000000000604482015290519081900360640190fd5b60008054604080517f243d9220000000000000000000000000000000000000000000000000000000008152600160a060020a0385811660048301529151919092169263243d9220926024808201939182900301818387803b1580156200134d57600080fd5b505af115801562001362573d6000803e3d6000fd5b5050600054604080517f16c19739000000000000000000000000000000000000000000000000000000008152600160a060020a03868116600483015291519190921693506316c1973992506024808301926020929190829003018186803b158015620013cd57600080fd5b505afa158015620013e2573d6000803e3d6000fd5b505050506040513d6020811015620013f957600080fd5b505191505090565b60008054604080517fdeac46590000000000000000000000000000000000000000000000000000000081523360048201529051839260609284928392600160a060020a03169163deac4659916024808301926020929190829003018186803b1580156200146d57600080fd5b505afa15801562001482573d6000803e3d6000fd5b505050506040513d60208110156200149957600080fd5b5051620014e15760405160008051602062005a05833981519152815260040180806020018281038252602b81526020018062005a25602b913960400191505060405180910390fd5b86600160a060020a031663de7fe3e7876040518263ffffffff167c01000000000000000000000000000000000000000000000000000000000281526004018082815260200191505060006040518083038186803b1580156200154257600080fd5b505afa15801562001557573d6000803e3d6000fd5b505050506040513d6000823e601f3d908101601f1916820160405260a08110156200158157600080fd5b81516020830151604080850180519151939592948301929184640100000000821115620015ad57600080fd5b908301906020820185811115620015c357600080fd5b8251640100000000811182820188101715620015de57600080fd5b82525081516020918201929091019080838360005b838110156200160d578181015183820152602001620015f3565b50505050905090810190601f1680156200163b5780820380516001836020036101000a031916815260200191505b5060409081526020820151910151959d949c50929a5091985092965090945050505050565b600054604080517fdeac46590000000000000000000000000000000000000000000000000000000081523360048201529051600160a060020a039092169163deac465991602480820192602092909190829003018186803b158015620016c557600080fd5b505afa158015620016da573d6000803e3d6000fd5b505050506040513d6020811015620016f157600080fd5b5051620017395760405160008051602062005a05833981519152815260040180806020018281038252602b81526020018062005a25602b913960400191505060405180910390fd5b604080517f2cbf4e27000000000000000000000000000000000000000000000000000000008152336004820152600160a060020a038381166024830152915191841691632cbf4e279160448082019260009290919082900301818387803b158015620009f257600080fd5b600054604080517fdeac46590000000000000000000000000000000000000000000000000000000081523360048201529051600160a060020a039092169163deac465991602480820192602092909190829003018186803b1580156200180957600080fd5b505afa1580156200181e573d6000803e3d6000fd5b505050506040513d60208110156200183557600080fd5b50516200187d5760405160008051602062005a05833981519152815260040180806020018281038252602b81526020018062005a25602b913960400191505060405180910390fd5b604080517fb91038c70000000000000000000000000000000000000000000000000000000081523360048201529051600160a060020a0383169163b91038c791602480830192600092919082900301818387803b158015620018de57600080fd5b505af1158015620018f3573d6000803e3d6000fd5b5050505050565b600054604080517fdeac46590000000000000000000000000000000000000000000000000000000081523360048201529051600160a060020a039092169163deac465991602480820192602092909190829003018186803b1580156200195f57600080fd5b505afa15801562001974573d6000803e3d6000fd5b505050506040513d60208110156200198b57600080fd5b5051620019d35760405160008051602062005a05833981519152815260040180806020018281038252602b81526020018062005a25602b913960400191505060405180910390fd5b604080517f8ab77ed5000000000000000000000000000000000000000000000000000000008152336004820181815260248301938452845160448401528451600160a060020a03871694638ab77ed594879392606490910190602085019080838360005b8381101562001a5157818101518382015260200162001a37565b50505050905090810190601f16801562001a7f5780820380516001836020036101000a031916815260200191505b509350505050600060405180830381600087803b158015620009f257600080fd5b600054604080517fdeac46590000000000000000000000000000000000000000000000000000000081523360048201529051606092600160a060020a03169163deac4659916024808301926020929190829003018186803b15801562001b0557600080fd5b505afa15801562001b1a573d6000803e3d6000fd5b505050506040513d602081101562001b3157600080fd5b505162001b795760405160008051602062005a05833981519152815260040180806020018281038252602b81526020018062005a25602b913960400191505060405180910390fd5b81600160a060020a031663c94d0a486040518163ffffffff167c010000000000000000000000000000000000000000000000000000000002815260040160006040518083038186803b15801562001bcf57600080fd5b505afa15801562001be4573d6000803e3d6000fd5b505050506040513d6000823e601f3d908101601f19168201604052602081101562001c0e57600080fd5b810190808051604051939291908464010000000082111562001c2f57600080fd5b90830190602082018581111562001c4557600080fd5b825186602082028301116401000000008211171562001c6357600080fd5b82525081516020918201928201910280838360005b8381101562001c9257818101518382015260200162001c78565b505050509050016040525050509050919050565b600254600090600160a060020a0316331462001d12576040805160008051602062005a05833981519152815260206004820152600d60248201527f4163636573732064656e69656400000000000000000000000000000000000000604482015290519081900360640190fd5b600054604080517f6714b669000000000000000000000000000000000000000000000000000000008152600481018590529051600160a060020a0390921691636714b66991602480820192602092909190829003018186803b15801562001d7857600080fd5b505afa15801562001d8d573d6000803e3d6000fd5b505050506040513d602081101562001da457600080fd5b505192915050565b60008054604080517fdeac46590000000000000000000000000000000000000000000000000000000081523360048201529051600160a060020a039092169163deac465991602480820192602092909190829003018186803b15801562001e1257600080fd5b505afa15801562001e27573d6000803e3d6000fd5b505050506040513d602081101562001e3e57600080fd5b505162001e865760405160008051602062005a05833981519152815260040180806020018281038252602b81526020018062005a25602b913960400191505060405180910390fd5b600154604080517f16c19739000000000000000000000000000000000000000000000000000000008152600160a060020a038581166004830152915191909216916316c19739916024808301926020929190829003018186803b15801562001d7857600080fd5b60008054604080517fdeac46590000000000000000000000000000000000000000000000000000000081523360048201529051600160a060020a039092169163deac465991602480820192602092909190829003018186803b15801562001f5357600080fd5b505afa15801562001f68573d6000803e3d6000fd5b505050506040513d602081101562001f7f57600080fd5b505162001fc75760405160008051602062005a05833981519152815260040180806020018281038252602b81526020018062005a25602b913960400191505060405180910390fd5b81600160a060020a0316637749cf236040518163ffffffff167c010000000000000000000000000000000000000000000000000000000002815260040160206040518083038186803b15801562001d7857600080fd5b600054604080517fdeac46590000000000000000000000000000000000000000000000000000000081523360048201529051606092600160a060020a03169163deac4659916024808301926020929190829003018186803b1580156200208257600080fd5b505afa15801562002097573d6000803e3d6000fd5b505050506040513d6020811015620020ae57600080fd5b5051620020f65760405160008051602062005a05833981519152815260040180806020018281038252602b81526020018062005a25602b913960400191505060405180910390fd5b60018054604080517f436df056000000000000000000000000000000000000000000000000000000008152336004820152602481019390935251600160a060020a039091169163436df056916044808301926000929190829003018186803b15801562000e8857600080fd5b60008054604080517fdeac46590000000000000000000000000000000000000000000000000000000081523360048201529051600160a060020a039092169163deac465991602480820192602092909190829003018186803b158015620021c857600080fd5b505afa158015620021dd573d6000803e3d6000fd5b505050506040513d6020811015620021f457600080fd5b5051905090565b600254600090600160a060020a0316331462002267576040805160008051602062005a05833981519152815260206004820152600d60248201527f4163636573732064656e69656400000000000000000000000000000000000000604482015290519081900360640190fd5b6000809054906101000a9004600160a060020a0316600160a060020a0316633ec768576040518163ffffffff167c010000000000000000000000000000000000000000000000000000000002815260040160206040518083038186803b158015620021c857600080fd5b600254600090600160a060020a031633146200233d576040805160008051602062005a05833981519152815260206004820152600d60248201527f4163636573732064656e69656400000000000000000000000000000000000000604482015290519081900360640190fd5b600154604080517f6714b669000000000000000000000000000000000000000000000000000000008152600481018590529051600160a060020a0390921691636714b66991602480820192602092909190829003018186803b15801562001d7857600080fd5b600054604080517fdeac46590000000000000000000000000000000000000000000000000000000081523360048201529051600160a060020a039092169163deac465991602480820192602092909190829003018186803b1580156200240857600080fd5b505afa1580156200241d573d6000803e3d6000fd5b505050506040513d60208110156200243457600080fd5b50516200247c5760405160008051602062005a05833981519152815260040180806020018281038252602b81526020018062005a25602b913960400191505060405180910390fd5b600154604080517fe5b40eaf000000000000000000000000000000000000000000000000000000008152600160a060020a0384811660048301523360248301529151919092169163e5b40eaf91604480830192600092919082900301818387803b158015620018de57600080fd5b600254606090600160a060020a0316331462002556576040805160008051602062005a05833981519152815260206004820152600d60248201527f4163636573732064656e69656400000000000000000000000000000000000000604482015290519081900360640190fd5b600160009054906101000a9004600160a060020a0316600160a060020a03166311ef241b6040518163ffffffff167c010000000000000000000000000000000000000000000000000000000002815260040160006040518083038186803b15801562000e8857600080fd5b600054604080517fdeac46590000000000000000000000000000000000000000000000000000000081523360048201529051600160a060020a039092169163deac465991602480820192602092909190829003018186803b1580156200262657600080fd5b505afa1580156200263b573d6000803e3d6000fd5b505050506040513d60208110156200265257600080fd5b50516200269a5760405160008051602062005a05833981519152815260040180806020018281038252602b81526020018062005a25602b913960400191505060405180910390fd5b604080517f8d258212000000000000000000000000000000000000000000000000000000008152336004820152602481018390529051600160a060020a03841691638d25821291604480830192600092919082900301818387803b158015620009f257600080fd5b600254600090600160a060020a031633146200276e576040805160008051602062005a05833981519152815260206004820152600d60248201527f4163636573732064656e69656400000000000000000000000000000000000000604482015290519081900360640190fd5b600160009054906101000a9004600160a060020a0316600160a060020a0316633ec768576040518163ffffffff167c010000000000000000000000000000000000000000000000000000000002815260040160206040518083038186803b158015620021c857600080fd5b6002546000908190600160a060020a0316331462002847576040805160008051602062005a05833981519152815260206004820152600d60248201527f4163636573732064656e69656400000000000000000000000000000000000000604482015290519081900360640190fd5b5050600054600154600160a060020a0391821691169091565b613196806200286f8339019056fe60806040523480156200001157600080fd5b5060405162003196380380620031968339810160408190526200003491620002df565b60008054600160a060020a0319908116301790915560028054600160a060020a038816908316179055600180549091163317905583516200007d90600490602087019062000185565b5082516200009390600690602086019062000185565b504260075560088290556009819055600a829055604051620000b5906200020a565b604051809103906000f080158015620000d2573d6000803e3d6000fd5b5060038054600160a060020a031916600160a060020a0392909216919091179055600954600854106200013c576040517f08c379a00000000000000000000000000000000000000000000000000000000081526004016200013390620003d5565b60405180910390fd5b42600854116200017a576040517f08c379a0000000000000000000000000000000000000000000000000000000008152600401620001339062000378565b505050505062000432565b828054600181600116156101000203166002900490600052602060002090601f016020900481019282601f10620001c857805160ff1916838001178555620001f8565b82800160010185558215620001f8579182015b82811115620001f8578251825591602001919060010190620001db565b506200020692915062000218565b5090565b6108be80620028d883390190565b6200023591905b808211156200020657600081556001016200021f565b90565b600082601f83011262000249578081fd5b81516001604060020a038082111562000260578283fd5b6040516020601f8401601f191682018101838111838210171562000282578586fd5b806040525081945083825286818588010111156200029f57600080fd5b600092505b83831015620002c35785830181015182840182015291820191620002a4565b83831115620002d55760008185840101525b5050505092915050565b600080600080600060a08688031215620002f7578081fd5b8551600160a060020a03811681146200030e578182fd5b60208701519095506001604060020a03808211156200032b578283fd5b6200033989838a0162000238565b955060408801519150808211156200034f578283fd5b506200035e8882890162000238565b606088015160809098015196999598509695949350505050565b60208082526026908201527f6576656e742073746172742074696d65206d75737420626520696e207468652060408201527f6675747572650000000000000000000000000000000000000000000000000000606082015260800190565b60208082526028908201527f6576656e742073746172742074696d65206d757374206265206265666f72652060408201527f656e642074696d65000000000000000000000000000000000000000000000000606082015260800190565b61249680620004426000396000f3fe608060405234801561001057600080fd5b506004361061025e576000357c0100000000000000000000000000000000000000000000000000000000900480638d25821211610162578063c94d0a48116100da578063d9561a91116100a9578063ded7374c1161008e578063ded7374c146104a7578063e23a845a146104ba578063e5b0c5a7146104c25761025e565b8063d9561a9114610470578063de7fe3e7146104835761025e565b8063c94d0a4814610438578063ccb98ffc1461044d578063ce2ce3fc14610460578063d5009584146104685761025e565b8063a2221ffc11610131578063b22c36d511610116578063b22c36d51461040a578063b91038c714610412578063c0cc365d146104255761025e565b8063a2221ffc146103ef578063a650f684146103f75761025e565b80638d258212146103a357806390c3f38f146103b6578063929066f5146103c9578063932354c1146103dc5761025e565b80635aa68ac0116101f5578063843bd641116101c457806384de1ea5116101a957806384de1ea5146103805780638ab77ed5146103885780638b915c251461039b5761025e565b8063843bd6411461035a57806384da92a71461036d5761025e565b80635aa68ac01461032d5780635d1ca631146103355780637749cf231461033d57806383707647146103455761025e565b80632e141e90116102315780632e141e90146102be57806338a73061146102de5780633e0a322d146102fe5780635a9b0b89146103115761025e565b806305111c1e1461026357806317d7de7c1461028c5780631a092541146102a15780632cbf4e27146102a9575b600080fd5b610276610271366004611e37565b6104d5565b6040516102839190611ebe565b60405180910390f35b61029461055d565b6040516102839190612083565b6102946105f4565b6102bc6102b7366004611cf9565b610655565b005b6102d16102cc366004611e37565b610798565b6040516102839190612078565b6102f16102ec366004611e37565b610804565b60405161028391906123a0565b6102bc61030c366004611e37565b61086c565b6103196108d9565b604051610283989796959493929190611edf565b610276610a5d565b610276610a79565b6102f1610a95565b61034d610ade565b6040516102839190611fb0565b6102d1610368366004611e37565b610c57565b6102bc61037b366004611dfc565b610caa565b610276610d00565b6102bc610396366004611c80565b610d1c565b6102f1610ede565b6102bc6103b1366004611cce565b610ee4565b6102bc6103c4366004611dfc565b61114d565b6102d16103d7366004611c5d565b61119f565b6102bc6103ea366004611dfc565b611246565b6102f1611298565b6102bc610405366004611cce565b61129e565b6102f161139f565b6102bc610420366004611c5d565b6113a5565b6102bc610433366004611e37565b6114db565b610440611549565b6040516102839190611f56565b6102bc61045b366004611e37565b6115f5565b610294611662565b6102766116c3565b61029461047e366004611e37565b611722565b610496610491366004611e37565b611815565b6040516102839594939291906123a9565b6102d16104b5366004611e4f565b6119ee565b6102f1611a6e565b6102d16104d0366004611c5d565b611a74565b60015460009073ffffffffffffffffffffffffffffffffffffffff16331461052057604051600080516020612441833981519152815260040161051790612096565b60405180910390fd5b600b828154811061052d57fe5b600091825260209091206005909102016001015473ffffffffffffffffffffffffffffffffffffffff1692915050565b60048054604080516020601f60026000196101006001881615020190951694909404938401819004810282018101909252828152606093909290918301828280156105e95780601f106105be576101008083540402835291602001916105e9565b820191906000526020600020905b8154815290600101906020018083116105cc57829003601f168201915b505050505090505b90565b60058054604080516020601f60026000196101006001881615020190951694909404938401819004810282018101909252828152606093909290918301828280156105e95780601f106105be576101008083540402835291602001916105e9565b60015473ffffffffffffffffffffffffffffffffffffffff16331461069457604051600080516020612441833981519152815260040161051790612096565b8073ffffffffffffffffffffffffffffffffffffffff168273ffffffffffffffffffffffffffffffffffffffff1614806106e8575060025473ffffffffffffffffffffffffffffffffffffffff8381169116145b61070c57604051600080516020612441833981519152815260040161051790612289565b6003546040517ff033520500000000000000000000000000000000000000000000000000000000815273ffffffffffffffffffffffffffffffffffffffff9091169063f033520590610762908490600401611ebe565b600060405180830381600087803b15801561077c57600080fd5b505af1158015610790573d6000803e3d6000fd5b505050505050565b60015460009073ffffffffffffffffffffffffffffffffffffffff1633146107da57604051600080516020612441833981519152815260040161051790612096565b600b82815481106107e757fe5b600091825260209091206005909102016004015460ff1692915050565b60015460009073ffffffffffffffffffffffffffffffffffffffff16331461084657604051600080516020612441833981519152815260040161051790612096565b600b828154811061085357fe5b9060005260206000209060050201600301549050919050565b60015473ffffffffffffffffffffffffffffffffffffffff1633146108ab57604051600080516020612441833981519152815260040161051790612096565b60095481106108d457604051600080516020612441833981519152815260040161051790612343565b600855565b6000805460028054600854600954600754600354600480546040805160206101006001851615026000190190931699909904601f810183900483028a0183019091528089528a996060998a998c998a998a998a9973ffffffffffffffffffffffffffffffffffffffff9687169994871698949760069794969395929490911692918891908301828280156109ae5780601f10610983576101008083540402835291602001916109ae565b820191906000526020600020905b81548152906001019060200180831161099157829003601f168201915b5050885460408051602060026001851615610100026000190190941693909304601f8101849004840282018401909252818152959b508a945092508401905082828015610a3c5780601f10610a1157610100808354040283529160200191610a3c565b820191906000526020600020905b815481529060010190602001808311610a1f57829003601f168201915b50505050509450975097509750975097509750975097509091929394959697565b60035473ffffffffffffffffffffffffffffffffffffffff1690565b60005473ffffffffffffffffffffffffffffffffffffffff1690565b60015460009073ffffffffffffffffffffffffffffffffffffffff163314610ad757604051600080516020612441833981519152815260040161051790612096565b50600b5490565b60015460609073ffffffffffffffffffffffffffffffffffffffff163314610b2057604051600080516020612441833981519152815260040161051790612096565b600b805480602002602001604051908101604052809291908181526020016000905b82821015610c4e5760008481526020908190206040805160a081018252600586029092018054835260018082015473ffffffffffffffffffffffffffffffffffffffff16848601526002808301805485516101009482161594909402600019011691909104601f8101879004870283018701855280835294959294938601939192909190830182828015610c175780601f10610bec57610100808354040283529160200191610c17565b820191906000526020600020905b815481529060010190602001808311610bfa57829003601f168201915b5050509183525050600382015460208083019190915260049092015460ff1615156040909101529082526001929092019101610b42565b50505050905090565b60015460009073ffffffffffffffffffffffffffffffffffffffff163314610c9957604051600080516020612441833981519152815260040161051790612096565b610ca1610a95565b82105b92915050565b60015473ffffffffffffffffffffffffffffffffffffffff163314610ce957604051600080516020612441833981519152815260040161051790612096565b8051610cfc906004906020840190611a95565b5050565b60025473ffffffffffffffffffffffffffffffffffffffff1690565b60015473ffffffffffffffffffffffffffffffffffffffff163314610d5b57604051600080516020612441833981519152815260040161051790612096565b60025473ffffffffffffffffffffffffffffffffffffffff83811691161480610d885750610d888261119f565b610dac576040516000805160206124418339815191528152600401610517906121be565b6000610db6610a95565b6040805160a08101825282815273ffffffffffffffffffffffffffffffffffffffff8681166020808401918252938301878152600a546060850152600060808501819052600b8054600181018255915284517f0175b7a638427703f0dbe7bb9bbf987a2551717b34e79f33b5b1008d1fa01db9600590920291820190815592517f0175b7a638427703f0dbe7bb9bbf987a2551717b34e79f33b5b1008d1fa01dba8201805473ffffffffffffffffffffffffffffffffffffffff1916919095161790935551805195965092949093610eb4937f0175b7a638427703f0dbe7bb9bbf987a2551717b34e79f33b5b1008d1fa01dbb909301920190611a95565b50606082015160038201556080909101516004909101805460ff1916911515919091179055505050565b60085490565b60015473ffffffffffffffffffffffffffffffffffffffff163314610f2357604051600080516020612441833981519152815260040161051790612096565b60025473ffffffffffffffffffffffffffffffffffffffff83811691161480610f515750610f5181836119ee565b610f755760405160008051602061244183398151915281526004016105179061212a565b610f7e81610c57565b610fa257604051600080516020612441833981519152815260040161051790612252565b600b8181548110610faf57fe5b60009182526020822060059091020181815560018101805473ffffffffffffffffffffffffffffffffffffffff1916905590610fee6002830182611b13565b5060006003820155600401805460ff19169055805b600b54600019018110156110e357600b816001018154811061102157fe5b9060005260206000209060050201600b828154811061103c57fe5b600091825260209091208254600590920201908155600180830154818301805473ffffffffffffffffffffffffffffffffffffffff191673ffffffffffffffffffffffffffffffffffffffff909216919091179055600280840180546110b5938386019390821615610100026000190190911604611b5a565b50600382810154908201556004918201549101805460ff191660ff9092161515919091179055600101611003565b50600b8054806110ef57fe5b60008281526020812060056000199093019283020181815560018101805473ffffffffffffffffffffffffffffffffffffffff19169055906111346002830182611b13565b5060006003820155600401805460ff1916905590555050565b60015473ffffffffffffffffffffffffffffffffffffffff16331461118c57604051600080516020612441833981519152815260040161051790612096565b8051610cfc906005906020840190611a95565b6003546040517fdeac465900000000000000000000000000000000000000000000000000000000815260009173ffffffffffffffffffffffffffffffffffffffff169063deac4659906111f6908590600401611ebe565b60206040518083038186803b15801561120e57600080fd5b505afa158015611222573d6000803e3d6000fd5b505050506040513d601f19601f82011682018060405250810190610ca49190611ddc565b60015473ffffffffffffffffffffffffffffffffffffffff16331461128557604051600080516020612441833981519152815260040161051790612096565b8051610cfc906006906020840190611a95565b60095490565b60015473ffffffffffffffffffffffffffffffffffffffff1633146112dd57604051600080516020612441833981519152815260040161051790612096565b60025473ffffffffffffffffffffffffffffffffffffffff8381169116148061130b575061130b81836119ee565b61132f5760405160008051602061244183398151915281526004016105179061212a565b61133881610c57565b61135c57604051600080516020612441833981519152815260040161051790612252565b600061136782610798565b90508015600b838154811061137857fe5b60009182526020909120600590910201600401805460ff1916911515919091179055505050565b60075490565b60015473ffffffffffffffffffffffffffffffffffffffff1633146113e457604051600080516020612441833981519152815260040161051790612096565b60025473ffffffffffffffffffffffffffffffffffffffff8281169116141561142757604051600080516020612441833981519152815260040161051790612187565b42600a5411611450576040516000805160206124418339815191528152600401610517906120f3565b6003546040517f243d922000000000000000000000000000000000000000000000000000000000815273ffffffffffffffffffffffffffffffffffffffff9091169063243d9220906114a6908490600401611ebe565b600060405180830381600087803b1580156114c057600080fd5b505af11580156114d4573d6000803e3d6000fd5b5050505050565b60015473ffffffffffffffffffffffffffffffffffffffff16331461151a57604051600080516020612441833981519152815260040161051790612096565b600854811115611544576040516000805160206124418339815191528152600401610517906122e6565b600a55565b600354604080517fd504ea1d000000000000000000000000000000000000000000000000000000008152905160609273ffffffffffffffffffffffffffffffffffffffff169163d504ea1d916004808301926000929190829003018186803b1580156115b457600080fd5b505afa1580156115c8573d6000803e3d6000fd5b505050506040513d6000823e601f3d908101601f191682016040526115f09190810190611d31565b905090565b60015473ffffffffffffffffffffffffffffffffffffffff16331461163457604051600080516020612441833981519152815260040161051790612096565b600854811161165d576040516000805160206124418339815191528152600401610517906121f5565b600955565b60068054604080516020601f60026000196101006001881615020190951694909404938401819004810282018101909252828152606093909290918301828280156105e95780601f106105be576101008083540402835291602001916105e9565b60015460009073ffffffffffffffffffffffffffffffffffffffff16331461170557604051600080516020612441833981519152815260040161051790612096565b5060015473ffffffffffffffffffffffffffffffffffffffff1690565b60015460609073ffffffffffffffffffffffffffffffffffffffff16331461176457604051600080516020612441833981519152815260040161051790612096565b600b828154811061177157fe5b600091825260209182902060026005909202018101805460408051601f6000196101006001861615020190931694909404918201859004850284018501905280835291929091908301828280156118095780601f106117de57610100808354040283529160200191611809565b820191906000526020600020905b8154815290600101906020018083116117ec57829003601f168201915b50505050509050919050565b60015460009081906060908290819073ffffffffffffffffffffffffffffffffffffffff16331461186057604051600080516020612441833981519152815260040161051790612096565b61186986610c57565b61188d57604051600080516020612441833981519152815260040161051790612252565b600b868154811061189a57fe5b906000526020600020906005020160000154600b87815481106118b957fe5b906000526020600020906005020160010160009054906101000a900473ffffffffffffffffffffffffffffffffffffffff16600b88815481106118f857fe5b9060005260206000209060050201600201600b898154811061191657fe5b906000526020600020906005020160030154600b8a8154811061193557fe5b600091825260209182902060046005909202010154835460408051601f6002600019600186161561010002019094169390930492830185900485028101850190915281815260ff909216928591908301828280156119d45780601f106119a9576101008083540402835291602001916119d4565b820191906000526020600020905b8154815290600101906020018083116119b757829003601f168201915b505050505092509450945094509450945091939590929450565b60015460009073ffffffffffffffffffffffffffffffffffffffff163314611a3057604051600080516020612441833981519152815260040161051790612096565b8173ffffffffffffffffffffffffffffffffffffffff16611a50846104d5565b73ffffffffffffffffffffffffffffffffffffffff16149392505050565b600a5490565b60025473ffffffffffffffffffffffffffffffffffffffff90811691161490565b828054600181600116156101000203166002900490600052602060002090601f016020900481019282601f10611ad657805160ff1916838001178555611b03565b82800160010185558215611b03579182015b82811115611b03578251825591602001919060010190611ae8565b50611b0f929150611bcf565b5090565b50805460018160011615610100020316600290046000825580601f10611b395750611b57565b601f016020900490600052602060002090810190611b579190611bcf565b50565b828054600181600116156101000203166002900490600052602060002090601f016020900481019282601f10611b935780548555611b03565b82800160010185558215611b0357600052602060002091601f016020900482015b82811115611b03578254825591600101919060010190611bb4565b6105f191905b80821115611b0f5760008155600101611bd5565b8051610ca48161241e565b600082601f830112611c04578081fd5b813567ffffffffffffffff811115611c1a578182fd5b611c2d6020601f19601f840116016123f7565b9150808252836020828501011115611c4457600080fd5b8060208401602084013760009082016020015292915050565b600060208284031215611c6e578081fd5b8135611c798161241e565b9392505050565b60008060408385031215611c92578081fd5b8235611c9d8161241e565b9150602083013567ffffffffffffffff811115611cb8578182fd5b611cc485828601611bf4565b9150509250929050565b60008060408385031215611ce0578182fd5b8235611ceb8161241e565b946020939093013593505050565b60008060408385031215611d0b578182fd5b8235611d168161241e565b91506020830135611d268161241e565b809150509250929050565b60006020808385031215611d43578182fd5b825167ffffffffffffffff80821115611d5a578384fd5b81850186601f820112611d6b578485fd5b8051925081831115611d7b578485fd5b8383029150611d8b8483016123f7565b8381528481019082860184840187018a1015611da5578788fd5b8794505b85851015611dcf57611dbb8a82611be9565b835260019490940193918601918601611da9565b5098975050505050505050565b600060208284031215611ded578081fd5b81518015158114611c79578182fd5b600060208284031215611e0d578081fd5b813567ffffffffffffffff811115611e23578182fd5b611e2f84828501611bf4565b949350505050565b600060208284031215611e48578081fd5b5035919050565b60008060408385031215611e61578182fd5b823591506020830135611d268161241e565b60008151808452815b81811015611e9857602081850181015186830182015201611e7c565b81811115611ea95782602083870101525b50601f01601f19169290920160200192915050565b73ffffffffffffffffffffffffffffffffffffffff91909116815260200190565b600061010073ffffffffffffffffffffffffffffffffffffffff808c168452808b166020850152816040850152611f188285018b611e73565b8481036060860152611f2a818b611e73565b9350508760808501528660a08501528560c085015280851660e085015250509998505050505050505050565b6020808252825182820181905260009190848201906040850190845b81811015611fa457835173ffffffffffffffffffffffffffffffffffffffff1683529284019291840191600101611f72565b50909695505050505050565b60208082528251828201819052600091906040908185019080840286018301878501865b8381101561206a577fffffffffffffffffffffffffffffffffffffffffffffffffffffffffffffffc0898403018552815160a08151855273ffffffffffffffffffffffffffffffffffffffff89830151168986015287820151818987015261203e82870182611e73565b606084810151908801526080938401511515939096019290925250509386019390860190600101611fd4565b509098975050505050505050565b901515815260200190565b600060208252611c796020830184611e73565b60208082526023908201527f416363657373206973206f6e6c7920616c6c6f77656420666f72206d616e616760408201527f65722e0000000000000000000000000000000000000000000000000000000000606082015260800190565b60208082526010908201527f6576656e74206973206578706972656400000000000000000000000000000000604082015260600190565b60208082526027908201527f55736572206973206e6f7420616c6c6f77656420746f2075706461746520697460408201527f656d20696e666f00000000000000000000000000000000000000000000000000606082015260800190565b6020808252601d908201527f796f752061726520616c72656164792074686520696e69746961746f72000000604082015260600190565b60208082526017908201527f55736572206973206e6f74207061727469636970616e74000000000000000000604082015260600190565b60208082526027908201527f6576656e7420656e642074696d65206d7573742062652061667465722073746160408201527f72742074696d6500000000000000000000000000000000000000000000000000606082015260800190565b60208082526013908201527f4974656d20646f6573206e6f7420657869737400000000000000000000000000604082015260600190565b6020808252602b908201527f73656e6465722068617320746f20626520696e69746961746f72206f7220726560408201527f6d6f766520697473656c66000000000000000000000000000000000000000000606082015260800190565b6020808252602f908201527f6576656e742065787069726174696f6e2074696d65206d75737420626520626560408201527f666f72652073746172742074696d650000000000000000000000000000000000606082015260800190565b60208082526028908201527f6576656e742073746172742074696d65206d757374206265206265666f72652060408201527f656e642074696d65000000000000000000000000000000000000000000000000606082015260800190565b90815260200190565b600086825273ffffffffffffffffffffffffffffffffffffffff8616602083015260a060408301526123de60a0830186611e73565b6060830194909452509015156080909101529392505050565b60405181810167ffffffffffffffff8111828210171561241657600080fd5b604052919050565b73ffffffffffffffffffffffffffffffffffffffff81168114611b5757600080fdfe08c379a000000000000000000000000000000000000000000000000000000000a2646970667358221220a28007917c8da17e09ae23a06d1c3ad7cf8ce34c7204100dcdb2543a85dcb73064736f6c63430006070033608060405234801561001057600080fd5b506001805480820182556000919091527fb10e2d527612073b26eecdfd717e6a320cf44b4afac2b0732d9fcbe2b7fa0cf6018054600160a060020a031916905561085f8061005f6000396000f3fe608060405234801561001057600080fd5b506004361061009a576000357c0100000000000000000000000000000000000000000000000000000000900480636714b669116100785780636714b66914610121578063d504ea1d14610167578063deac4659146101bf578063f0335205146102065761009a565b806316c197391461009f578063243d9220146100e45780633ec7685714610119575b600080fd5b6100d2600480360360208110156100b557600080fd5b503573ffffffffffffffffffffffffffffffffffffffff16610239565b60408051918252519081900360200190f35b610117600480360360208110156100fa57600080fd5b503573ffffffffffffffffffffffffffffffffffffffff1661028b565b005b6100d26103fc565b61013e6004803603602081101561013757600080fd5b5035610406565b6040805173ffffffffffffffffffffffffffffffffffffffff9092168252519081900360200190f35b61016f61051b565b60408051602080825283518183015283519192839290830191858101910280838360005b838110156101ab578181015183820152602001610193565b505050509050019250505060405180910390f35b6101f2600480360360208110156101d557600080fd5b503573ffffffffffffffffffffffffffffffffffffffff166105f1565b604080519115158252519081900360200190f35b6101176004803603602081101561021c57600080fd5b503573ffffffffffffffffffffffffffffffffffffffff1661061b565b600073ffffffffffffffffffffffffffffffffffffffff821661025e57506000610286565b5073ffffffffffffffffffffffffffffffffffffffff81166000908152602081905260409020545b919050565b73ffffffffffffffffffffffffffffffffffffffff811661030d57604080517f08c379a000000000000000000000000000000000000000000000000000000000815260206004820152600f60248201527f496e76616c696420616464726573730000000000000000000000000000000000604482015290519081900360640190fd5b610316816105f1565b1561038257604080517f08c379a000000000000000000000000000000000000000000000000000000000815260206004820152601860248201527f4164647265737320616c726561647920696e2041727261790000000000000000604482015290519081900360640190fd5b6001805473ffffffffffffffffffffffffffffffffffffffff90921660008181526020819052604081208490558383018355919091527fb10e2d527612073b26eecdfd717e6a320cf44b4afac2b0732d9fcbe2b7fa0cf6909101805473ffffffffffffffffffffffffffffffffffffffff19169091179055565b6001546000190190565b600080821161047657604080517f08c379a000000000000000000000000000000000000000000000000000000000815260206004820152601760248201527f7468697320696e646578206973206e6f742076616c6964000000000000000000604482015290519081900360640190fd5b60015482106104e657604080517f08c379a000000000000000000000000000000000000000000000000000000000815260206004820152600d60248201527f6f7574206f6620626f756e647300000000000000000000000000000000000000604482015290519081900360640190fd5b600182815481106104f357fe5b60009182526020909120015473ffffffffffffffffffffffffffffffffffffffff1692915050565b6001546060906000190167ffffffffffffffff8111801561053b57600080fd5b50604051908082528060200260200182016040528015610565578160200160208202803683370190505b50905060005b600154600019018110156105ed576001816001018154811061058957fe5b9060005260206000200160009054906101000a900473ffffffffffffffffffffffffffffffffffffffff168282815181106105c057fe5b73ffffffffffffffffffffffffffffffffffffffff9092166020928302919091019091015260010161056b565b5090565b73ffffffffffffffffffffffffffffffffffffffff16600090815260208190526040902054151590565b610624816105f1565b61068f57604080517f08c379a000000000000000000000000000000000000000000000000000000000815260206004820152601460248201527f41646472657373206e6f7420696e204172726179000000000000000000000000604482015290519081900360640190fd5b600061069a82610239565b9050805b600154600019018110156107c457600080600183815481106106bc57fe5b600091825260208083209091015473ffffffffffffffffffffffffffffffffffffffff1683528201929092526040018120546001805491929182919085820190811061070457fe5b600091825260208083209091015473ffffffffffffffffffffffffffffffffffffffff1683528201929092526040019020556001805482820190811061074657fe5b6000918252602090912001546001805473ffffffffffffffffffffffffffffffffffffffff909216918390811061077957fe5b6000918252602090912001805473ffffffffffffffffffffffffffffffffffffffff191673ffffffffffffffffffffffffffffffffffffffff9290921691909117905560010161069e565b5073ffffffffffffffffffffffffffffffffffffffff821660009081526020819052604081205560018054806107f657fe5b6000828152602090208101600019908101805473ffffffffffffffffffffffffffffffffffffffff19169055019055505056fea2646970667358221220268f3f269ceedb021867ede52d7b6155085c8ea5f119722df9aefe797bae299564736f6c6343000607003308c379a000000000000000000000000000000000000000000000000000000000416363657373206973206f6e6c7920616c6c6f77656420666f722072656769737465726564207573657273a26469706673582212203d6bd071153aab067b16e498df407920cc6257385ccdf349d7a3dd072b455f1064736f6c63430006070033",
  "immutableReferences": {},
  "source": "// SPDX-License-Identifier: MIT\r\npragma solidity ^0.6.7;\r\n\r\n// import storage\r\nimport \"../contracts/Storage/Set.sol\" as SetStorage;\r\nimport \"../contracts/Storage/EventSet.sol\" as EventStorage;\r\n\r\n// import event contract\r\nimport \"../contracts/Event.sol\" as EventContract;\r\n\r\n// EVENTMANAGER\r\n// Governance Contract\r\n// This contract manages\r\n// - User Account Creation\r\n// - Event Creation and Management by the User itself\r\ncontract EventManager {\r\n\r\n    // VARIABLES\r\n    SetStorage.Set                  private user_storage;               // user address storage\r\n    EventStorage.EventSet           private event_storage;              // event storage\r\n\r\n    // address                 payable private admin = 0xad67a760e4Cb77e19F1B7B79d6B4901B5360DEF1;     // admin address (rinkeby)\r\n    address                 payable private admin = 0x367E7e251F63eeccD9Af88121A2C7D9F3cD5168c; // new admin address (ganache)\r\n\r\n    // ADMIN ACCESS\r\n    // only admin can see or change sensible data\r\n    modifier onlyAdmin {\r\n        require(msg.sender == admin, \"Access denied\");\r\n        _;\r\n    }\r\n\r\n    // CONSTRUCTOR\r\n    // this is only called once with the final version\r\n    constructor(address set, address eventSet) public onlyAdmin\r\n    {\r\n        // create users and events sets where the addresses are stored\r\n        user_storage = SetStorage.Set(set);\r\n\r\n        // create event storage set\r\n        event_storage = EventStorage.EventSet(eventSet);\r\n    }\r\n\r\n    /*\r\n    // INIT STORAGE\r\n    // this function must be called immediately after Constructor and helps to save gas costs\r\n    function init_storage() public onlyAdmin\r\n    {\r\n        // create users and events sets where the addresses are stored\r\n        user_storage = new SetStorage.Set();\r\n\r\n        // create event storage set\r\n        event_storage = new EventStorage.EventSet();\r\n    }\r\n    */\r\n\r\n    // EXPORT STORAGE\r\n    // for future upgrades\r\n    function export_storage() public view onlyAdmin returns (address user_storage_address, address event_storage_address)\r\n    {\r\n        return (address(user_storage), address(event_storage));\r\n    }\r\n\r\n\r\n    // USER MANAGEMENT\r\n\r\n    // user authentication\r\n    // only a user has access to his account, events, etc\r\n    modifier onlyUser {\r\n        require(user_storage.inArray(msg.sender), \"Access is only allowed for registered users\");\r\n        _;\r\n    }\r\n\r\n    // user login status\r\n    // access: everybody - every user has to log in\r\n    function login() public view returns(bool is_user)\r\n    {\r\n        // return login status\r\n        return user_storage.inArray(msg.sender);\r\n    }\r\n\r\n    // user registration\r\n    // access: everybody can register\r\n    function register() public\r\n    returns (uint user_id)\r\n    {\r\n        // user address\r\n        address payable user_address = msg.sender;\r\n\r\n        // check if user is already registered\r\n        require(!user_storage.inArray(user_address), \"User already registered\");\r\n\r\n        // register new user\r\n        user_storage.addToArray(user_address);\r\n\r\n        // return user id\r\n        return user_storage.getPosition(user_address);\r\n    }\r\n\r\n    // get user count\r\n    // access: admin only\r\n    function getUserCount() public view onlyAdmin returns(uint256 user_count)\r\n    {\r\n        return user_storage.getElementCount();\r\n    }\r\n\r\n    // get user address by id\r\n    // access: admin only\r\n    function getUserById(uint256 id) public view onlyAdmin returns(address payable user_address)\r\n    {\r\n        return payable(user_storage.getByPosition(id));\r\n    }\r\n\r\n\r\n    // EVENT MANAGEMENT\r\n\r\n    // event creation\r\n    // access: user only\r\n    function createUserEvent(\r\n        string memory event_name,\r\n        string memory event_location,\r\n        uint256 event_start_time,\r\n        uint256 event_end_time\r\n    ) public onlyUser returns (address new_event_address)\r\n    {\r\n        // new event\r\n        EventContract.Event new_event = new EventContract.Event(msg.sender, event_name, event_location, event_start_time, event_end_time);\r\n\r\n        // add event to event storage\r\n        event_storage.addToArray(new_event);\r\n\r\n        // add event address to event address storage\r\n        // event_address_storage.addToArray(address(new_event));\r\n\r\n        // return event address\r\n        return address(new_event);\r\n    }\r\n\r\n\r\n    // get event count\r\n    // access: admin only\r\n    function getEventCount() public view onlyAdmin returns(uint256 event_count)\r\n    {\r\n        return event_storage.getElementCount();\r\n    }\r\n\r\n    // get event by id\r\n    // access: admin only\r\n    function getEventById(uint event_id) public view onlyAdmin returns(EventContract.Event event_element)\r\n    {\r\n        return event_storage.getByPosition(event_id);\r\n    }\r\n\r\n    // get event position\r\n    // access: user only\r\n    function getEventPosition(address event_address) public view onlyUser returns(uint event_position)\r\n    {\r\n        return event_storage.getPosition(event_address);\r\n    }\r\n\r\n    // get event info\r\n    // access: user only\r\n    function getEventInfo(EventContract.Event event_address) public view onlyUser\r\n    returns(\r\n        address         event_id,\r\n        address         event_initiator,\r\n        string memory   event_name,\r\n        string memory   event_location,\r\n        uint256         event_start_time,\r\n        uint256         event_end_time,\r\n        uint256         event_created_time,\r\n        SetStorage.Set  event_participants\r\n    ) {\r\n        // return event info\r\n        return event_address.getInfo();\r\n    }\r\n\r\n    // get all events\r\n    // access: admin only\r\n    function getAllEvents() public view onlyAdmin returns(EventContract.Event[] memory all_events)\r\n    {\r\n        // return event array\r\n        return event_storage.getEventArray();\r\n    }\r\n\r\n    // get user events\r\n    // access: user only\r\n    function getUserEvents() public view onlyUser returns(address[] memory user_events)\r\n    {\r\n        // return user event array\r\n        return event_storage.getUserEventArray(msg.sender, false);\r\n    }\r\n\r\n    // get events where user participates\r\n    // access: user only\r\n    function getUserParticipantEvents() public view onlyUser returns(address[] memory user_participant_events)\r\n    {\r\n        // return user participant event array\r\n        return event_storage.getUserEventArray(msg.sender, true);\r\n    }\r\n\r\n    // participate at an event\r\n    // access: user only\r\n    function participateEventById(EventContract.Event event_address) public onlyUser\r\n    {\r\n        // participate at an event\r\n        event_address.participate(msg.sender);\r\n    }\r\n\r\n    // get event participants\r\n    // access: user only\r\n    function getEventParticipants(EventContract.Event event_address) public view onlyUser returns(address[] memory participants_array)\r\n    {\r\n        return event_address.getParticipantsArray();\r\n    }\r\n\r\n    // remove event participant\r\n    // access onlyUser\r\n    function removeParticipant(EventContract.Event event_address, address participant) public onlyUser\r\n    {\r\n        event_address.removeParticipant(msg.sender, participant);\r\n    }\r\n\r\n    // propose new event item\r\n    // access: user only\r\n    function createUserEventItem(EventContract.Event event_address, string memory event_item_name) public onlyUser\r\n    {\r\n        // create a new item\r\n        event_address.proposeItemToBringWith(msg.sender, event_item_name);\r\n    }\r\n\r\n    // get event item info\r\n    // access: user only\r\n    function getEventItemInfo(EventContract.Event event_address, uint event_item_id) public view onlyUser\r\n    returns (\r\n        uint256                 item_id,\r\n        address     payable     item_holder,\r\n        string      memory      item_name,\r\n        uint256                 item_time_expiration,\r\n        bool                    item_checked\r\n    )\r\n    {\r\n        return event_address.getItemInfo(event_item_id);\r\n    }\r\n\r\n    // get event item count\r\n    // access: user only\r\n    function getEventItemCount(EventContract.Event event_address) public view onlyUser\r\n    returns (uint item_count)\r\n    {\r\n        return event_address.getItemCount();\r\n    }\r\n\r\n    // update item state\r\n    // access: user only\r\n    function updateEventItemState(EventContract.Event event_address, uint item_id) public onlyUser\r\n    {\r\n        event_address.updatePartyItemCheck(msg.sender, item_id);\r\n    }\r\n\r\n    // remove event item\r\n    // access: user only\r\n    function removeEventItem(EventContract.Event event_address, uint event_item_id) public onlyUser\r\n    {\r\n        event_address.deletePartyItem(msg.sender, event_item_id);\r\n    }\r\n\r\n    // remove event\r\n    // access: user only\r\n    function removeEvent(EventContract.Event event_address) public onlyUser\r\n    {\r\n        event_storage.removeFromArray(event_address, msg.sender);\r\n    }\r\n\r\n}",
  "sourcePath": "C:/Users/Blockchain FWPM/Desktop/N/solidity/src/eventManagerTruffle/contracts/EventManager.sol",
  "compiler": {
    "name": "solc",
    "version": "0.6.7+commit.b8d736ae.Emscripten.clang"
  },
  "schemaVersion": "3.2.2",
  "updatedAt": "2020-07-23T11:15:27.977Z",
  "devdoc": {
    "methods": {}
  },
  "userdoc": {
    "methods": {}
  }
}