{
  "contractName": "Event",
  "abi": [
    {
      "inputs": [
        {
          "internalType": "address payable",
          "name": "event_creator",
          "type": "address"
        },
        {
          "internalType": "string",
          "name": "event_name",
          "type": "string"
        },
        {
          "internalType": "string",
          "name": "event_location",
          "type": "string"
        },
        {
          "internalType": "uint256",
          "name": "start_time",
          "type": "uint256"
        },
        {
          "internalType": "uint256",
          "name": "end_time",
          "type": "uint256"
        }
      ],
      "stateMutability": "nonpayable",
      "type": "constructor"
    },
    {
      "inputs": [],
      "name": "getInfo",
      "outputs": [
        {
          "internalType": "address",
          "name": "event_id",
          "type": "address"
        },
        {
          "internalType": "address",
          "name": "event_initiator",
          "type": "address"
        },
        {
          "internalType": "string",
          "name": "event_name",
          "type": "string"
        },
        {
          "internalType": "string",
          "name": "event_location",
          "type": "string"
        },
        {
          "internalType": "uint256",
          "name": "event_start_time",
          "type": "uint256"
        },
        {
          "internalType": "uint256",
          "name": "event_end_time",
          "type": "uint256"
        },
        {
          "internalType": "uint256",
          "name": "event_created_time",
          "type": "uint256"
        },
        {
          "internalType": "contract Set",
          "name": "event_participants",
          "type": "address"
        }
      ],
      "stateMutability": "view",
      "type": "function"
    },
    {
      "inputs": [],
      "name": "getId",
      "outputs": [
        {
          "internalType": "address",
          "name": "event_id",
          "type": "address"
        }
      ],
      "stateMutability": "view",
      "type": "function"
    },
    {
      "inputs": [],
      "name": "getInitiator",
      "outputs": [
        {
          "internalType": "address",
          "name": "event_initiator",
          "type": "address"
        }
      ],
      "stateMutability": "view",
      "type": "function"
    },
    {
      "inputs": [],
      "name": "getParticipants",
      "outputs": [
        {
          "internalType": "contract Set",
          "name": "event_participants",
          "type": "address"
        }
      ],
      "stateMutability": "view",
      "type": "function"
    },
    {
      "inputs": [],
      "name": "getName",
      "outputs": [
        {
          "internalType": "string",
          "name": "event_name",
          "type": "string"
        }
      ],
      "stateMutability": "view",
      "type": "function"
    },
    {
      "inputs": [],
      "name": "getDescription",
      "outputs": [
        {
          "internalType": "string",
          "name": "event_description",
          "type": "string"
        }
      ],
      "stateMutability": "view",
      "type": "function"
    },
    {
      "inputs": [],
      "name": "getLocation",
      "outputs": [
        {
          "internalType": "string",
          "name": "event_location",
          "type": "string"
        }
      ],
      "stateMutability": "view",
      "type": "function"
    },
    {
      "inputs": [],
      "name": "getTimeCreated",
      "outputs": [
        {
          "internalType": "uint256",
          "name": "event_time_created",
          "type": "uint256"
        }
      ],
      "stateMutability": "view",
      "type": "function"
    },
    {
      "inputs": [],
      "name": "getTimeStart",
      "outputs": [
        {
          "internalType": "uint256",
          "name": "event_time_start",
          "type": "uint256"
        }
      ],
      "stateMutability": "view",
      "type": "function"
    },
    {
      "inputs": [],
      "name": "getTimeEnd",
      "outputs": [
        {
          "internalType": "uint256",
          "name": "event_time_end",
          "type": "uint256"
        }
      ],
      "stateMutability": "view",
      "type": "function"
    },
    {
      "inputs": [],
      "name": "getExpirationTime",
      "outputs": [
        {
          "internalType": "uint256",
          "name": "event_time_expiration",
          "type": "uint256"
        }
      ],
      "stateMutability": "view",
      "type": "function"
    },
    {
      "inputs": [],
      "name": "getManager",
      "outputs": [
        {
          "internalType": "address",
          "name": "event_manager",
          "type": "address"
        }
      ],
      "stateMutability": "view",
      "type": "function"
    },
    {
      "inputs": [
        {
          "internalType": "address payable",
          "name": "participant",
          "type": "address"
        }
      ],
      "name": "participate",
      "outputs": [],
      "stateMutability": "nonpayable",
      "type": "function"
    },
    {
      "inputs": [],
      "name": "getParticipantsArray",
      "outputs": [
        {
          "internalType": "address[]",
          "name": "event_participants",
          "type": "address[]"
        }
      ],
      "stateMutability": "view",
      "type": "function"
    },
    {
      "inputs": [
        {
          "internalType": "address",
          "name": "remove_participant",
          "type": "address"
        }
      ],
      "name": "removeParticipant",
      "outputs": [],
      "stateMutability": "nonpayable",
      "type": "function"
    },
    {
      "inputs": [
        {
          "internalType": "string",
          "name": "new_name",
          "type": "string"
        }
      ],
      "name": "updateName",
      "outputs": [],
      "stateMutability": "nonpayable",
      "type": "function"
    },
    {
      "inputs": [
        {
          "internalType": "string",
          "name": "new_location",
          "type": "string"
        }
      ],
      "name": "updateLocation",
      "outputs": [],
      "stateMutability": "nonpayable",
      "type": "function"
    },
    {
      "inputs": [
        {
          "internalType": "string",
          "name": "new_description",
          "type": "string"
        }
      ],
      "name": "setDescription",
      "outputs": [],
      "stateMutability": "nonpayable",
      "type": "function"
    },
    {
      "inputs": [
        {
          "internalType": "uint256",
          "name": "time",
          "type": "uint256"
        }
      ],
      "name": "setStartTime",
      "outputs": [],
      "stateMutability": "nonpayable",
      "type": "function"
    },
    {
      "inputs": [
        {
          "internalType": "uint256",
          "name": "time",
          "type": "uint256"
        }
      ],
      "name": "setEndTime",
      "outputs": [],
      "stateMutability": "nonpayable",
      "type": "function"
    },
    {
      "inputs": [
        {
          "internalType": "uint256",
          "name": "time",
          "type": "uint256"
        }
      ],
      "name": "setExpirationTime",
      "outputs": [],
      "stateMutability": "nonpayable",
      "type": "function"
    },
    {
      "inputs": [
        {
          "internalType": "address payable",
          "name": "user",
          "type": "address"
        }
      ],
      "name": "isInitiator",
      "outputs": [
        {
          "internalType": "bool",
          "name": "is_initiator",
          "type": "bool"
        }
      ],
      "stateMutability": "view",
      "type": "function"
    },
    {
      "inputs": [
        {
          "internalType": "address payable",
          "name": "user",
          "type": "address"
        }
      ],
      "name": "isParticipant",
      "outputs": [
        {
          "internalType": "bool",
          "name": "is_participant",
          "type": "bool"
        }
      ],
      "stateMutability": "view",
      "type": "function"
    },
    {
      "inputs": [
        {
          "internalType": "address payable",
          "name": "user_address",
          "type": "address"
        },
        {
          "internalType": "string",
          "name": "item_name",
          "type": "string"
        }
      ],
      "name": "proposeItemToBringWith",
      "outputs": [],
      "stateMutability": "nonpayable",
      "type": "function"
    },
    {
      "inputs": [],
      "name": "getItemCount",
      "outputs": [
        {
          "internalType": "uint256",
          "name": "item_count",
          "type": "uint256"
        }
      ],
      "stateMutability": "view",
      "type": "function"
    },
    {
      "inputs": [
        {
          "internalType": "uint256",
          "name": "party_item_id",
          "type": "uint256"
        }
      ],
      "name": "getItemInfo",
      "outputs": [
        {
          "internalType": "uint256",
          "name": "item_id",
          "type": "uint256"
        },
        {
          "internalType": "address payable",
          "name": "item_holder",
          "type": "address"
        },
        {
          "internalType": "string",
          "name": "item_name",
          "type": "string"
        },
        {
          "internalType": "uint256",
          "name": "item_time_expiration",
          "type": "uint256"
        },
        {
          "internalType": "bool",
          "name": "item_checked",
          "type": "bool"
        }
      ],
      "stateMutability": "view",
      "type": "function"
    },
    {
      "inputs": [
        {
          "internalType": "uint256",
          "name": "party_item_id",
          "type": "uint256"
        }
      ],
      "name": "itemExists",
      "outputs": [
        {
          "internalType": "bool",
          "name": "item_exists",
          "type": "bool"
        }
      ],
      "stateMutability": "view",
      "type": "function"
    },
    {
      "inputs": [
        {
          "internalType": "uint256",
          "name": "party_item_id",
          "type": "uint256"
        }
      ],
      "name": "getItemHolder",
      "outputs": [
        {
          "internalType": "address payable",
          "name": "item_holder",
          "type": "address"
        }
      ],
      "stateMutability": "view",
      "type": "function"
    },
    {
      "inputs": [
        {
          "internalType": "uint256",
          "name": "party_item_id",
          "type": "uint256"
        }
      ],
      "name": "getItemName",
      "outputs": [
        {
          "internalType": "string",
          "name": "item_name",
          "type": "string"
        }
      ],
      "stateMutability": "view",
      "type": "function"
    },
    {
      "inputs": [
        {
          "internalType": "uint256",
          "name": "party_item_id",
          "type": "uint256"
        }
      ],
      "name": "getItemExpirationTime",
      "outputs": [
        {
          "internalType": "uint256",
          "name": "item_expiration_time",
          "type": "uint256"
        }
      ],
      "stateMutability": "view",
      "type": "function"
    },
    {
      "inputs": [
        {
          "internalType": "uint256",
          "name": "party_item_id",
          "type": "uint256"
        }
      ],
      "name": "isItemChecked",
      "outputs": [
        {
          "internalType": "bool",
          "name": "is_item_checked",
          "type": "bool"
        }
      ],
      "stateMutability": "view",
      "type": "function"
    },
    {
      "inputs": [
        {
          "internalType": "uint256",
          "name": "party_item_id",
          "type": "uint256"
        },
        {
          "internalType": "address",
          "name": "potential_holder",
          "type": "address"
        }
      ],
      "name": "isItemHolder",
      "outputs": [
        {
          "internalType": "bool",
          "name": "is_item_holder",
          "type": "bool"
        }
      ],
      "stateMutability": "view",
      "type": "function"
    },
    {
      "inputs": [],
      "name": "getAllPartyItems",
      "outputs": [
        {
          "components": [
            {
              "internalType": "uint256",
              "name": "id",
              "type": "uint256"
            },
            {
              "internalType": "address payable",
              "name": "holder",
              "type": "address"
            },
            {
              "internalType": "string",
              "name": "name",
              "type": "string"
            },
            {
              "internalType": "uint256",
              "name": "time_expiration",
              "type": "uint256"
            },
            {
              "internalType": "bool",
              "name": "checked",
              "type": "bool"
            }
          ],
          "internalType": "struct Event.PartyItem[]",
          "name": "all_party_items",
          "type": "tuple[]"
        }
      ],
      "stateMutability": "view",
      "type": "function"
    },
    {
      "inputs": [
        {
          "internalType": "address payable",
          "name": "user_address",
          "type": "address"
        },
        {
          "internalType": "uint256",
          "name": "party_item_id",
          "type": "uint256"
        }
      ],
      "name": "updatePartyItemCheck",
      "outputs": [],
      "stateMutability": "nonpayable",
      "type": "function"
    },
    {
      "inputs": [
        {
          "internalType": "address payable",
          "name": "user_address",
          "type": "address"
        },
        {
          "internalType": "uint256",
          "name": "party_item_id",
          "type": "uint256"
        }
      ],
      "name": "deletePartyItem",
      "outputs": [],
      "stateMutability": "nonpayable",
      "type": "function"
    }
  ],
  "bytecode": "0x60806040523480156200001157600080fd5b506040516200305e3803806200305e8339810160408190526200003491620002df565b60008054600160a060020a0319908116301790915560028054600160a060020a038816908316179055600180549091163317905583516200007d90600490602087019062000185565b5082516200009390600690602086019062000185565b504260075560088290556009819055600a829055604051620000b5906200020a565b604051809103906000f080158015620000d2573d6000803e3d6000fd5b5060038054600160a060020a031916600160a060020a0392909216919091179055600954600854106200013c576040517f08c379a00000000000000000000000000000000000000000000000000000000081526004016200013390620003d5565b60405180910390fd5b42600854116200017a576040517f08c379a0000000000000000000000000000000000000000000000000000000008152600401620001339062000378565b505050505062000432565b828054600181600116156101000203166002900490600052602060002090601f016020900481019282601f10620001c857805160ff1916838001178555620001f8565b82800160010185558215620001f8579182015b82811115620001f8578251825591602001919060010190620001db565b506200020692915062000218565b5090565b6108be80620027a083390190565b6200023591905b808211156200020657600081556001016200021f565b90565b600082601f83011262000249578081fd5b81516001604060020a038082111562000260578283fd5b6040516020601f8401601f191682018101838111838210171562000282578586fd5b806040525081945083825286818588010111156200029f57600080fd5b600092505b83831015620002c35785830181015182840182015291820191620002a4565b83831115620002d55760008185840101525b5050505092915050565b600080600080600060a08688031215620002f7578081fd5b8551600160a060020a03811681146200030e578182fd5b60208701519095506001604060020a03808211156200032b578283fd5b6200033989838a0162000238565b955060408801519150808211156200034f578283fd5b506200035e8882890162000238565b606088015160809098015196999598509695949350505050565b60208082526026908201527f6576656e742073746172742074696d65206d75737420626520696e207468652060408201527f6675747572650000000000000000000000000000000000000000000000000000606082015260800190565b60208082526028908201527f6576656e742073746172742074696d65206d757374206265206265666f72652060408201527f656e642074696d65000000000000000000000000000000000000000000000000606082015260800190565b61235e80620004426000396000f3fe608060405234801561001057600080fd5b506004361061025e576000357c0100000000000000000000000000000000000000000000000000000000900480638d25821211610162578063c94d0a48116100da578063d9561a91116100a9578063ded7374c1161008e578063ded7374c146104a7578063e23a845a146104ba578063e5b0c5a7146104c25761025e565b8063d9561a9114610470578063de7fe3e7146104835761025e565b8063c94d0a4814610438578063ccb98ffc1461044d578063ce2ce3fc14610460578063d5009584146104685761025e565b8063a2221ffc11610131578063b22c36d511610116578063b22c36d51461040a578063b91038c714610412578063c0cc365d146104255761025e565b8063a2221ffc146103ef578063a650f684146103f75761025e565b80638d258212146103a357806390c3f38f146103b6578063929066f5146103c9578063932354c1146103dc5761025e565b80635d1ca631116101f5578063843bd641116101c457806384de1ea5116101a957806384de1ea5146103805780638ab77ed5146103885780638b915c251461039b5761025e565b8063843bd6411461035a57806384da92a71461036d5761025e565b80635d1ca63114610322578063668a20011461032a5780637749cf231461033d57806383707647146103455761025e565b806338a730611161023157806338a73061146102c95780633e0a322d146102e95780635a9b0b89146102fe5780635aa68ac01461031a5761025e565b806305111c1e1461026357806317d7de7c1461028c5780631a092541146102a15780632e141e90146102a9575b600080fd5b610276610271366004611d51565b6104d5565b6040516102839190611de3565b60405180910390f35b61029461055d565b6040516102839190611fa8565b6102946105f4565b6102bc6102b7366004611d51565b610655565b6040516102839190611f9d565b6102dc6102d7366004611d51565b6106c1565b6040516102839190612268565b6102fc6102f7366004611d51565b610729565b005b610306610796565b604051610283989796959493929190611e04565b61027661091a565b610276610936565b6102fc610338366004611baf565b610952565b6102dc610a1c565b61034d610a65565b6040516102839190611ed5565b6102bc610368366004611d51565b610bde565b6102fc61037b366004611d16565b610c31565b610276610c87565b6102fc610396366004611bd2565b610ca3565b6102dc610e65565b6102fc6103b1366004611c20565b610e6b565b6102fc6103c4366004611d16565b6110d4565b6102bc6103d7366004611baf565b611126565b6102fc6103ea366004611d16565b6111cd565b6102dc61121f565b6102fc610405366004611c20565b611225565b6102dc611326565b6102fc610420366004611baf565b61132c565b6102fc610433366004611d51565b61142d565b61044061149b565b6040516102839190611e7b565b6102fc61045b366004611d51565b611547565b6102946115b4565b610276611615565b61029461047e366004611d51565b611674565b610496610491366004611d51565b611767565b604051610283959493929190612271565b6102bc6104b5366004611d69565b611940565b6102dc6119c0565b6102bc6104d0366004611baf565b6119c6565b60015460009073ffffffffffffffffffffffffffffffffffffffff16331461052057604051600080516020612309833981519152815260040161051790611fbb565b60405180910390fd5b600b828154811061052d57fe5b600091825260209091206005909102016001015473ffffffffffffffffffffffffffffffffffffffff1692915050565b60048054604080516020601f60026000196101006001881615020190951694909404938401819004810282018101909252828152606093909290918301828280156105e95780601f106105be576101008083540402835291602001916105e9565b820191906000526020600020905b8154815290600101906020018083116105cc57829003601f168201915b505050505090505b90565b60058054604080516020601f60026000196101006001881615020190951694909404938401819004810282018101909252828152606093909290918301828280156105e95780601f106105be576101008083540402835291602001916105e9565b60015460009073ffffffffffffffffffffffffffffffffffffffff16331461069757604051600080516020612309833981519152815260040161051790611fbb565b600b82815481106106a457fe5b600091825260209091206005909102016004015460ff1692915050565b60015460009073ffffffffffffffffffffffffffffffffffffffff16331461070357604051600080516020612309833981519152815260040161051790611fbb565b600b828154811061071057fe5b9060005260206000209060050201600301549050919050565b60015473ffffffffffffffffffffffffffffffffffffffff16331461076857604051600080516020612309833981519152815260040161051790611fbb565b60095481106107915760405160008051602061230983398151915281526004016105179061220b565b600855565b6000805460028054600854600954600754600354600480546040805160206101006001851615026000190190931699909904601f810183900483028a0183019091528089528a996060998a998c998a998a998a9973ffffffffffffffffffffffffffffffffffffffff96871699948716989497600697949693959294909116929188919083018282801561086b5780601f106108405761010080835404028352916020019161086b565b820191906000526020600020905b81548152906001019060200180831161084e57829003601f168201915b5050885460408051602060026001851615610100026000190190941693909304601f8101849004840282018401909252818152959b508a9450925084019050828280156108f95780601f106108ce576101008083540402835291602001916108f9565b820191906000526020600020905b8154815290600101906020018083116108dc57829003601f168201915b50505050509450975097509750975097509750975097509091929394959697565b60035473ffffffffffffffffffffffffffffffffffffffff1690565b60005473ffffffffffffffffffffffffffffffffffffffff1690565b60015473ffffffffffffffffffffffffffffffffffffffff16331461099157604051600080516020612309833981519152815260040161051790611fbb565b6003546040517ff033520500000000000000000000000000000000000000000000000000000000815273ffffffffffffffffffffffffffffffffffffffff9091169063f0335205906109e7908490600401611de3565b600060405180830381600087803b158015610a0157600080fd5b505af1158015610a15573d6000803e3d6000fd5b5050505050565b60015460009073ffffffffffffffffffffffffffffffffffffffff163314610a5e57604051600080516020612309833981519152815260040161051790611fbb565b50600b5490565b60015460609073ffffffffffffffffffffffffffffffffffffffff163314610aa757604051600080516020612309833981519152815260040161051790611fbb565b600b805480602002602001604051908101604052809291908181526020016000905b82821015610bd55760008481526020908190206040805160a081018252600586029092018054835260018082015473ffffffffffffffffffffffffffffffffffffffff16848601526002808301805485516101009482161594909402600019011691909104601f8101879004870283018701855280835294959294938601939192909190830182828015610b9e5780601f10610b7357610100808354040283529160200191610b9e565b820191906000526020600020905b815481529060010190602001808311610b8157829003601f168201915b5050509183525050600382015460208083019190915260049092015460ff1615156040909101529082526001929092019101610ac9565b50505050905090565b60015460009073ffffffffffffffffffffffffffffffffffffffff163314610c2057604051600080516020612309833981519152815260040161051790611fbb565b610c28610a1c565b82105b92915050565b60015473ffffffffffffffffffffffffffffffffffffffff163314610c7057604051600080516020612309833981519152815260040161051790611fbb565b8051610c839060049060208401906119e7565b5050565b60025473ffffffffffffffffffffffffffffffffffffffff1690565b60015473ffffffffffffffffffffffffffffffffffffffff163314610ce257604051600080516020612309833981519152815260040161051790611fbb565b60025473ffffffffffffffffffffffffffffffffffffffff83811691161480610d0f5750610d0f82611126565b610d33576040516000805160206123098339815191528152600401610517906120e3565b6000610d3d610a1c565b6040805160a08101825282815273ffffffffffffffffffffffffffffffffffffffff8681166020808401918252938301878152600a546060850152600060808501819052600b8054600181018255915284517f0175b7a638427703f0dbe7bb9bbf987a2551717b34e79f33b5b1008d1fa01db9600590920291820190815592517f0175b7a638427703f0dbe7bb9bbf987a2551717b34e79f33b5b1008d1fa01dba8201805473ffffffffffffffffffffffffffffffffffffffff1916919095161790935551805195965092949093610e3b937f0175b7a638427703f0dbe7bb9bbf987a2551717b34e79f33b5b1008d1fa01dbb9093019201906119e7565b50606082015160038201556080909101516004909101805460ff1916911515919091179055505050565b60085490565b60015473ffffffffffffffffffffffffffffffffffffffff163314610eaa57604051600080516020612309833981519152815260040161051790611fbb565b60025473ffffffffffffffffffffffffffffffffffffffff83811691161480610ed85750610ed88183611940565b610efc5760405160008051602061230983398151915281526004016105179061204f565b610f0581610bde565b610f2957604051600080516020612309833981519152815260040161051790612177565b600b8181548110610f3657fe5b60009182526020822060059091020181815560018101805473ffffffffffffffffffffffffffffffffffffffff1916905590610f756002830182611a65565b5060006003820155600401805460ff19169055805b600b546000190181101561106a57600b8160010181548110610fa857fe5b9060005260206000209060050201600b8281548110610fc357fe5b600091825260209091208254600590920201908155600180830154818301805473ffffffffffffffffffffffffffffffffffffffff191673ffffffffffffffffffffffffffffffffffffffff9092169190911790556002808401805461103c938386019390821615610100026000190190911604611aac565b50600382810154908201556004918201549101805460ff191660ff9092161515919091179055600101610f8a565b50600b80548061107657fe5b60008281526020812060056000199093019283020181815560018101805473ffffffffffffffffffffffffffffffffffffffff19169055906110bb6002830182611a65565b5060006003820155600401805460ff1916905590555050565b60015473ffffffffffffffffffffffffffffffffffffffff16331461111357604051600080516020612309833981519152815260040161051790611fbb565b8051610c839060059060208401906119e7565b6003546040517fdeac465900000000000000000000000000000000000000000000000000000000815260009173ffffffffffffffffffffffffffffffffffffffff169063deac46599061117d908590600401611de3565b60206040518083038186803b15801561119557600080fd5b505afa1580156111a9573d6000803e3d6000fd5b505050506040513d601f19601f82011682018060405250810190610c2b9190611cf6565b60015473ffffffffffffffffffffffffffffffffffffffff16331461120c57604051600080516020612309833981519152815260040161051790611fbb565b8051610c839060069060208401906119e7565b60095490565b60015473ffffffffffffffffffffffffffffffffffffffff16331461126457604051600080516020612309833981519152815260040161051790611fbb565b60025473ffffffffffffffffffffffffffffffffffffffff8381169116148061129257506112928183611940565b6112b65760405160008051602061230983398151915281526004016105179061204f565b6112bf81610bde565b6112e357604051600080516020612309833981519152815260040161051790612177565b60006112ee82610655565b90508015600b83815481106112ff57fe5b60009182526020909120600590910201600401805460ff1916911515919091179055505050565b60075490565b60015473ffffffffffffffffffffffffffffffffffffffff16331461136b57604051600080516020612309833981519152815260040161051790611fbb565b60025473ffffffffffffffffffffffffffffffffffffffff828116911614156113ae576040516000805160206123098339815191528152600401610517906120ac565b42600a54116113d757604051600080516020612309833981519152815260040161051790612018565b6003546040517f243d922000000000000000000000000000000000000000000000000000000000815273ffffffffffffffffffffffffffffffffffffffff9091169063243d9220906109e7908490600401611de3565b60015473ffffffffffffffffffffffffffffffffffffffff16331461146c57604051600080516020612309833981519152815260040161051790611fbb565b600854811115611496576040516000805160206123098339815191528152600401610517906121ae565b600a55565b600354604080517fd504ea1d000000000000000000000000000000000000000000000000000000008152905160609273ffffffffffffffffffffffffffffffffffffffff169163d504ea1d916004808301926000929190829003018186803b15801561150657600080fd5b505afa15801561151a573d6000803e3d6000fd5b505050506040513d6000823e601f3d908101601f191682016040526115429190810190611c4b565b905090565b60015473ffffffffffffffffffffffffffffffffffffffff16331461158657604051600080516020612309833981519152815260040161051790611fbb565b60085481116115af5760405160008051602061230983398151915281526004016105179061211a565b600955565b60068054604080516020601f60026000196101006001881615020190951694909404938401819004810282018101909252828152606093909290918301828280156105e95780601f106105be576101008083540402835291602001916105e9565b60015460009073ffffffffffffffffffffffffffffffffffffffff16331461165757604051600080516020612309833981519152815260040161051790611fbb565b5060015473ffffffffffffffffffffffffffffffffffffffff1690565b60015460609073ffffffffffffffffffffffffffffffffffffffff1633146116b657604051600080516020612309833981519152815260040161051790611fbb565b600b82815481106116c357fe5b600091825260209182902060026005909202018101805460408051601f60001961010060018616150201909316949094049182018590048502840185019052808352919290919083018282801561175b5780601f106117305761010080835404028352916020019161175b565b820191906000526020600020905b81548152906001019060200180831161173e57829003601f168201915b50505050509050919050565b60015460009081906060908290819073ffffffffffffffffffffffffffffffffffffffff1633146117b257604051600080516020612309833981519152815260040161051790611fbb565b6117bb86610bde565b6117df57604051600080516020612309833981519152815260040161051790612177565b600b86815481106117ec57fe5b906000526020600020906005020160000154600b878154811061180b57fe5b906000526020600020906005020160010160009054906101000a900473ffffffffffffffffffffffffffffffffffffffff16600b888154811061184a57fe5b9060005260206000209060050201600201600b898154811061186857fe5b906000526020600020906005020160030154600b8a8154811061188757fe5b600091825260209182902060046005909202010154835460408051601f6002600019600186161561010002019094169390930492830185900485028101850190915281815260ff909216928591908301828280156119265780601f106118fb57610100808354040283529160200191611926565b820191906000526020600020905b81548152906001019060200180831161190957829003601f168201915b505050505092509450945094509450945091939590929450565b60015460009073ffffffffffffffffffffffffffffffffffffffff16331461198257604051600080516020612309833981519152815260040161051790611fbb565b8173ffffffffffffffffffffffffffffffffffffffff166119a2846104d5565b73ffffffffffffffffffffffffffffffffffffffff16149392505050565b600a5490565b60025473ffffffffffffffffffffffffffffffffffffffff90811691161490565b828054600181600116156101000203166002900490600052602060002090601f016020900481019282601f10611a2857805160ff1916838001178555611a55565b82800160010185558215611a55579182015b82811115611a55578251825591602001919060010190611a3a565b50611a61929150611b21565b5090565b50805460018160011615610100020316600290046000825580601f10611a8b5750611aa9565b601f016020900490600052602060002090810190611aa99190611b21565b50565b828054600181600116156101000203166002900490600052602060002090601f016020900481019282601f10611ae55780548555611a55565b82800160010185558215611a5557600052602060002091601f016020900482015b82811115611a55578254825591600101919060010190611b06565b6105f191905b80821115611a615760008155600101611b27565b8051610c2b816122e6565b600082601f830112611b56578081fd5b813567ffffffffffffffff811115611b6c578182fd5b611b7f6020601f19601f840116016122bf565b9150808252836020828501011115611b9657600080fd5b8060208401602084013760009082016020015292915050565b600060208284031215611bc0578081fd5b8135611bcb816122e6565b9392505050565b60008060408385031215611be4578081fd5b8235611bef816122e6565b9150602083013567ffffffffffffffff811115611c0a578182fd5b611c1685828601611b46565b9150509250929050565b60008060408385031215611c32578182fd5b8235611c3d816122e6565b946020939093013593505050565b60006020808385031215611c5d578182fd5b825167ffffffffffffffff80821115611c74578384fd5b81850186601f820112611c85578485fd5b8051925081831115611c95578485fd5b8383029150611ca58483016122bf565b8381528481019082860184840187018a1015611cbf578788fd5b8794505b85851015611ce957611cd58a82611b3b565b835260019490940193918601918601611cc3565b5098975050505050505050565b600060208284031215611d07578081fd5b81518015158114611bcb578182fd5b600060208284031215611d27578081fd5b813567ffffffffffffffff811115611d3d578182fd5b611d4984828501611b46565b949350505050565b600060208284031215611d62578081fd5b5035919050565b60008060408385031215611d7b578182fd5b823591506020830135611d8d816122e6565b809150509250929050565b60008151808452815b81811015611dbd57602081850181015186830182015201611da1565b81811115611dce5782602083870101525b50601f01601f19169290920160200192915050565b73ffffffffffffffffffffffffffffffffffffffff91909116815260200190565b600061010073ffffffffffffffffffffffffffffffffffffffff808c168452808b166020850152816040850152611e3d8285018b611d98565b8481036060860152611e4f818b611d98565b9350508760808501528660a08501528560c085015280851660e085015250509998505050505050505050565b6020808252825182820181905260009190848201906040850190845b81811015611ec957835173ffffffffffffffffffffffffffffffffffffffff1683529284019291840191600101611e97565b50909695505050505050565b60208082528251828201819052600091906040908185019080840286018301878501865b83811015611f8f577fffffffffffffffffffffffffffffffffffffffffffffffffffffffffffffffc0898403018552815160a08151855273ffffffffffffffffffffffffffffffffffffffff898301511689860152878201518189870152611f6382870182611d98565b606084810151908801526080938401511515939096019290925250509386019390860190600101611ef9565b509098975050505050505050565b901515815260200190565b600060208252611bcb6020830184611d98565b60208082526023908201527f416363657373206973206f6e6c7920616c6c6f77656420666f72206d616e616760408201527f65722e0000000000000000000000000000000000000000000000000000000000606082015260800190565b60208082526010908201527f6576656e74206973206578706972656400000000000000000000000000000000604082015260600190565b60208082526027908201527f55736572206973206e6f7420616c6c6f77656420746f2075706461746520697460408201527f656d20696e666f00000000000000000000000000000000000000000000000000606082015260800190565b6020808252601d908201527f796f752061726520616c72656164792074686520696e69746961746f72000000604082015260600190565b60208082526017908201527f55736572206973206e6f74207061727469636970616e74000000000000000000604082015260600190565b60208082526027908201527f6576656e7420656e642074696d65206d7573742062652061667465722073746160408201527f72742074696d6500000000000000000000000000000000000000000000000000606082015260800190565b60208082526013908201527f4974656d20646f6573206e6f7420657869737400000000000000000000000000604082015260600190565b6020808252602f908201527f6576656e742065787069726174696f6e2074696d65206d75737420626520626560408201527f666f72652073746172742074696d650000000000000000000000000000000000606082015260800190565b60208082526028908201527f6576656e742073746172742074696d65206d757374206265206265666f72652060408201527f656e642074696d65000000000000000000000000000000000000000000000000606082015260800190565b90815260200190565b600086825273ffffffffffffffffffffffffffffffffffffffff8616602083015260a060408301526122a660a0830186611d98565b6060830194909452509015156080909101529392505050565b60405181810167ffffffffffffffff811182821017156122de57600080fd5b604052919050565b73ffffffffffffffffffffffffffffffffffffffff81168114611aa957600080fdfe08c379a000000000000000000000000000000000000000000000000000000000a2646970667358221220ae471358ac10c63e34344ac31c4c7ba863660a6b19b9ec0487456b41bcba8a6b64736f6c63430006070033608060405234801561001057600080fd5b506001805480820182556000919091527fb10e2d527612073b26eecdfd717e6a320cf44b4afac2b0732d9fcbe2b7fa0cf6018054600160a060020a031916905561085f8061005f6000396000f3fe608060405234801561001057600080fd5b506004361061009a576000357c0100000000000000000000000000000000000000000000000000000000900480636714b669116100785780636714b66914610121578063d504ea1d14610167578063deac4659146101bf578063f0335205146102065761009a565b806316c197391461009f578063243d9220146100e45780633ec7685714610119575b600080fd5b6100d2600480360360208110156100b557600080fd5b503573ffffffffffffffffffffffffffffffffffffffff16610239565b60408051918252519081900360200190f35b610117600480360360208110156100fa57600080fd5b503573ffffffffffffffffffffffffffffffffffffffff1661028b565b005b6100d26103fc565b61013e6004803603602081101561013757600080fd5b5035610406565b6040805173ffffffffffffffffffffffffffffffffffffffff9092168252519081900360200190f35b61016f61051b565b60408051602080825283518183015283519192839290830191858101910280838360005b838110156101ab578181015183820152602001610193565b505050509050019250505060405180910390f35b6101f2600480360360208110156101d557600080fd5b503573ffffffffffffffffffffffffffffffffffffffff166105f1565b604080519115158252519081900360200190f35b6101176004803603602081101561021c57600080fd5b503573ffffffffffffffffffffffffffffffffffffffff1661061b565b600073ffffffffffffffffffffffffffffffffffffffff821661025e57506000610286565b5073ffffffffffffffffffffffffffffffffffffffff81166000908152602081905260409020545b919050565b73ffffffffffffffffffffffffffffffffffffffff811661030d57604080517f08c379a000000000000000000000000000000000000000000000000000000000815260206004820152600f60248201527f496e76616c696420616464726573730000000000000000000000000000000000604482015290519081900360640190fd5b610316816105f1565b1561038257604080517f08c379a000000000000000000000000000000000000000000000000000000000815260206004820152601860248201527f4164647265737320616c726561647920696e2041727261790000000000000000604482015290519081900360640190fd5b6001805473ffffffffffffffffffffffffffffffffffffffff90921660008181526020819052604081208490558383018355919091527fb10e2d527612073b26eecdfd717e6a320cf44b4afac2b0732d9fcbe2b7fa0cf6909101805473ffffffffffffffffffffffffffffffffffffffff19169091179055565b6001546000190190565b600080821161047657604080517f08c379a000000000000000000000000000000000000000000000000000000000815260206004820152601760248201527f7468697320696e646578206973206e6f742076616c6964000000000000000000604482015290519081900360640190fd5b60015482106104e657604080517f08c379a000000000000000000000000000000000000000000000000000000000815260206004820152600d60248201527f6f7574206f6620626f756e647300000000000000000000000000000000000000604482015290519081900360640190fd5b600182815481106104f357fe5b60009182526020909120015473ffffffffffffffffffffffffffffffffffffffff1692915050565b6001546060906000190167ffffffffffffffff8111801561053b57600080fd5b50604051908082528060200260200182016040528015610565578160200160208202803683370190505b50905060005b600154600019018110156105ed576001816001018154811061058957fe5b9060005260206000200160009054906101000a900473ffffffffffffffffffffffffffffffffffffffff168282815181106105c057fe5b73ffffffffffffffffffffffffffffffffffffffff9092166020928302919091019091015260010161056b565b5090565b73ffffffffffffffffffffffffffffffffffffffff16600090815260208190526040902054151590565b610624816105f1565b61068f57604080517f08c379a000000000000000000000000000000000000000000000000000000000815260206004820152601460248201527f41646472657373206e6f7420696e204172726179000000000000000000000000604482015290519081900360640190fd5b600061069a82610239565b9050805b600154600019018110156107c457600080600183815481106106bc57fe5b600091825260208083209091015473ffffffffffffffffffffffffffffffffffffffff1683528201929092526040018120546001805491929182919085820190811061070457fe5b600091825260208083209091015473ffffffffffffffffffffffffffffffffffffffff1683528201929092526040019020556001805482820190811061074657fe5b6000918252602090912001546001805473ffffffffffffffffffffffffffffffffffffffff909216918390811061077957fe5b6000918252602090912001805473ffffffffffffffffffffffffffffffffffffffff191673ffffffffffffffffffffffffffffffffffffffff9290921691909117905560010161069e565b5073ffffffffffffffffffffffffffffffffffffffff821660009081526020819052604081205560018054806107f657fe5b6000828152602090208101600019908101805473ffffffffffffffffffffffffffffffffffffffff19169055019055505056fea26469706673582212202199a10505807c3a562768f3970278457fc82b824800732bcc4c529d58c57b1064736f6c63430006070033",
  "immutableReferences": {},
  "source": "pragma solidity ^0.6.7;\r\npragma experimental ABIEncoderV2;\r\n\r\n// import storage\r\nimport \"../contracts/Storage/Set.sol\" as SetStorage;\r\n\r\n// Event contract\r\ncontract Event {\r\n    \r\n    // variables\r\n    address                     private id;                         // contract address of the event \r\n    address             payable private manager;                    // event manager contract address\r\n    address             payable private initiator;                  // owner address of the creator\r\n    SetStorage.Set              private participants;               // owner addresses of participants\r\n    string                      private name;                       // name of the event \r\n    string                      private description;                // description of the event \r\n    string                      private location;                   // location of the event\r\n    uint256                     private time_created;               // when the event was created   - in unix time format\r\n    uint256                     private time_start;                 // when the event starts        - in unix time format\r\n    uint256                     private time_end;                   // when the event ends          - in unix time format \r\n    uint256                     private time_expiration;            // when the event expires       - in unix time format \r\n    \r\n    // check for event manager contract\r\n    // only manager has write access\r\n    modifier onlyManager {\r\n        require(msg.sender == manager, \"Access is only allowed for manager.\");\r\n        _;\r\n    }\r\n    \r\n    PartyItem[] private party_items;                     // items to bring with \r\n    \r\n    // party item \r\n    struct PartyItem \r\n    {\r\n        uint256                 id;                                     // id of the item\r\n        address     payable     holder;                                 // participant who brings the item\r\n        string                  name;                                   // name of the item \r\n        uint256                 time_expiration;                        // when the item expires\r\n        bool                    checked;                                // wether the item is already brought or not \r\n    }\r\n    \r\n    // constructor with required parameters\r\n    constructor(address payable event_creator, \r\n                string memory event_name, \r\n                string memory event_location, \r\n                uint256 start_time, \r\n                uint256 end_time) public\r\n    {\r\n        \r\n        // assign variables\r\n        id              = address(this);            // set id to this contract address                         \r\n        initiator       = event_creator;            // set initiator to event creator address \r\n                                                    // at the time of creation there are 0 participants\r\n        manager         = msg.sender;               // set manager to event manager contract address\r\n        name            = event_name;               // set event name\r\n                                                    // description is optional \r\n        location        = event_location;           // set event location\r\n        time_created    = now;                      // set created time to now\r\n        time_start      = start_time;               // set start time \r\n        time_end        = end_time;                 // set end time\r\n        time_expiration = start_time;               // expiration time is start time by default \r\n                                                    // users cannot attend the event any more if it has already started\r\n        participants    = new SetStorage.Set();     // create Set for participants \r\n                                                    // at the time of creation there are 0 party items\r\n        \r\n        // do some logic checks \r\n        require(time_start < time_end, \"event start time must be before end time\");\r\n        require(time_start > now, \"event start time must be in the future\");\r\n                    \r\n    }\r\n    \r\n    // getter and setter\r\n    \r\n    // get event info \r\n    function getInfo() public view\r\n    returns (\r\n        address         event_id, \r\n        address         event_initiator,\r\n        string memory   event_name,\r\n        string memory   event_location,\r\n        uint256         event_start_time,\r\n        uint256         event_end_time,\r\n        uint256         event_created_time,\r\n        SetStorage.Set  event_participants\r\n    )\r\n    {\r\n        return (id, \r\n                initiator,\r\n                name,\r\n                location,\r\n                time_start,\r\n                time_end,\r\n                time_created,\r\n                participants);\r\n    }\r\n    \r\n    // get single element info \r\n    function getId()                public view             returns(address         event_id)               { return id; }                  // returns event id\r\n    function getInitiator()         public view             returns(address         event_initiator)        { return initiator; }           // returns event initiator\r\n    function getParticipants()      public view             returns(SetStorage.Set  event_participants)     { return participants; }        // returns event participants\r\n    function getName()              public view             returns(string memory   event_name)             { return name; }                // returns event name \r\n    function getDescription()       public view             returns(string memory   event_description)      { return description; }         // returns event description\r\n    function getLocation()          public view             returns(string memory   event_location)         { return location; }            // returns event location\r\n    function getTimeCreated()       public view             returns(uint256         event_time_created)     { return time_created; }        // returns event creation time \r\n    function getTimeStart()         public view             returns(uint256         event_time_start)       { return time_start; }          // returns event start time \r\n    function getTimeEnd()           public view             returns(uint256         event_time_end)         { return time_end; }            // returns event end time \r\n    function getExpirationTime()    public view             returns(uint256         event_time_expiration)  { return time_expiration; }     // returns event time expiration \r\n    \r\n    function getManager()           public view onlyManager returns(address         event_manager)          { return manager; }             // returns event manager \r\n    \r\n    // attend this event \r\n    function participate(address payable participant) public onlyManager\r\n    {\r\n        // check if participant is not the initiator\r\n        require(participant != initiator, \"you are already the initiator\");\r\n        \r\n        // check if event is not expired \r\n        require(time_expiration > now, \"event is expired\");\r\n        \r\n        // add participant address\r\n        participants.addToArray(participant);\r\n    }\r\n    \r\n    // get participants array \r\n    function getParticipantsArray() public view returns(address [] memory event_participants) \r\n    {\r\n        return participants.getArray();\r\n    }\r\n    \r\n    // remove participant \r\n    function removeParticipant(address remove_participant) public onlyManager \r\n    {\r\n        // remove participant\r\n        participants.removeFromArray(remove_participant);\r\n    }\r\n    \r\n    // update event name \r\n    function updateName(string memory new_name) public onlyManager\r\n    {\r\n        // set new name \r\n        name = new_name;\r\n    }\r\n    \r\n    // update event location \r\n    function updateLocation(string memory new_location) public onlyManager\r\n    {\r\n        // set new location \r\n        location = new_location;\r\n    }\r\n    \r\n    // set the event description\r\n    function setDescription(string memory new_description) public onlyManager\r\n    {\r\n        // set the new description\r\n        description = new_description;\r\n    }\r\n    \r\n    // set the start time \r\n    function setStartTime(uint256 time) public onlyManager\r\n    {\r\n        // check if start time is before end time \r\n        require(time < time_end, \"event start time must be before end time\");\r\n        \r\n        // set new start time\r\n        time_start = time;\r\n    }\r\n    \r\n    // set the end time\r\n    function setEndTime(uint256 time) public onlyManager\r\n    {\r\n        // check if end time is after start time \r\n        require(time > time_start, \"event end time must be after start time\");\r\n        \r\n        // set new end time\r\n        time_end = time;\r\n    }\r\n    \r\n    // set the expiration time \r\n    // till when can users attend the event \r\n    function setExpirationTime(uint256 time) public onlyManager\r\n    {\r\n        // check if expiration time is before or at start time\r\n        require(time <= time_start, \"event expiration time must be before start time\");\r\n        \r\n        // set new expiration time \r\n        time_expiration = time;\r\n    }\r\n    \r\n    // check if initiator\r\n    function isInitiator(address payable user) public view returns(bool is_initiator)\r\n    {\r\n        // check if address is initiator address\r\n        return (user == initiator);\r\n    }\r\n    \r\n    // check if participant\r\n    function isParticipant(address payable user) public view returns(bool is_participant)\r\n    {\r\n        // check if address is in participants set \r\n        return participants.inArray(user);\r\n    }\r\n    \r\n    \r\n    // manage party items \r\n    \r\n    // add party item\r\n    function proposeItemToBringWith(address payable user_address, string memory item_name) public onlyManager\r\n    {\r\n        // check if user is initiator or participant\r\n        require((user_address == initiator) || (isParticipant(user_address)), \"User is not participant\");\r\n        \r\n        // new party item id \r\n        uint256 party_item_id = getItemCount();\r\n        \r\n        // insert new party item to the array \r\n        // by default the time_expiration is the same as the one from the event and is checked is false\r\n        party_items.push(PartyItem(party_item_id, user_address, item_name, time_expiration, false));\r\n    }\r\n    \r\n    // get item count \r\n    function getItemCount() public view onlyManager returns(uint256 item_count) \r\n    {\r\n        return party_items.length;\r\n    }\r\n    \r\n    // get item info \r\n    function getItemInfo(uint256 party_item_id) public view onlyManager \r\n    returns (\r\n        uint256                 item_id, \r\n        address     payable     item_holder,\r\n        string      memory      item_name, \r\n        uint256                 item_time_expiration,\r\n        bool                    item_checked\r\n    )\r\n    {\r\n        // check if item exists\r\n        require(itemExists(party_item_id), \"Item does not exist\");\r\n        \r\n        return (party_items[party_item_id].id, \r\n                party_items[party_item_id].holder, \r\n                party_items[party_item_id].name, \r\n                party_items[party_item_id].time_expiration, \r\n                party_items[party_item_id].checked);\r\n    }\r\n    \r\n    // check if item exists \r\n    function itemExists(uint256 party_item_id) public view onlyManager returns(bool item_exists) \r\n    {\r\n        return (party_item_id >= 0 && party_item_id < getItemCount());\r\n    }\r\n    \r\n    // get item holder \r\n    function getItemHolder(uint256 party_item_id) public view onlyManager returns(address payable item_holder) \r\n    {\r\n        return party_items[party_item_id].holder;\r\n    }\r\n    \r\n    // get item name \r\n    function getItemName(uint256 party_item_id) public view onlyManager returns(string memory item_name) \r\n    {\r\n        return party_items[party_item_id].name;\r\n    }\r\n    \r\n    // get item expiration time \r\n    function getItemExpirationTime(uint256 party_item_id) public view onlyManager returns(uint256 item_expiration_time)\r\n    {\r\n        return party_items[party_item_id].time_expiration;\r\n    }\r\n    \r\n    // get item checked \r\n    function isItemChecked(uint256 party_item_id) public view onlyManager returns(bool is_item_checked)\r\n    {\r\n        return party_items[party_item_id].checked;\r\n    }\r\n    \r\n    // is item holder \r\n    function isItemHolder(uint256 party_item_id, address potential_holder) public view onlyManager returns(bool is_item_holder)\r\n    {\r\n        return (getItemHolder(party_item_id) == potential_holder);\r\n    }\r\n    \r\n    // get all party items  - experimental\r\n    function getAllPartyItems() public view onlyManager returns(PartyItem [] memory all_party_items)\r\n    {\r\n        return party_items;\r\n    }\r\n    \r\n    // check and uncheck party item \r\n    function updatePartyItemCheck(address payable user_address, uint256 party_item_id) public onlyManager \r\n    {\r\n        // check if user is initiator or holder of the item \r\n        require((user_address == initiator) || (isItemHolder(party_item_id, user_address)), \"User is not allowed to update item info\");\r\n        \r\n        // check if item exists\r\n        require(itemExists(party_item_id), \"Item does not exist\");\r\n        \r\n        // what was previous state of item \r\n        bool item_state = isItemChecked(party_item_id);\r\n        \r\n        // set new item state\r\n        party_items[party_item_id].checked = !item_state;\r\n    }\r\n    \r\n    // delete party item \r\n    function deletePartyItem(address payable user_address, uint256 party_item_id) public onlyManager\r\n    {\r\n        // check if user is initiator or holder of the item \r\n        require((user_address == initiator) || (isItemHolder(party_item_id, user_address)), \"User is not allowed to update item info\");\r\n        \r\n        // check if item exists\r\n        require(itemExists(party_item_id), \"Item does not exist\");\r\n        \r\n        // delete party item \r\n        delete party_items[party_item_id];\r\n        \r\n        // fill up with rest of the items\r\n        for (uint i = party_item_id; i < party_items.length-1; i++){\r\n            \r\n            // move next element to current element\r\n            party_items[i] = party_items[i+1];\r\n            \r\n        }\r\n        \r\n        // pop last element \r\n        party_items.pop();\r\n    }\r\n    \r\n}",
  "sourcePath": "C:\\Users\\maxr2011\\OneDrive\\FH\\FWPM Blockchain und Smart Contracts\\solidity\\src\\eventManagerTruffle\\contracts\\Event.sol",
  "compiler": {
    "name": "solc",
    "version": "0.6.7+commit.b8d736ae.Emscripten.clang"
  },
  "schemaVersion": "3.2.2",
  "updatedAt": "2020-07-22T00:41:16.425Z",
  "devdoc": {
    "methods": {}
  },
  "userdoc": {
    "methods": {}
  }
}