{
  "contractName": "EventSet",
  "abi": [
    {
      "inputs": [],
      "stateMutability": "nonpayable",
      "type": "constructor"
    },
    {
      "inputs": [
        {
          "internalType": "contract Event",
          "name": "event_element",
          "type": "address"
        }
      ],
      "name": "addToArray",
      "outputs": [],
      "stateMutability": "nonpayable",
      "type": "function"
    },
    {
      "inputs": [
        {
          "internalType": "address",
          "name": "event_address",
          "type": "address"
        }
      ],
      "name": "inArray",
      "outputs": [
        {
          "internalType": "bool",
          "name": "in_array",
          "type": "bool"
        }
      ],
      "stateMutability": "view",
      "type": "function"
    },
    {
      "inputs": [
        {
          "internalType": "address",
          "name": "event_address",
          "type": "address"
        }
      ],
      "name": "getPosition",
      "outputs": [
        {
          "internalType": "uint256",
          "name": "address_position",
          "type": "uint256"
        }
      ],
      "stateMutability": "view",
      "type": "function"
    },
    {
      "inputs": [
        {
          "internalType": "uint256",
          "name": "pos",
          "type": "uint256"
        }
      ],
      "name": "getByPosition",
      "outputs": [
        {
          "internalType": "contract Event",
          "name": "event_element",
          "type": "address"
        }
      ],
      "stateMutability": "view",
      "type": "function"
    },
    {
      "inputs": [],
      "name": "getElementCount",
      "outputs": [
        {
          "internalType": "uint256",
          "name": "element_count",
          "type": "uint256"
        }
      ],
      "stateMutability": "view",
      "type": "function"
    },
    {
      "inputs": [],
      "name": "getEventArray",
      "outputs": [
        {
          "internalType": "contract Event[]",
          "name": "event_array",
          "type": "address[]"
        }
      ],
      "stateMutability": "view",
      "type": "function"
    },
    {
      "inputs": [
        {
          "internalType": "address payable",
          "name": "event_initiator",
          "type": "address"
        },
        {
          "internalType": "bool",
          "name": "check_participant",
          "type": "bool"
        }
      ],
      "name": "getUserEventArray",
      "outputs": [
        {
          "internalType": "address[]",
          "name": "event_array",
          "type": "address[]"
        }
      ],
      "stateMutability": "view",
      "type": "function"
    },
    {
      "inputs": [
        {
          "internalType": "contract Event",
          "name": "event_element",
          "type": "address"
        },
        {
          "internalType": "address",
          "name": "potential_initiator",
          "type": "address"
        }
      ],
      "name": "removeFromArray",
      "outputs": [],
      "stateMutability": "nonpayable",
      "type": "function"
    }
  ],
  "bytecode": "0x608060405234801561001057600080fd5b50600060208190527fad3228b676f7d3cd4284a5443f17f1962b36e491b30a40b2405849e597ba5fb58190556002805460018101825591527f405787fa12a823e0f2b7631cc41b3ba8828b3321ca811111fa75cd3aa3bb5ace018054600160a060020a0319169055610c4f806100876000396000f3fe608060405234801561001057600080fd5b506004361061007b5760e060020a600035046311ef241b811461008057806316c19739146100d8578063243d9220146101105780633ec7685714610138578063436df056146101405780636714b6691461016e578063deac4659146101a7578063e5b40eaf146101e1575b600080fd5b61008861020f565b60408051602080825283518183015283519192839290830191858101910280838360005b838110156100c45781810151838201526020016100ac565b505050509050019250505060405180910390f35b6100fe600480360360208110156100ee57600080fd5b5035600160a060020a03166102cb565b60408051918252519081900360200190f35b6101366004803603602081101561012657600080fd5b5035600160a060020a0316610303565b005b6100fe6104c7565b6100886004803603604081101561015657600080fd5b50600160a060020a03813516906020013515156104d1565b61018b6004803603602081101561018457600080fd5b5035610735565b60408051600160a060020a039092168252519081900360200190f35b6101cd600480360360208110156101bd57600080fd5b5035600160a060020a031661080f565b604080519115158252519081900360200190f35b610136600480360360408110156101f757600080fd5b50600160a060020a038135811691602001351661082c565b6002546060906000190167ffffffffffffffff8111801561022f57600080fd5b50604051908082528060200260200182016040528015610259578160200160208202803683370190505b50905060005b600254600019018110156102c7576002816001018154811061027d57fe5b9060005260206000200160009054906101000a9004600160a060020a03168282815181106102a757fe5b600160a060020a039092166020928302919091019091015260010161025f565b5090565b6000600160a060020a0382166102e3575060006102fe565b50600160a060020a0381166000908152602081905260409020545b919050565b80600160a060020a038116610362576040805160e560020a62461bcd02815260206004820152600d60248201527f496e76616c6964204576656e7400000000000000000000000000000000000000604482015290519081900360640190fd5b61036b8161080f565b156103c0576040805160e560020a62461bcd02815260206004820152601660248201527f4576656e7420616c726561647920696e20417272617900000000000000000000604482015290519081900360640190fd5b60028054600160a060020a038381166000908152602081815260408083208590556001850186559482527f405787fa12a823e0f2b7631cc41b3ba8828b3321ca811111fa75cd3aa3bb5ace9093018054600160a060020a0319169287169283179055835160e060020a6384de1ea50281529351909391926384de1ea59260048082019391829003018186803b15801561045857600080fd5b505afa15801561046c573d6000803e3d6000fd5b505050506040513d602081101561048257600080fd5b5051600160a060020a0390811660009081526001602081815260408320805492830181558352909120018054600160a060020a03191693909116929092179091555050565b6002546000190190565b60608161054c57600160a060020a0383166000908152600160209081526040918290208054835181840281018401909452808452909183018282801561054057602002820191906000526020600020905b8154600160a060020a03168152600190910190602001808311610522575b5050505050905061072f565b600060015b6002548110156105fe576002818154811061056857fe5b600091825260209182902001546040805160e060020a63929066f5028152600160a060020a0389811660048301529151919092169263929066f59260248082019391829003018186803b1580156105be57600080fd5b505afa1580156105d2573d6000803e3d6000fd5b505050506040513d60208110156105e857600080fd5b5051156105f6576001909101905b600101610551565b508067ffffffffffffffff8111801561061657600080fd5b50604051908082528060200260200182016040528015610640578160200160208202803683370190505b5091506000805b600254600019018110156107265760006002826001018154811061066757fe5b600091825260209182902001546040805160e060020a63929066f5028152600160a060020a038b811660048301529151919092169350839263929066f59260248082019391829003018186803b1580156106c057600080fd5b505afa1580156106d4573d6000803e3d6000fd5b505050506040513d60208110156106ea57600080fd5b50511561071d57808584815181106106fe57fe5b600160a060020a03909216602092830291909101909101526001909201915b50600101610647565b5061072f915050565b92915050565b600080821161078e576040805160e560020a62461bcd02815260206004820152601760248201527f7468697320696e646578206973206e6f742076616c6964000000000000000000604482015290519081900360640190fd5b60025482106107e7576040805160e560020a62461bcd02815260206004820152600d60248201527f6f7574206f6620626f756e647300000000000000000000000000000000000000604482015290519081900360640190fd5b600282815481106107f457fe5b600091825260209091200154600160a060020a031692915050565b600160a060020a0316600090815260208190526040902054151590565b600082600160a060020a03166384de1ea56040518163ffffffff1660e060020a02815260040160206040518083038186803b15801561086a57600080fd5b505afa15801561087e573d6000803e3d6000fd5b505050506040513d602081101561089457600080fd5b50519050600160a060020a03828116908216146108fb576040805160e560020a62461bcd02815260206004820152601f60248201527f4f6e6c7920496e69746961746f722063616e2064656c657465204576656e7400604482015290519081900360640190fd5b826109058161080f565b610959576040805160e560020a62461bcd02815260206004820152601260248201527f4576656e74206e6f7420696e2041727261790000000000000000000000000000604482015290519081900360640190fd5b6000610964826102cb565b9050805b60025460001901811015610a4f576000806002838154811061098657fe5b6000918252602080832090910154600160a060020a0316835282019290925260400181205460028054919291829190600186019081106109c257fe5b6000918252602080832090910154600160a060020a0316835282019290925260400190205560028054600183019081106109f857fe5b60009182526020909120015460028054600160a060020a039092169183908110610a1e57fe5b60009182526020909120018054600160a060020a031916600160a060020a0392909216919091179055600101610968565b50600160a060020a0382166000908152602081905260408120556002805480610a7457fe5b60008281526020812082016000199081018054600160a060020a0319169055909101909155805b600160a060020a038516600090815260016020526040902054811015610b0b57600160a060020a03858116600090815260016020526040902080549186169183908110610ae457fe5b600091825260209091200154600160a060020a03161415610b03578091505b600101610a9b565b50805b600160a060020a03851660009081526001602052604090205460001901811015610bcd576001600086600160a060020a0316600160a060020a031681526020019081526020016000208160010181548110610b6557fe5b6000918252602080832090910154600160a060020a03888116845260019092526040909220805491909216919083908110610b9c57fe5b60009182526020909120018054600160a060020a031916600160a060020a0392909216919091179055600101610b0e565b50600160a060020a0384166000908152600160205260409020805480610bef57fe5b60008281526020902081016000199081018054600160a060020a031916905501905550505050505056fea26469706673582212206622a5ad6a53cbf05c5b40c764d1aa02a4cb1c8c2e5248da1db140c340522f4664736f6c63430006070033",
  "immutableReferences": {},
  "source": "pragma solidity ^0.6.7;\r\n\r\n// import event contract\r\nimport \"../../contracts/Event.sol\" as EventContract;\r\n\r\n// EventSet - Store event contracts \r\n// each element should be only once in this Set\r\ncontract EventSet {\r\n    \r\n    // Mapping from address to position in the array\r\n    // 0 means the address is not in the array\r\n    mapping (address => uint) index;\r\n    \r\n    // Mapping from user to its event array\r\n    mapping (address => address[]) user_mapping;\r\n\r\n    // Array with address \r\n    EventContract.Event[] event_store;\r\n    \r\n    // Constructor\r\n    constructor() public \r\n    {\r\n        // add 0x0 event\r\n        index[address(0)] = 0;\r\n        event_store.push(EventContract.Event(0));\r\n    }\r\n\r\n    // add new element to array\r\n    function addToArray(EventContract.Event event_element) public \r\n    {\r\n        // get event address\r\n        address event_address = address(event_element);\r\n        \r\n        // check for invalid event \r\n        require(event_address != address(0), \"Invalid Event\");\r\n        \r\n        // check if already in array \r\n        require(!inArray(event_address), \"Event already in Array\");\r\n        \r\n        // append\r\n        index[event_address] = event_store.length;\r\n        event_store.push(event_element);\r\n        \r\n        // add initiator to user mapping \r\n        address event_initiator = event_element.getInitiator();\r\n        \r\n        // add event to user mapping \r\n        user_mapping[event_initiator].push(event_address);\r\n        \r\n    }\r\n\r\n    // check if element is in array\r\n    function inArray(address event_address) public view returns (bool in_array) \r\n    {\r\n        \r\n        // event 0x0 is not valid\r\n        return (index[event_address] > 0);\r\n        \r\n    }\r\n\r\n    // get position by specific element \r\n    function getPosition(address event_address) public view returns (uint address_position)\r\n    {\r\n        \r\n        // Address 0x0 is not valid \r\n        if(event_address == address(0)) return 0;\r\n        return index[event_address];\r\n        \r\n    }\r\n\r\n    // get specific element by position\r\n    function getByPosition(uint pos) public view returns (EventContract.Event event_element) \r\n    {\r\n        \r\n        // Position 0 is not valid\r\n        require(pos > 0, \"this index is not valid\"); \r\n        \r\n        // Check if pos is higher than store size \r\n        require(pos < event_store.length, \"out of bounds\");\r\n        \r\n        return event_store[pos];\r\n        \r\n    }\r\n    \r\n    // get element count \r\n    function getElementCount() public view returns(uint element_count) \r\n    {\r\n        \r\n        // Return Array size (minus the 0x0 event)\r\n        return event_store.length - 1;\r\n        \r\n    }\r\n    \r\n    // get whole array \r\n    function getEventArray() public view returns(EventContract.Event[] memory event_array) \r\n    {\r\n        \r\n        // initialize new array with size - 0x0 event element \r\n        event_array = new EventContract.Event [](event_store.length-1);\r\n        \r\n        // get all elements without the 0x0 event element \r\n        for(uint i = 0; i < event_store.length-1; i++) {\r\n            \r\n            // add event element to output array \r\n            event_array[i] = event_store[i+1];\r\n            \r\n        }\r\n        \r\n        // return array \r\n        return event_array;\r\n    \r\n    }\r\n    \r\n    // get user specific array - own events or participating events\r\n    function getUserEventArray(address payable event_initiator, bool check_participant) public view returns(address [] memory event_array)\r\n    {\r\n        \r\n        if(!check_participant) {\r\n            \r\n            // get events from user mapping \r\n            return user_mapping[event_initiator];\r\n            \r\n        } else {\r\n        \r\n        \r\n            // create new variable to count user events \r\n            uint user_event_count = 0;\r\n        \r\n            // loop array to count elements \r\n            for(uint i = 1; i < event_store.length; i++) {\r\n            \r\n                if(event_store[i].isParticipant(event_initiator)) {\r\n                    \r\n                    user_event_count++;\r\n                    \r\n                }\r\n            \r\n            }\r\n        \r\n        \r\n            // initialize new array with size of the user events \r\n            event_array = new address [](user_event_count);\r\n        \r\n            // initialize new counter \r\n            uint k = 0;\r\n        \r\n            // get all elements without the 0x0 event element \r\n            for(uint j = 0; j < event_store.length-1; j++) {\r\n            \r\n                // set a temporary event element variable \r\n                EventContract.Event temporaryEvent = event_store[j+1];\r\n            \r\n                // check if user is the initiator of the event\r\n                if(temporaryEvent.isParticipant(event_initiator)) {\r\n                \r\n                    // add event element to output array \r\n                    event_array[k] = address(temporaryEvent);\r\n                    k++;\r\n                \r\n                }\r\n            \r\n            }\r\n        \r\n            // return array \r\n            return event_array;\r\n        \r\n        }\r\n        \r\n    }\r\n    \r\n    // remove specific address element \r\n    function removeFromArray(EventContract.Event event_element, address potential_initiator) public\r\n    {\r\n        \r\n        // get initator \r\n        address event_initiator = event_element.getInitiator();\r\n        \r\n        // check if initiator \r\n        require(potential_initiator == event_initiator, \"Only Initiator can delete Event\");\r\n        \r\n        // get event address\r\n        address event_address = address(event_element);\r\n        \r\n        // check if in array \r\n        require(inArray(event_address), \"Event not in Array\");\r\n        \r\n        // move all other elements \r\n        uint pos = getPosition(event_address);\r\n        \r\n        for (uint i = pos; i < event_store.length-1; i++){\r\n            \r\n            // move next element to current element\r\n            index[address(event_store[i+1])] = index[address(event_store[i])];\r\n            event_store[i] = event_store[i+1];\r\n            \r\n        }\r\n        \r\n        // Remove the last element of the array\r\n        delete index[event_address];\r\n        event_store.pop();\r\n        \r\n        // Remove from user mapping \r\n        \r\n        // new variable for event position in mapping \r\n        uint event_pos = 0;\r\n        \r\n        // move positions \r\n        for(uint j = 0; j < user_mapping[event_initiator].length; j++) {\r\n            \r\n            if(user_mapping[event_initiator][j] == event_address) {\r\n                event_pos = j;\r\n            }\r\n            \r\n        }\r\n        \r\n        for(uint l = event_pos; l < user_mapping[event_initiator].length-1; l++) {\r\n            \r\n            user_mapping[event_initiator][l] = user_mapping[event_initiator][l+1];\r\n            \r\n        }\r\n        \r\n        // pop last element \r\n        user_mapping[event_initiator].pop();\r\n        \r\n    }\r\n    \r\n}",
  "sourcePath": "C:\\Users\\maxr2011\\OneDrive\\FH\\FWPM Blockchain und Smart Contracts\\solidity\\src\\eventManagerTruffle\\contracts\\Storage\\EventSet.sol",
  "compiler": {
    "name": "solc",
    "version": "0.6.7+commit.b8d736ae.Emscripten.clang"
  },
  "schemaVersion": "3.2.2",
  "updatedAt": "2020-07-21T11:29:35.247Z",
  "devdoc": {
    "methods": {}
  },
  "userdoc": {
    "methods": {}
  }
}