{
  "contractName": "Set",
  "abi": [
    {
      "inputs": [],
      "stateMutability": "nonpayable",
      "type": "constructor"
    },
    {
      "inputs": [
        {
          "internalType": "address",
          "name": "element",
          "type": "address"
        }
      ],
      "name": "addToArray",
      "outputs": [],
      "stateMutability": "nonpayable",
      "type": "function"
    },
    {
      "inputs": [
        {
          "internalType": "address",
          "name": "element",
          "type": "address"
        }
      ],
      "name": "inArray",
      "outputs": [
        {
          "internalType": "bool",
          "name": "in_array",
          "type": "bool"
        }
      ],
      "stateMutability": "view",
      "type": "function",
      "constant": true
    },
    {
      "inputs": [
        {
          "internalType": "address",
          "name": "element",
          "type": "address"
        }
      ],
      "name": "getPosition",
      "outputs": [
        {
          "internalType": "uint256",
          "name": "address_position",
          "type": "uint256"
        }
      ],
      "stateMutability": "view",
      "type": "function",
      "constant": true
    },
    {
      "inputs": [
        {
          "internalType": "uint256",
          "name": "pos",
          "type": "uint256"
        }
      ],
      "name": "getByPosition",
      "outputs": [
        {
          "internalType": "address",
          "name": "result_address",
          "type": "address"
        }
      ],
      "stateMutability": "view",
      "type": "function",
      "constant": true
    },
    {
      "inputs": [],
      "name": "getElementCount",
      "outputs": [
        {
          "internalType": "uint256",
          "name": "element_count",
          "type": "uint256"
        }
      ],
      "stateMutability": "view",
      "type": "function",
      "constant": true
    },
    {
      "inputs": [],
      "name": "getArray",
      "outputs": [
        {
          "internalType": "address[]",
          "name": "set_array",
          "type": "address[]"
        }
      ],
      "stateMutability": "view",
      "type": "function",
      "constant": true
    },
    {
      "inputs": [
        {
          "internalType": "address",
          "name": "element",
          "type": "address"
        }
      ],
      "name": "removeFromArray",
      "outputs": [],
      "stateMutability": "nonpayable",
      "type": "function"
    }
  ],
  "bytecode": "0x608060405234801561001057600080fd5b506001805480820182556000919091527fb10e2d527612073b26eecdfd717e6a320cf44b4afac2b0732d9fcbe2b7fa0cf6018054600160a060020a031916905561085f8061005f6000396000f3fe608060405234801561001057600080fd5b506004361061009a576000357c0100000000000000000000000000000000000000000000000000000000900480636714b669116100785780636714b66914610121578063d504ea1d14610167578063deac4659146101bf578063f0335205146102065761009a565b806316c197391461009f578063243d9220146100e45780633ec7685714610119575b600080fd5b6100d2600480360360208110156100b557600080fd5b503573ffffffffffffffffffffffffffffffffffffffff16610239565b60408051918252519081900360200190f35b610117600480360360208110156100fa57600080fd5b503573ffffffffffffffffffffffffffffffffffffffff1661028b565b005b6100d26103fc565b61013e6004803603602081101561013757600080fd5b5035610406565b6040805173ffffffffffffffffffffffffffffffffffffffff9092168252519081900360200190f35b61016f61051b565b60408051602080825283518183015283519192839290830191858101910280838360005b838110156101ab578181015183820152602001610193565b505050509050019250505060405180910390f35b6101f2600480360360208110156101d557600080fd5b503573ffffffffffffffffffffffffffffffffffffffff166105f1565b604080519115158252519081900360200190f35b6101176004803603602081101561021c57600080fd5b503573ffffffffffffffffffffffffffffffffffffffff1661061b565b600073ffffffffffffffffffffffffffffffffffffffff821661025e57506000610286565b5073ffffffffffffffffffffffffffffffffffffffff81166000908152602081905260409020545b919050565b73ffffffffffffffffffffffffffffffffffffffff811661030d57604080517f08c379a000000000000000000000000000000000000000000000000000000000815260206004820152600f60248201527f496e76616c696420616464726573730000000000000000000000000000000000604482015290519081900360640190fd5b610316816105f1565b1561038257604080517f08c379a000000000000000000000000000000000000000000000000000000000815260206004820152601860248201527f4164647265737320616c726561647920696e2041727261790000000000000000604482015290519081900360640190fd5b6001805473ffffffffffffffffffffffffffffffffffffffff90921660008181526020819052604081208490558383018355919091527fb10e2d527612073b26eecdfd717e6a320cf44b4afac2b0732d9fcbe2b7fa0cf6909101805473ffffffffffffffffffffffffffffffffffffffff19169091179055565b6001546000190190565b600080821161047657604080517f08c379a000000000000000000000000000000000000000000000000000000000815260206004820152601760248201527f7468697320696e646578206973206e6f742076616c6964000000000000000000604482015290519081900360640190fd5b60015482106104e657604080517f08c379a000000000000000000000000000000000000000000000000000000000815260206004820152600d60248201527f6f7574206f6620626f756e647300000000000000000000000000000000000000604482015290519081900360640190fd5b600182815481106104f357fe5b60009182526020909120015473ffffffffffffffffffffffffffffffffffffffff1692915050565b6001546060906000190167ffffffffffffffff8111801561053b57600080fd5b50604051908082528060200260200182016040528015610565578160200160208202803683370190505b50905060005b600154600019018110156105ed576001816001018154811061058957fe5b9060005260206000200160009054906101000a900473ffffffffffffffffffffffffffffffffffffffff168282815181106105c057fe5b73ffffffffffffffffffffffffffffffffffffffff9092166020928302919091019091015260010161056b565b5090565b73ffffffffffffffffffffffffffffffffffffffff16600090815260208190526040902054151590565b610624816105f1565b61068f57604080517f08c379a000000000000000000000000000000000000000000000000000000000815260206004820152601460248201527f41646472657373206e6f7420696e204172726179000000000000000000000000604482015290519081900360640190fd5b600061069a82610239565b9050805b600154600019018110156107c457600080600183815481106106bc57fe5b600091825260208083209091015473ffffffffffffffffffffffffffffffffffffffff1683528201929092526040018120546001805491929182919085820190811061070457fe5b600091825260208083209091015473ffffffffffffffffffffffffffffffffffffffff1683528201929092526040019020556001805482820190811061074657fe5b6000918252602090912001546001805473ffffffffffffffffffffffffffffffffffffffff909216918390811061077957fe5b6000918252602090912001805473ffffffffffffffffffffffffffffffffffffffff191673ffffffffffffffffffffffffffffffffffffffff9290921691909117905560010161069e565b5073ffffffffffffffffffffffffffffffffffffffff821660009081526020819052604081205560018054806107f657fe5b6000828152602090208101600019908101805473ffffffffffffffffffffffffffffffffffffffff19169055019055505056fea26469706673582212202199a10505807c3a562768f3970278457fc82b824800732bcc4c529d58c57b1064736f6c63430006070033",
  "immutableReferences": {},
  "source": "pragma solidity ^0.6.7;\r\n\r\n// Set - Store elements\r\n// each element should be only once in this Set\r\ncontract Set {\r\n    \r\n    // Mapping from address to position in the array\r\n    // 0 means the address is not in the array\r\n    mapping (address => uint) index;\r\n\r\n    // Array with address \r\n    address[] store;\r\n\r\n    // Constructor\r\n    constructor() public {\r\n        \r\n        // We will use position 0 to flag invalid address\r\n        store.push(address(0));\r\n        \r\n    }\r\n\r\n    // add new element to array\r\n    function addToArray(address element) public \r\n    {\r\n        \r\n        // check for invalid address 0x0\r\n        require(element != address(0), \"Invalid address\");\r\n        \r\n        // check if already in array \r\n        require(!inArray(element), \"Address already in Array\");\r\n        \r\n        // append\r\n        index[element] = store.length;\r\n        store.push(element);\r\n        \r\n    }\r\n\r\n    // check if element is in array\r\n    function inArray(address element) public view returns (bool in_array) \r\n    {\r\n        \r\n        // address 0x0 is not valid if pos is 0 is not in the array\r\n        return (index[element] > 0);\r\n        \r\n    }\r\n\r\n    // get position by specific element \r\n    function getPosition(address element) public view returns (uint address_position)\r\n    {\r\n        \r\n        // Address 0x0 is not valid \r\n        if(element == address(0)) return 0;\r\n        return index[element];\r\n        \r\n    }\r\n\r\n    // get specific element by position\r\n    function getByPosition(uint pos) public view returns (address result_address) \r\n    {\r\n        \r\n        // Position 0 is not valid\r\n        require(pos > 0, \"this index is not valid\"); \r\n        \r\n        // Check if pos is higher than store size \r\n        require(pos < store.length, \"out of bounds\");\r\n        \r\n        return store[pos];\r\n        \r\n    }\r\n    \r\n    // get element count \r\n    function getElementCount() public view returns(uint element_count) \r\n    {\r\n        \r\n        // Return Array size (minus the 0x0 address element)\r\n        return store.length - 1;\r\n        \r\n    }\r\n    \r\n    // get element array \r\n    function getArray() public view returns(address [] memory set_array) \r\n    {\r\n        \r\n        // initialize new array with size - 0x0 address\r\n        set_array = new address [](store.length-1);\r\n        \r\n        // get all elements without the 0x0 address\r\n        for(uint i = 0; i < store.length-1; i++) {\r\n            \r\n            // add address to output array \r\n            set_array[i] = store[i+1];\r\n            \r\n        }\r\n        \r\n        // return array \r\n        return set_array;\r\n        \r\n    }\r\n    \r\n    // remove specific address element \r\n    function removeFromArray(address element) public\r\n    {\r\n        // check if in array \r\n        require(inArray(element), \"Address not in Array\");\r\n        \r\n        // move all other elements \r\n        uint pos = getPosition(element);\r\n        \r\n        for (uint i = pos; i < store.length-1; i++){\r\n            \r\n            // move next element to current element\r\n            index[store[i+1]] = index[store[i]];\r\n            store[i] = store[i+1];\r\n            \r\n        }\r\n        \r\n        // Remove the last element of the array\r\n        delete index[element];\r\n        store.pop();\r\n        \r\n    }\r\n    \r\n}",
  "sourcePath": "C:\\Users\\maxr2011\\OneDrive\\FH\\FWPM Blockchain und Smart Contracts\\solidity\\src\\eventManagerTruffle\\contracts\\Storage\\Set.sol",
  "compiler": {
    "name": "solc",
    "version": "0.6.7+commit.b8d736ae.Emscripten.clang"
  },
  "schemaVersion": "3.2.2",
  "updatedAt": "2020-07-22T00:48:25.428Z",
  "networkType": "ethereum",
  "devdoc": {
    "methods": {}
  },
  "userdoc": {
    "methods": {}
  }
}