{
  "contractName": "EventSet",
  "abi": [
    {
      "inputs": [],
      "stateMutability": "nonpayable",
      "type": "constructor"
    },
    {
      "inputs": [
        {
          "internalType": "contract Event",
          "name": "event_element",
          "type": "address"
        }
      ],
      "name": "addToArray",
      "outputs": [],
      "stateMutability": "nonpayable",
      "type": "function"
    },
    {
      "inputs": [
        {
          "internalType": "address",
          "name": "event_address",
          "type": "address"
        }
      ],
      "name": "inArray",
      "outputs": [
        {
          "internalType": "bool",
          "name": "in_array",
          "type": "bool"
        }
      ],
      "stateMutability": "view",
      "type": "function",
      "constant": true
    },
    {
      "inputs": [
        {
          "internalType": "address",
          "name": "event_address",
          "type": "address"
        }
      ],
      "name": "getPosition",
      "outputs": [
        {
          "internalType": "uint256",
          "name": "address_position",
          "type": "uint256"
        }
      ],
      "stateMutability": "view",
      "type": "function",
      "constant": true
    },
    {
      "inputs": [
        {
          "internalType": "uint256",
          "name": "pos",
          "type": "uint256"
        }
      ],
      "name": "getByPosition",
      "outputs": [
        {
          "internalType": "contract Event",
          "name": "event_element",
          "type": "address"
        }
      ],
      "stateMutability": "view",
      "type": "function",
      "constant": true
    },
    {
      "inputs": [],
      "name": "getElementCount",
      "outputs": [
        {
          "internalType": "uint256",
          "name": "element_count",
          "type": "uint256"
        }
      ],
      "stateMutability": "view",
      "type": "function",
      "constant": true
    },
    {
      "inputs": [],
      "name": "getEventArray",
      "outputs": [
        {
          "internalType": "contract Event[]",
          "name": "event_array",
          "type": "address[]"
        }
      ],
      "stateMutability": "view",
      "type": "function",
      "constant": true
    },
    {
      "inputs": [
        {
          "internalType": "address payable",
          "name": "event_initiator",
          "type": "address"
        },
        {
          "internalType": "bool",
          "name": "check_participant",
          "type": "bool"
        }
      ],
      "name": "getUserEventArray",
      "outputs": [
        {
          "internalType": "address[]",
          "name": "event_array",
          "type": "address[]"
        }
      ],
      "stateMutability": "view",
      "type": "function",
      "constant": true
    },
    {
      "inputs": [
        {
          "internalType": "contract Event",
          "name": "event_element",
          "type": "address"
        },
        {
          "internalType": "address",
          "name": "potential_initiator",
          "type": "address"
        }
      ],
      "name": "removeFromArray",
      "outputs": [],
      "stateMutability": "nonpayable",
      "type": "function"
    }
  ],
  "bytecode": "0x608060405234801561001057600080fd5b50600060208190527fad3228b676f7d3cd4284a5443f17f1962b36e491b30a40b2405849e597ba5fb58190556002805460018101825591527f405787fa12a823e0f2b7631cc41b3ba8828b3321ca811111fa75cd3aa3bb5ace018054600160a060020a0319169055610f80806100876000396000f3fe608060405234801561001057600080fd5b50600436106100a5576000357c010000000000000000000000000000000000000000000000000000000090048063436df05611610078578063436df056146101845780636714b669146101bf578063deac465914610205578063e5b40eaf1461024c576100a5565b806311ef241b146100aa57806316c1973914610102578063243d9220146101475780633ec768571461017c575b600080fd5b6100b2610287565b60408051602080825283518183015283519192839290830191858101910280838360005b838110156100ee5781810151838201526020016100d6565b505050509050019250505060405180910390f35b6101356004803603602081101561011857600080fd5b503573ffffffffffffffffffffffffffffffffffffffff1661035d565b60408051918252519081900360200190f35b61017a6004803603602081101561015d57600080fd5b503573ffffffffffffffffffffffffffffffffffffffff166103af565b005b6101356105f8565b6100b26004803603604081101561019a57600080fd5b5073ffffffffffffffffffffffffffffffffffffffff81351690602001351515610602565b6101dc600480360360208110156101d557600080fd5b50356108d3565b6040805173ffffffffffffffffffffffffffffffffffffffff9092168252519081900360200190f35b6102386004803603602081101561021b57600080fd5b503573ffffffffffffffffffffffffffffffffffffffff166109e8565b604080519115158252519081900360200190f35b61017a6004803603604081101561026257600080fd5b5073ffffffffffffffffffffffffffffffffffffffff81358116916020013516610a12565b6002546060906000190167ffffffffffffffff811180156102a757600080fd5b506040519080825280602002602001820160405280156102d1578160200160208202803683370190505b50905060005b6002546000190181101561035957600281600101815481106102f557fe5b9060005260206000200160009054906101000a900473ffffffffffffffffffffffffffffffffffffffff1682828151811061032c57fe5b73ffffffffffffffffffffffffffffffffffffffff909216602092830291909101909101526001016102d7565b5090565b600073ffffffffffffffffffffffffffffffffffffffff8216610382575060006103aa565b5073ffffffffffffffffffffffffffffffffffffffff81166000908152602081905260409020545b919050565b8073ffffffffffffffffffffffffffffffffffffffff811661043257604080517f08c379a000000000000000000000000000000000000000000000000000000000815260206004820152600d60248201527f496e76616c6964204576656e7400000000000000000000000000000000000000604482015290519081900360640190fd5b61043b816109e8565b156104a757604080517f08c379a000000000000000000000000000000000000000000000000000000000815260206004820152601660248201527f4576656e7420616c726561647920696e20417272617900000000000000000000604482015290519081900360640190fd5b6002805473ffffffffffffffffffffffffffffffffffffffff8381166000908152602081815260408083208590556001850186559482527f405787fa12a823e0f2b7631cc41b3ba8828b3321ca811111fa75cd3aa3bb5ace909301805473ffffffffffffffffffffffffffffffffffffffff1916928716928317905583517f84de1ea50000000000000000000000000000000000000000000000000000000081529351909391926384de1ea59260048082019391829003018186803b15801561056f57600080fd5b505afa158015610583573d6000803e3d6000fd5b505050506040513d602081101561059957600080fd5b505173ffffffffffffffffffffffffffffffffffffffff9081166000908152600160208181526040832080549283018155835290912001805473ffffffffffffffffffffffffffffffffffffffff191693909116929092179091555050565b6002546000190190565b6060816106975773ffffffffffffffffffffffffffffffffffffffff83166000908152600160209081526040918290208054835181840281018401909452808452909183018282801561068b57602002820191906000526020600020905b815473ffffffffffffffffffffffffffffffffffffffff168152600190910190602001808311610660575b505050505090506108cd565b600060015b60025481101561076c57600281815481106106b357fe5b60009182526020918290200154604080517f929066f500000000000000000000000000000000000000000000000000000000815273ffffffffffffffffffffffffffffffffffffffff89811660048301529151919092169263929066f59260248082019391829003018186803b15801561072c57600080fd5b505afa158015610740573d6000803e3d6000fd5b505050506040513d602081101561075657600080fd5b505115610764576001909101905b60010161069c565b508067ffffffffffffffff8111801561078457600080fd5b506040519080825280602002602001820160405280156107ae578160200160208202803683370190505b5091506000805b600254600019018110156108c4576000600282600101815481106107d557fe5b60009182526020918290200154604080517f929066f500000000000000000000000000000000000000000000000000000000815273ffffffffffffffffffffffffffffffffffffffff8b811660048301529151919092169350839263929066f59260248082019391829003018186803b15801561085157600080fd5b505afa158015610865573d6000803e3d6000fd5b505050506040513d602081101561087b57600080fd5b5051156108bb578085848151811061088f57fe5b73ffffffffffffffffffffffffffffffffffffffff909216602092830291909101909101526001909201915b506001016107b5565b506108cd915050565b92915050565b600080821161094357604080517f08c379a000000000000000000000000000000000000000000000000000000000815260206004820152601760248201527f7468697320696e646578206973206e6f742076616c6964000000000000000000604482015290519081900360640190fd5b60025482106109b357604080517f08c379a000000000000000000000000000000000000000000000000000000000815260206004820152600d60248201527f6f7574206f6620626f756e647300000000000000000000000000000000000000604482015290519081900360640190fd5b600282815481106109c057fe5b60009182526020909120015473ffffffffffffffffffffffffffffffffffffffff1692915050565b73ffffffffffffffffffffffffffffffffffffffff16600090815260208190526040902054151590565b60008273ffffffffffffffffffffffffffffffffffffffff166384de1ea56040518163ffffffff167c010000000000000000000000000000000000000000000000000000000002815260040160206040518083038186803b158015610a7657600080fd5b505afa158015610a8a573d6000803e3d6000fd5b505050506040513d6020811015610aa057600080fd5b5051905073ffffffffffffffffffffffffffffffffffffffff82811690821614610b2b57604080517f08c379a000000000000000000000000000000000000000000000000000000000815260206004820152601f60248201527f4f6e6c7920496e69746961746f722063616e2064656c657465204576656e7400604482015290519081900360640190fd5b82610b35816109e8565b610ba057604080517f08c379a000000000000000000000000000000000000000000000000000000000815260206004820152601260248201527f4576656e74206e6f7420696e2041727261790000000000000000000000000000604482015290519081900360640190fd5b6000610bab8261035d565b9050805b60025460001901811015610cd75760008060028381548110610bcd57fe5b600091825260208083209091015473ffffffffffffffffffffffffffffffffffffffff1683528201929092526040018120546002805491929182919060018601908110610c1657fe5b600091825260208083209091015473ffffffffffffffffffffffffffffffffffffffff1683528201929092526040019020556002805460018301908110610c5957fe5b6000918252602090912001546002805473ffffffffffffffffffffffffffffffffffffffff9092169183908110610c8c57fe5b6000918252602090912001805473ffffffffffffffffffffffffffffffffffffffff191673ffffffffffffffffffffffffffffffffffffffff92909216919091179055600101610baf565b5073ffffffffffffffffffffffffffffffffffffffff82166000908152602081905260408120556002805480610d0957fe5b6000828152602081208201600019908101805473ffffffffffffffffffffffffffffffffffffffff19169055909101909155805b73ffffffffffffffffffffffffffffffffffffffff8516600090815260016020526040902054811015610dd45773ffffffffffffffffffffffffffffffffffffffff858116600090815260016020526040902080549186169183908110610da057fe5b60009182526020909120015473ffffffffffffffffffffffffffffffffffffffff161415610dcc578091505b600101610d3d565b50805b73ffffffffffffffffffffffffffffffffffffffff851660009081526001602052604090205460001901811015610ee457600160008673ffffffffffffffffffffffffffffffffffffffff1673ffffffffffffffffffffffffffffffffffffffff1681526020019081526020016000208160010181548110610e5557fe5b600091825260208083209091015473ffffffffffffffffffffffffffffffffffffffff888116845260019092526040909220805491909216919083908110610e9957fe5b6000918252602090912001805473ffffffffffffffffffffffffffffffffffffffff191673ffffffffffffffffffffffffffffffffffffffff92909216919091179055600101610dd7565b5073ffffffffffffffffffffffffffffffffffffffff84166000908152600160205260409020805480610f1357fe5b6000828152602090208101600019908101805473ffffffffffffffffffffffffffffffffffffffff1916905501905550505050505056fea2646970667358221220b6c5c3c32552b691b2be11d8834eaabf8793c192b818222f3f617404e5ac4b4064736f6c63430006070033",
  "immutableReferences": {},
  "source": "// SPDX-License-Identifier: MIT\r\npragma solidity ^0.6.7;\r\n\r\n// import event contract\r\nimport \"../../contracts/Event.sol\" as EventContract;\r\n\r\n// EventSet - Store event contracts\r\n// each element should be only once in this Set\r\ncontract EventSet {\r\n\r\n    // Mapping from address to position in the array\r\n    // 0 means the address is not in the array\r\n    mapping (address => uint) index;\r\n\r\n    // Mapping from user to its event array\r\n    mapping (address => address[]) user_mapping;\r\n\r\n    // Array with address\r\n    EventContract.Event[] event_store;\r\n\r\n    // Constructor\r\n    constructor() public\r\n    {\r\n        // add 0x0 event\r\n        index[address(0)] = 0;\r\n        event_store.push(EventContract.Event(0));\r\n    }\r\n\r\n    // add new element to array\r\n    function addToArray(EventContract.Event event_element) public\r\n    {\r\n        // get event address\r\n        address event_address = address(event_element);\r\n\r\n        // check for invalid event\r\n        require(event_address != address(0), \"Invalid Event\");\r\n\r\n        // check if already in array\r\n        require(!inArray(event_address), \"Event already in Array\");\r\n\r\n        // append\r\n        index[event_address] = event_store.length;\r\n        event_store.push(event_element);\r\n\r\n        // add initiator to user mapping\r\n        address event_initiator = event_element.getInitiator();\r\n\r\n        // add event to user mapping\r\n        user_mapping[event_initiator].push(event_address);\r\n\r\n    }\r\n\r\n    // check if element is in array\r\n    function inArray(address event_address) public view returns (bool in_array)\r\n    {\r\n\r\n        // event 0x0 is not valid\r\n        return (index[event_address] > 0);\r\n\r\n    }\r\n\r\n    // get position by specific element\r\n    function getPosition(address event_address) public view returns (uint address_position)\r\n    {\r\n\r\n        // Address 0x0 is not valid\r\n        if(event_address == address(0)) return 0;\r\n        return index[event_address];\r\n\r\n    }\r\n\r\n    // get specific element by position\r\n    function getByPosition(uint pos) public view returns (EventContract.Event event_element)\r\n    {\r\n\r\n        // Position 0 is not valid\r\n        require(pos > 0, \"this index is not valid\");\r\n\r\n        // Check if pos is higher than store size\r\n        require(pos < event_store.length, \"out of bounds\");\r\n\r\n        return event_store[pos];\r\n\r\n    }\r\n\r\n    // get element count\r\n    function getElementCount() public view returns(uint element_count)\r\n    {\r\n\r\n        // Return Array size (minus the 0x0 event)\r\n        return event_store.length - 1;\r\n\r\n    }\r\n\r\n    // get whole array\r\n    function getEventArray() public view returns(EventContract.Event[] memory event_array)\r\n    {\r\n\r\n        // initialize new array with size - 0x0 event element\r\n        event_array = new EventContract.Event[](event_store.length-1);\r\n\r\n        // get all elements without the 0x0 event element\r\n        for(uint i = 0; i < event_store.length-1; i++) {\r\n\r\n            // add event element to output array\r\n            event_array[i] = event_store[i+1];\r\n\r\n        }\r\n\r\n        // return array\r\n        return event_array;\r\n\r\n    }\r\n    \r\n    // get user specific array - own events or participating events\r\n    function getUserEventArray(address payable event_initiator, bool check_participant) public view returns(address[] memory event_array)\r\n    {\r\n\r\n        if(!check_participant) {\r\n\r\n            // get events from user mapping\r\n            return user_mapping[event_initiator];\r\n\r\n        } else {\r\n\r\n            // create new variable to count user events\r\n            uint user_event_count = 0;\r\n\r\n            // loop array to count elements\r\n            for(uint i = 1; i < event_store.length; i++) {\r\n\r\n                if(event_store[i].isParticipant(event_initiator)) {\r\n\r\n                    user_event_count++;\r\n\r\n                }\r\n\r\n            }\r\n\r\n            // initialize new array with size of the user events\r\n            event_array = new address[](user_event_count);\r\n\r\n            // initialize new counter\r\n            uint k = 0;\r\n\r\n            // get all elements without the 0x0 event element\r\n            for(uint j = 0; j < event_store.length-1; j++) {\r\n\r\n                // set a temporary event element variable\r\n                EventContract.Event temporaryEvent = event_store[j+1];\r\n\r\n                // check if user is the initiator of the event\r\n                if(temporaryEvent.isParticipant(event_initiator)) {\r\n\r\n                    // add event element to output array\r\n                    event_array[k] = address(temporaryEvent);\r\n                    k++;\r\n\r\n                }\r\n\r\n            }\r\n\r\n            // return array\r\n            return event_array;\r\n\r\n        }\r\n\r\n    }\r\n\r\n    // remove specific address element\r\n    function removeFromArray(EventContract.Event event_element, address potential_initiator) public\r\n    {\r\n\r\n        // get initator\r\n        address event_initiator = event_element.getInitiator();\r\n\r\n        // check if initiator\r\n        require(potential_initiator == event_initiator, \"Only Initiator can delete Event\");\r\n\r\n        // get event address\r\n        address event_address = address(event_element);\r\n\r\n        // check if in array\r\n        require(inArray(event_address), \"Event not in Array\");\r\n\r\n        // move all other elements\r\n        uint pos = getPosition(event_address);\r\n\r\n        for (uint i = pos; i < event_store.length-1; i++){\r\n\r\n            // move next element to current element\r\n            index[address(event_store[i+1])] = index[address(event_store[i])];\r\n            event_store[i] = event_store[i+1];\r\n\r\n        }\r\n\r\n        // Remove the last element of the array\r\n        delete index[event_address];\r\n        event_store.pop();\r\n\r\n        // Remove from user mapping\r\n\r\n        // new variable for event position in mapping\r\n        uint event_pos = 0;\r\n\r\n        // move positions\r\n        for(uint j = 0; j < user_mapping[event_initiator].length; j++) {\r\n\r\n            if(user_mapping[event_initiator][j] == event_address) {\r\n                event_pos = j;\r\n            }\r\n\r\n        }\r\n\r\n        for(uint l = event_pos; l < user_mapping[event_initiator].length-1; l++) {\r\n\r\n            user_mapping[event_initiator][l] = user_mapping[event_initiator][l+1];\r\n\r\n        }\r\n\r\n        // pop last element\r\n        user_mapping[event_initiator].pop();\r\n\r\n    }\r\n\r\n}",
  "sourcePath": "C:\\Users\\Shane\\Desktop\\TestProject\\contracts\\Storage\\EventSet.sol",
  "compiler": {
    "name": "solc",
    "version": "0.6.7+commit.b8d736ae.Emscripten.clang"
  },
  "schemaVersion": "3.2.2",
  "updatedAt": "2020-07-22T17:41:48.071Z",
  "networkType": "ethereum",
  "devdoc": {
    "methods": {}
  },
  "userdoc": {
    "methods": {}
  }
}