{
  "contractName": "EventManager",
  "abi": [
    {
      "inputs": [
        {
          "internalType": "address",
          "name": "set",
          "type": "address"
        },
        {
          "internalType": "address",
          "name": "eventSet",
          "type": "address"
        }
      ],
      "stateMutability": "nonpayable",
      "type": "constructor"
    },
    {
      "inputs": [],
      "name": "export_storage",
      "outputs": [
        {
          "internalType": "address",
          "name": "user_storage_address",
          "type": "address"
        },
        {
          "internalType": "address",
          "name": "event_storage_address",
          "type": "address"
        }
      ],
      "stateMutability": "view",
      "type": "function",
      "constant": true
    },
    {
      "inputs": [],
      "name": "login",
      "outputs": [
        {
          "internalType": "bool",
          "name": "is_user",
          "type": "bool"
        }
      ],
      "stateMutability": "view",
      "type": "function",
      "constant": true
    },
    {
      "inputs": [],
      "name": "register",
      "outputs": [
        {
          "internalType": "uint256",
          "name": "user_id",
          "type": "uint256"
        }
      ],
      "stateMutability": "nonpayable",
      "type": "function"
    },
    {
      "inputs": [],
      "name": "getUserCount",
      "outputs": [
        {
          "internalType": "uint256",
          "name": "user_count",
          "type": "uint256"
        }
      ],
      "stateMutability": "view",
      "type": "function",
      "constant": true
    },
    {
      "inputs": [
        {
          "internalType": "uint256",
          "name": "id",
          "type": "uint256"
        }
      ],
      "name": "getUserById",
      "outputs": [
        {
          "internalType": "address payable",
          "name": "user_address",
          "type": "address"
        }
      ],
      "stateMutability": "view",
      "type": "function",
      "constant": true
    },
    {
      "inputs": [
        {
          "internalType": "string",
          "name": "event_name",
          "type": "string"
        },
        {
          "internalType": "string",
          "name": "event_location",
          "type": "string"
        },
        {
          "internalType": "uint256",
          "name": "event_start_time",
          "type": "uint256"
        },
        {
          "internalType": "uint256",
          "name": "event_end_time",
          "type": "uint256"
        }
      ],
      "name": "createUserEvent",
      "outputs": [
        {
          "internalType": "address",
          "name": "new_event_address",
          "type": "address"
        }
      ],
      "stateMutability": "nonpayable",
      "type": "function"
    },
    {
      "inputs": [],
      "name": "getEventCount",
      "outputs": [
        {
          "internalType": "uint256",
          "name": "event_count",
          "type": "uint256"
        }
      ],
      "stateMutability": "view",
      "type": "function",
      "constant": true
    },
    {
      "inputs": [
        {
          "internalType": "uint256",
          "name": "event_id",
          "type": "uint256"
        }
      ],
      "name": "getEventById",
      "outputs": [
        {
          "internalType": "contract Event",
          "name": "event_element",
          "type": "address"
        }
      ],
      "stateMutability": "view",
      "type": "function",
      "constant": true
    },
    {
      "inputs": [
        {
          "internalType": "address",
          "name": "event_address",
          "type": "address"
        }
      ],
      "name": "getEventPosition",
      "outputs": [
        {
          "internalType": "uint256",
          "name": "event_position",
          "type": "uint256"
        }
      ],
      "stateMutability": "view",
      "type": "function",
      "constant": true
    },
    {
      "inputs": [
        {
          "internalType": "contract Event",
          "name": "event_address",
          "type": "address"
        }
      ],
      "name": "getEventInfo",
      "outputs": [
        {
          "internalType": "address",
          "name": "event_id",
          "type": "address"
        },
        {
          "internalType": "address",
          "name": "event_initiator",
          "type": "address"
        },
        {
          "internalType": "string",
          "name": "event_name",
          "type": "string"
        },
        {
          "internalType": "string",
          "name": "event_location",
          "type": "string"
        },
        {
          "internalType": "uint256",
          "name": "event_start_time",
          "type": "uint256"
        },
        {
          "internalType": "uint256",
          "name": "event_end_time",
          "type": "uint256"
        },
        {
          "internalType": "uint256",
          "name": "event_created_time",
          "type": "uint256"
        },
        {
          "internalType": "contract Set",
          "name": "event_participants",
          "type": "address"
        }
      ],
      "stateMutability": "view",
      "type": "function",
      "constant": true
    },
    {
      "inputs": [],
      "name": "getAllEvents",
      "outputs": [
        {
          "internalType": "contract Event[]",
          "name": "all_events",
          "type": "address[]"
        }
      ],
      "stateMutability": "view",
      "type": "function",
      "constant": true
    },
    {
      "inputs": [],
      "name": "getUserEvents",
      "outputs": [
        {
          "internalType": "address[]",
          "name": "user_events",
          "type": "address[]"
        }
      ],
      "stateMutability": "view",
      "type": "function",
      "constant": true
    },
    {
      "inputs": [],
      "name": "getUserParticipantEvents",
      "outputs": [
        {
          "internalType": "address[]",
          "name": "user_participant_events",
          "type": "address[]"
        }
      ],
      "stateMutability": "view",
      "type": "function",
      "constant": true
    },
    {
      "inputs": [
        {
          "internalType": "contract Event",
          "name": "event_address",
          "type": "address"
        }
      ],
      "name": "participateEventById",
      "outputs": [],
      "stateMutability": "nonpayable",
      "type": "function"
    },
    {
      "inputs": [
        {
          "internalType": "contract Event",
          "name": "event_address",
          "type": "address"
        }
      ],
      "name": "getEventParticipants",
      "outputs": [
        {
          "internalType": "address[]",
          "name": "participants_array",
          "type": "address[]"
        }
      ],
      "stateMutability": "view",
      "type": "function",
      "constant": true
    },
    {
      "inputs": [
        {
          "internalType": "contract Event",
          "name": "event_address",
          "type": "address"
        },
        {
          "internalType": "string",
          "name": "event_item_name",
          "type": "string"
        }
      ],
      "name": "createUserEventItem",
      "outputs": [],
      "stateMutability": "nonpayable",
      "type": "function"
    },
    {
      "inputs": [
        {
          "internalType": "contract Event",
          "name": "event_address",
          "type": "address"
        },
        {
          "internalType": "uint256",
          "name": "event_item_id",
          "type": "uint256"
        }
      ],
      "name": "getEventItemInfo",
      "outputs": [
        {
          "internalType": "uint256",
          "name": "item_id",
          "type": "uint256"
        },
        {
          "internalType": "address payable",
          "name": "item_holder",
          "type": "address"
        },
        {
          "internalType": "string",
          "name": "item_name",
          "type": "string"
        },
        {
          "internalType": "uint256",
          "name": "item_time_expiration",
          "type": "uint256"
        },
        {
          "internalType": "bool",
          "name": "item_checked",
          "type": "bool"
        }
      ],
      "stateMutability": "view",
      "type": "function",
      "constant": true
    },
    {
      "inputs": [
        {
          "internalType": "contract Event",
          "name": "event_address",
          "type": "address"
        }
      ],
      "name": "getEventItemCount",
      "outputs": [
        {
          "internalType": "uint256",
          "name": "item_count",
          "type": "uint256"
        }
      ],
      "stateMutability": "view",
      "type": "function",
      "constant": true
    },
    {
      "inputs": [
        {
          "internalType": "contract Event",
          "name": "event_address",
          "type": "address"
        },
        {
          "internalType": "uint256",
          "name": "item_id",
          "type": "uint256"
        }
      ],
      "name": "updateEventItemState",
      "outputs": [],
      "stateMutability": "nonpayable",
      "type": "function"
    },
    {
      "inputs": [
        {
          "internalType": "contract Event",
          "name": "event_address",
          "type": "address"
        },
        {
          "internalType": "uint256",
          "name": "event_item_id",
          "type": "uint256"
        }
      ],
      "name": "removeEventItem",
      "outputs": [],
      "stateMutability": "nonpayable",
      "type": "function"
    },
    {
      "inputs": [
        {
          "internalType": "contract Event",
          "name": "event_address",
          "type": "address"
        }
      ],
      "name": "removeEvent",
      "outputs": [],
      "stateMutability": "nonpayable",
      "type": "function"
    }
  ],
  "bytecode": "0x608060405260028054600160a060020a03191673367e7e251f63eeccd9af88121a2c7d9f3cd5168c17905534801561003657600080fd5b506040516158e23803806158e28339818101604052604081101561005957600080fd5b508051602090910151600254600160a060020a031633146100db57604080517f08c379a000000000000000000000000000000000000000000000000000000000815260206004820152600d60248201527f4163636573732064656e69656400000000000000000000000000000000000000604482015290519081900360640190fd5b60008054600160a060020a03938416600160a060020a031991821617909155600180549290931691161790556157cc806101166000396000f3fe60806040523480156200001157600080fd5b5060043610620001b8576000357c0100000000000000000000000000000000000000000000000000000000900480639568ebf6116200010a578063b98079bc11620000b6578063c386e545116200008c578063c386e545146200080b578063d9e48f5c146200083a578063eaf8bcdd146200084457620001b8565b8063b98079bc14620007b8578063b9f8270214620007d8578063c27a500d146200080157620001b8565b8063acf65ecd11620000ec578063acf65ecd1462000786578063b34e97e81462000790578063b5cb15f714620007ae57620001b8565b80639568ebf6146200073457806398f82573146200075d57620001b8565b8063280ea253116200016a57806366bc7b7f116200014c57806366bc7b7f146200062f57806368d02e0014620006eb5780636ed6da9e146200071457620001b8565b8063280ea253146200052a578063328cadef146200060657620001b8565b80630f97756111620001a05780630f977561146200035b578063138b5db614620003b75780631aa3a008146200050e57620001b8565b80620ad44e14620001bd5780630f0332a314620001ee575b600080fd5b620001ec60048036036040811015620001d557600080fd5b50600160a060020a03813516906020013562000874565b005b62000217600480360360208110156200020657600080fd5b5035600160a060020a0316620009d2565b6040518089600160a060020a0316600160a060020a0316815260200188600160a060020a0316600160a060020a03168152602001806020018060200187815260200186815260200185815260200184600160a060020a0316600160a060020a03168152602001838103835289818151815260200191508051906020019080838360005b83811015620002b45781810151838201526020016200029a565b50505050905090810190601f168015620002e25780820380516001836020036101000a031916815260200191505b5083810382528851815288516020918201918a019080838360005b8381101562000317578181015183820152602001620002fd565b50505050905090810190601f168015620003455780820380516001836020036101000a031916815260200191505b509a505050505050505050505060405180910390f35b6200036562000d07565b60408051602080825283518183015283519192839290830191858101910280838360005b83811015620003a357818101518382015260200162000389565b505050509050019250505060405180910390f35b620004f260048036036080811015620003cf57600080fd5b810190602081018135640100000000811115620003eb57600080fd5b820183602082011115620003fe57600080fd5b803590602001918460018302840111640100000000831117156200042157600080fd5b91908080601f01602080910402602001604051908101604052809392919081815260200183838082843760009201919091525092959493602081019350359150506401000000008111156200047557600080fd5b8201836020820111156200048857600080fd5b80359060200191846001830284011164010000000083111715620004ab57600080fd5b91908080601f016020809104026020016040519081016040528093929190818152602001838380828437600092019190915250929550508235935050506020013562000f20565b60408051600160a060020a039092168252519081900360200190f35b62000518620011b9565b60408051918252519081900360200190f35b62000559600480360360408110156200054257600080fd5b50600160a060020a038135169060200135620013c4565b6040518086815260200185600160a060020a0316600160a060020a031681526020018060200184815260200183151515158152602001828103825285818151815260200191508051906020019080838360005b83811015620005c6578181015183820152602001620005ac565b50505050905090810190601f168015620005f45780820380516001836020036101000a031916815260200191505b50965050505050505060405180910390f35b620001ec600480360360208110156200061e57600080fd5b5035600160a060020a031662001623565b620001ec600480360360408110156200064757600080fd5b600160a060020a0382351691908101906040810160208201356401000000008111156200067357600080fd5b8201836020820111156200068657600080fd5b80359060200191846001830284011164010000000083111715620006a957600080fd5b91908080601f01602080910402602001604051908101604052809392919081815260200183838082843760009201919091525092955062001779945050505050565b62000365600480360360208110156200070357600080fd5b5035600160a060020a03166200191f565b620004f2600480360360208110156200072c57600080fd5b503562001b25565b62000518600480360360208110156200074c57600080fd5b5035600160a060020a031662001c2b565b62000518600480360360208110156200077557600080fd5b5035600160a060020a031662001d6c565b6200036562001e9c565b6200079a62001fe1565b604080519115158252519081900360200190f35b620005186200207a565b620004f260048036036020811015620007d057600080fd5b503562002150565b620001ec60048036036020811015620007f057600080fd5b5035600160a060020a031662002222565b6200036562002369565b620001ec600480360360408110156200082357600080fd5b50600160a060020a03813516906020013562002440565b6200051862002581565b6200084e62002658565b60408051600160a060020a03938416815291909216602082015281519081900390910190f35b600054604080517fdeac46590000000000000000000000000000000000000000000000000000000081523360048201529051600160a060020a039092169163deac465991602480820192602092909190829003018186803b158015620008d957600080fd5b505afa158015620008ee573d6000803e3d6000fd5b505050506040513d60208110156200090557600080fd5b50516200094d576040516000805160206200574c833981519152815260040180806020018281038252602b8152602001806200576c602b913960400191505060405180910390fd5b604080517fa650f684000000000000000000000000000000000000000000000000000000008152336004820152602481018390529051600160a060020a0384169163a650f68491604480830192600092919082900301818387803b158015620009b557600080fd5b505af1158015620009ca573d6000803e3d6000fd5b505050505050565b60008054604080517fdeac46590000000000000000000000000000000000000000000000000000000081523360048201529051839260609283928592839283928392600160a060020a03169163deac4659916024808301926020929190829003018186803b15801562000a4457600080fd5b505afa15801562000a59573d6000803e3d6000fd5b505050506040513d602081101562000a7057600080fd5b505162000ab8576040516000805160206200574c833981519152815260040180806020018281038252602b8152602001806200576c602b913960400191505060405180910390fd5b88600160a060020a0316635a9b0b896040518163ffffffff167c010000000000000000000000000000000000000000000000000000000002815260040160006040518083038186803b15801562000b0e57600080fd5b505afa15801562000b23573d6000803e3d6000fd5b505050506040513d6000823e601f3d908101601f1916820160405261010081101562000b4e57600080fd5b8151602083015160408085018051915193959294830192918464010000000082111562000b7a57600080fd5b90830190602082018581111562000b9057600080fd5b825164010000000081118282018810171562000bab57600080fd5b82525081516020918201929091019080838360005b8381101562000bda57818101518382015260200162000bc0565b50505050905090810190601f16801562000c085780820380516001836020036101000a031916815260200191505b506040526020018051604051939291908464010000000082111562000c2c57600080fd5b90830190602082018581111562000c4257600080fd5b825164010000000081118282018810171562000c5d57600080fd5b82525081516020918201929091019080838360005b8381101562000c8c57818101518382015260200162000c72565b50505050905090810190601f16801562000cba5780820380516001836020036101000a031916815260200191505b506040526020018051906020019092919080519060200190929190805190602001909291908051906020019092919050505097509750975097509750975097509750919395975091939597565b600054604080517fdeac46590000000000000000000000000000000000000000000000000000000081523360048201529051606092600160a060020a03169163deac4659916024808301926020929190829003018186803b15801562000d6c57600080fd5b505afa15801562000d81573d6000803e3d6000fd5b505050506040513d602081101562000d9857600080fd5b505162000de0576040516000805160206200574c833981519152815260040180806020018281038252602b8152602001806200576c602b913960400191505060405180910390fd5b600154604080517f436df0560000000000000000000000000000000000000000000000000000000081523360048201526000602482018190529151600160a060020a039093169263436df05692604480840193919291829003018186803b15801562000e4b57600080fd5b505afa15801562000e60573d6000803e3d6000fd5b505050506040513d6000823e601f3d908101601f19168201604052602081101562000e8a57600080fd5b810190808051604051939291908464010000000082111562000eab57600080fd5b90830190602082018581111562000ec157600080fd5b825186602082028301116401000000008211171562000edf57600080fd5b82525081516020918201928201910280838360005b8381101562000f0e57818101518382015260200162000ef4565b50505050905001604052505050905090565b60008054604080517fdeac46590000000000000000000000000000000000000000000000000000000081523360048201529051600160a060020a039092169163deac465991602480820192602092909190829003018186803b15801562000f8657600080fd5b505afa15801562000f9b573d6000803e3d6000fd5b505050506040513d602081101562000fb257600080fd5b505162000ffa576040516000805160206200574c833981519152815260040180806020018281038252602b8152602001806200576c602b913960400191505060405180910390fd5b600033868686866040516200100f90620026df565b8086600160a060020a0316600160a060020a031681526020018060200180602001858152602001848152602001838103835287818151815260200191508051906020019080838360005b838110156200107357818101518382015260200162001059565b50505050905090810190601f168015620010a15780820380516001836020036101000a031916815260200191505b50838103825286518152865160209182019188019080838360005b83811015620010d6578181015183820152602001620010bc565b50505050905090810190601f168015620011045780820380516001836020036101000a031916815260200191505b50975050505050505050604051809103906000f0801580156200112b573d6000803e3d6000fd5b50600154604080517f243d9220000000000000000000000000000000000000000000000000000000008152600160a060020a038085166004830152915193945091169163243d92209160248082019260009290919082900301818387803b1580156200119657600080fd5b505af1158015620011ab573d6000803e3d6000fd5b509298975050505050505050565b60008054604080517fdeac4659000000000000000000000000000000000000000000000000000000008152336004820181905291519192600160a060020a03169163deac465991602480820192602092909190829003018186803b1580156200122157600080fd5b505afa15801562001236573d6000803e3d6000fd5b505050506040513d60208110156200124d57600080fd5b505115620012ab57604080516000805160206200574c833981519152815260206004820152601760248201527f5573657220616c72656164792072656769737465726564000000000000000000604482015290519081900360640190fd5b60008054604080517f243d9220000000000000000000000000000000000000000000000000000000008152600160a060020a0385811660048301529151919092169263243d9220926024808201939182900301818387803b1580156200131057600080fd5b505af115801562001325573d6000803e3d6000fd5b5050600054604080517f16c19739000000000000000000000000000000000000000000000000000000008152600160a060020a03868116600483015291519190921693506316c1973992506024808301926020929190829003018186803b1580156200139057600080fd5b505afa158015620013a5573d6000803e3d6000fd5b505050506040513d6020811015620013bc57600080fd5b505191505090565b60008054604080517fdeac46590000000000000000000000000000000000000000000000000000000081523360048201529051839260609284928392600160a060020a03169163deac4659916024808301926020929190829003018186803b1580156200143057600080fd5b505afa15801562001445573d6000803e3d6000fd5b505050506040513d60208110156200145c57600080fd5b5051620014a4576040516000805160206200574c833981519152815260040180806020018281038252602b8152602001806200576c602b913960400191505060405180910390fd5b86600160a060020a031663de7fe3e7876040518263ffffffff167c01000000000000000000000000000000000000000000000000000000000281526004018082815260200191505060006040518083038186803b1580156200150557600080fd5b505afa1580156200151a573d6000803e3d6000fd5b505050506040513d6000823e601f3d908101601f1916820160405260a08110156200154457600080fd5b815160208301516040808501805191519395929483019291846401000000008211156200157057600080fd5b9083019060208201858111156200158657600080fd5b8251640100000000811182820188101715620015a157600080fd5b82525081516020918201929091019080838360005b83811015620015d0578181015183820152602001620015b6565b50505050905090810190601f168015620015fe5780820380516001836020036101000a031916815260200191505b5060409081526020820151910151959d949c50929a5091985092965090945050505050565b600054604080517fdeac46590000000000000000000000000000000000000000000000000000000081523360048201529051600160a060020a039092169163deac465991602480820192602092909190829003018186803b1580156200168857600080fd5b505afa1580156200169d573d6000803e3d6000fd5b505050506040513d6020811015620016b457600080fd5b5051620016fc576040516000805160206200574c833981519152815260040180806020018281038252602b8152602001806200576c602b913960400191505060405180910390fd5b604080517fb91038c70000000000000000000000000000000000000000000000000000000081523360048201529051600160a060020a0383169163b91038c791602480830192600092919082900301818387803b1580156200175d57600080fd5b505af115801562001772573d6000803e3d6000fd5b5050505050565b600054604080517fdeac46590000000000000000000000000000000000000000000000000000000081523360048201529051600160a060020a039092169163deac465991602480820192602092909190829003018186803b158015620017de57600080fd5b505afa158015620017f3573d6000803e3d6000fd5b505050506040513d60208110156200180a57600080fd5b505162001852576040516000805160206200574c833981519152815260040180806020018281038252602b8152602001806200576c602b913960400191505060405180910390fd5b604080517f8ab77ed5000000000000000000000000000000000000000000000000000000008152336004820181815260248301938452845160448401528451600160a060020a03871694638ab77ed594879392606490910190602085019080838360005b83811015620018d0578181015183820152602001620018b6565b50505050905090810190601f168015620018fe5780820380516001836020036101000a031916815260200191505b509350505050600060405180830381600087803b158015620009b557600080fd5b600054604080517fdeac46590000000000000000000000000000000000000000000000000000000081523360048201529051606092600160a060020a03169163deac4659916024808301926020929190829003018186803b1580156200198457600080fd5b505afa15801562001999573d6000803e3d6000fd5b505050506040513d6020811015620019b057600080fd5b5051620019f8576040516000805160206200574c833981519152815260040180806020018281038252602b8152602001806200576c602b913960400191505060405180910390fd5b81600160a060020a031663c94d0a486040518163ffffffff167c010000000000000000000000000000000000000000000000000000000002815260040160006040518083038186803b15801562001a4e57600080fd5b505afa15801562001a63573d6000803e3d6000fd5b505050506040513d6000823e601f3d908101601f19168201604052602081101562001a8d57600080fd5b810190808051604051939291908464010000000082111562001aae57600080fd5b90830190602082018581111562001ac457600080fd5b825186602082028301116401000000008211171562001ae257600080fd5b82525081516020918201928201910280838360005b8381101562001b1157818101518382015260200162001af7565b505050509050016040525050509050919050565b600254600090600160a060020a0316331462001b9157604080516000805160206200574c833981519152815260206004820152600d60248201527f4163636573732064656e69656400000000000000000000000000000000000000604482015290519081900360640190fd5b600054604080517f6714b669000000000000000000000000000000000000000000000000000000008152600481018590529051600160a060020a0390921691636714b66991602480820192602092909190829003018186803b15801562001bf757600080fd5b505afa15801562001c0c573d6000803e3d6000fd5b505050506040513d602081101562001c2357600080fd5b505192915050565b60008054604080517fdeac46590000000000000000000000000000000000000000000000000000000081523360048201529051600160a060020a039092169163deac465991602480820192602092909190829003018186803b15801562001c9157600080fd5b505afa15801562001ca6573d6000803e3d6000fd5b505050506040513d602081101562001cbd57600080fd5b505162001d05576040516000805160206200574c833981519152815260040180806020018281038252602b8152602001806200576c602b913960400191505060405180910390fd5b600154604080517f16c19739000000000000000000000000000000000000000000000000000000008152600160a060020a038581166004830152915191909216916316c19739916024808301926020929190829003018186803b15801562001bf757600080fd5b60008054604080517fdeac46590000000000000000000000000000000000000000000000000000000081523360048201529051600160a060020a039092169163deac465991602480820192602092909190829003018186803b15801562001dd257600080fd5b505afa15801562001de7573d6000803e3d6000fd5b505050506040513d602081101562001dfe57600080fd5b505162001e46576040516000805160206200574c833981519152815260040180806020018281038252602b8152602001806200576c602b913960400191505060405180910390fd5b81600160a060020a0316637749cf236040518163ffffffff167c010000000000000000000000000000000000000000000000000000000002815260040160206040518083038186803b15801562001bf757600080fd5b600054604080517fdeac46590000000000000000000000000000000000000000000000000000000081523360048201529051606092600160a060020a03169163deac4659916024808301926020929190829003018186803b15801562001f0157600080fd5b505afa15801562001f16573d6000803e3d6000fd5b505050506040513d602081101562001f2d57600080fd5b505162001f75576040516000805160206200574c833981519152815260040180806020018281038252602b8152602001806200576c602b913960400191505060405180910390fd5b60018054604080517f436df056000000000000000000000000000000000000000000000000000000008152336004820152602481019390935251600160a060020a039091169163436df056916044808301926000929190829003018186803b15801562000e4b57600080fd5b60008054604080517fdeac46590000000000000000000000000000000000000000000000000000000081523360048201529051600160a060020a039092169163deac465991602480820192602092909190829003018186803b1580156200204757600080fd5b505afa1580156200205c573d6000803e3d6000fd5b505050506040513d60208110156200207357600080fd5b5051905090565b600254600090600160a060020a03163314620020e657604080516000805160206200574c833981519152815260206004820152600d60248201527f4163636573732064656e69656400000000000000000000000000000000000000604482015290519081900360640190fd5b6000809054906101000a9004600160a060020a0316600160a060020a0316633ec768576040518163ffffffff167c010000000000000000000000000000000000000000000000000000000002815260040160206040518083038186803b1580156200204757600080fd5b600254600090600160a060020a03163314620021bc57604080516000805160206200574c833981519152815260206004820152600d60248201527f4163636573732064656e69656400000000000000000000000000000000000000604482015290519081900360640190fd5b600154604080517f6714b669000000000000000000000000000000000000000000000000000000008152600481018590529051600160a060020a0390921691636714b66991602480820192602092909190829003018186803b15801562001bf757600080fd5b600054604080517fdeac46590000000000000000000000000000000000000000000000000000000081523360048201529051600160a060020a039092169163deac465991602480820192602092909190829003018186803b1580156200228757600080fd5b505afa1580156200229c573d6000803e3d6000fd5b505050506040513d6020811015620022b357600080fd5b5051620022fb576040516000805160206200574c833981519152815260040180806020018281038252602b8152602001806200576c602b913960400191505060405180910390fd5b600154604080517fe5b40eaf000000000000000000000000000000000000000000000000000000008152600160a060020a0384811660048301523360248301529151919092169163e5b40eaf91604480830192600092919082900301818387803b1580156200175d57600080fd5b600254606090600160a060020a03163314620023d557604080516000805160206200574c833981519152815260206004820152600d60248201527f4163636573732064656e69656400000000000000000000000000000000000000604482015290519081900360640190fd5b600160009054906101000a9004600160a060020a0316600160a060020a03166311ef241b6040518163ffffffff167c010000000000000000000000000000000000000000000000000000000002815260040160006040518083038186803b15801562000e4b57600080fd5b600054604080517fdeac46590000000000000000000000000000000000000000000000000000000081523360048201529051600160a060020a039092169163deac465991602480820192602092909190829003018186803b158015620024a557600080fd5b505afa158015620024ba573d6000803e3d6000fd5b505050506040513d6020811015620024d157600080fd5b505162002519576040516000805160206200574c833981519152815260040180806020018281038252602b8152602001806200576c602b913960400191505060405180910390fd5b604080517f8d258212000000000000000000000000000000000000000000000000000000008152336004820152602481018390529051600160a060020a03841691638d25821291604480830192600092919082900301818387803b158015620009b557600080fd5b600254600090600160a060020a03163314620025ed57604080516000805160206200574c833981519152815260206004820152600d60248201527f4163636573732064656e69656400000000000000000000000000000000000000604482015290519081900360640190fd5b600160009054906101000a9004600160a060020a0316600160a060020a0316633ec768576040518163ffffffff167c010000000000000000000000000000000000000000000000000000000002815260040160206040518083038186803b1580156200204757600080fd5b6002546000908190600160a060020a03163314620026c657604080516000805160206200574c833981519152815260206004820152600d60248201527f4163636573732064656e69656400000000000000000000000000000000000000604482015290519081900360640190fd5b5050600054600154600160a060020a0391821691169091565b61305e80620026ee8339019056fe60806040523480156200001157600080fd5b506040516200305e3803806200305e8339810160408190526200003491620002df565b60008054600160a060020a0319908116301790915560028054600160a060020a038816908316179055600180549091163317905583516200007d90600490602087019062000185565b5082516200009390600690602086019062000185565b504260075560088290556009819055600a829055604051620000b5906200020a565b604051809103906000f080158015620000d2573d6000803e3d6000fd5b5060038054600160a060020a031916600160a060020a0392909216919091179055600954600854106200013c576040517f08c379a00000000000000000000000000000000000000000000000000000000081526004016200013390620003d5565b60405180910390fd5b42600854116200017a576040517f08c379a0000000000000000000000000000000000000000000000000000000008152600401620001339062000378565b505050505062000432565b828054600181600116156101000203166002900490600052602060002090601f016020900481019282601f10620001c857805160ff1916838001178555620001f8565b82800160010185558215620001f8579182015b82811115620001f8578251825591602001919060010190620001db565b506200020692915062000218565b5090565b6108be80620027a083390190565b6200023591905b808211156200020657600081556001016200021f565b90565b600082601f83011262000249578081fd5b81516001604060020a038082111562000260578283fd5b6040516020601f8401601f191682018101838111838210171562000282578586fd5b806040525081945083825286818588010111156200029f57600080fd5b600092505b83831015620002c35785830181015182840182015291820191620002a4565b83831115620002d55760008185840101525b5050505092915050565b600080600080600060a08688031215620002f7578081fd5b8551600160a060020a03811681146200030e578182fd5b60208701519095506001604060020a03808211156200032b578283fd5b6200033989838a0162000238565b955060408801519150808211156200034f578283fd5b506200035e8882890162000238565b606088015160809098015196999598509695949350505050565b60208082526026908201527f6576656e742073746172742074696d65206d75737420626520696e207468652060408201527f6675747572650000000000000000000000000000000000000000000000000000606082015260800190565b60208082526028908201527f6576656e742073746172742074696d65206d757374206265206265666f72652060408201527f656e642074696d65000000000000000000000000000000000000000000000000606082015260800190565b61235e80620004426000396000f3fe608060405234801561001057600080fd5b506004361061025e576000357c0100000000000000000000000000000000000000000000000000000000900480638d25821211610162578063c94d0a48116100da578063d9561a91116100a9578063ded7374c1161008e578063ded7374c146104a7578063e23a845a146104ba578063e5b0c5a7146104c25761025e565b8063d9561a9114610470578063de7fe3e7146104835761025e565b8063c94d0a4814610438578063ccb98ffc1461044d578063ce2ce3fc14610460578063d5009584146104685761025e565b8063a2221ffc11610131578063b22c36d511610116578063b22c36d51461040a578063b91038c714610412578063c0cc365d146104255761025e565b8063a2221ffc146103ef578063a650f684146103f75761025e565b80638d258212146103a357806390c3f38f146103b6578063929066f5146103c9578063932354c1146103dc5761025e565b80635d1ca631116101f5578063843bd641116101c457806384de1ea5116101a957806384de1ea5146103805780638ab77ed5146103885780638b915c251461039b5761025e565b8063843bd6411461035a57806384da92a71461036d5761025e565b80635d1ca63114610322578063668a20011461032a5780637749cf231461033d57806383707647146103455761025e565b806338a730611161023157806338a73061146102c95780633e0a322d146102e95780635a9b0b89146102fe5780635aa68ac01461031a5761025e565b806305111c1e1461026357806317d7de7c1461028c5780631a092541146102a15780632e141e90146102a9575b600080fd5b610276610271366004611d51565b6104d5565b6040516102839190611de3565b60405180910390f35b61029461055d565b6040516102839190611fa8565b6102946105f4565b6102bc6102b7366004611d51565b610655565b6040516102839190611f9d565b6102dc6102d7366004611d51565b6106c1565b6040516102839190612268565b6102fc6102f7366004611d51565b610729565b005b610306610796565b604051610283989796959493929190611e04565b61027661091a565b610276610936565b6102fc610338366004611baf565b610952565b6102dc610a1c565b61034d610a65565b6040516102839190611ed5565b6102bc610368366004611d51565b610bde565b6102fc61037b366004611d16565b610c31565b610276610c87565b6102fc610396366004611bd2565b610ca3565b6102dc610e65565b6102fc6103b1366004611c20565b610e6b565b6102fc6103c4366004611d16565b6110d4565b6102bc6103d7366004611baf565b611126565b6102fc6103ea366004611d16565b6111cd565b6102dc61121f565b6102fc610405366004611c20565b611225565b6102dc611326565b6102fc610420366004611baf565b61132c565b6102fc610433366004611d51565b61142d565b61044061149b565b6040516102839190611e7b565b6102fc61045b366004611d51565b611547565b6102946115b4565b610276611615565b61029461047e366004611d51565b611674565b610496610491366004611d51565b611767565b604051610283959493929190612271565b6102bc6104b5366004611d69565b611940565b6102dc6119c0565b6102bc6104d0366004611baf565b6119c6565b60015460009073ffffffffffffffffffffffffffffffffffffffff16331461052057604051600080516020612309833981519152815260040161051790611fbb565b60405180910390fd5b600b828154811061052d57fe5b600091825260209091206005909102016001015473ffffffffffffffffffffffffffffffffffffffff1692915050565b60048054604080516020601f60026000196101006001881615020190951694909404938401819004810282018101909252828152606093909290918301828280156105e95780601f106105be576101008083540402835291602001916105e9565b820191906000526020600020905b8154815290600101906020018083116105cc57829003601f168201915b505050505090505b90565b60058054604080516020601f60026000196101006001881615020190951694909404938401819004810282018101909252828152606093909290918301828280156105e95780601f106105be576101008083540402835291602001916105e9565b60015460009073ffffffffffffffffffffffffffffffffffffffff16331461069757604051600080516020612309833981519152815260040161051790611fbb565b600b82815481106106a457fe5b600091825260209091206005909102016004015460ff1692915050565b60015460009073ffffffffffffffffffffffffffffffffffffffff16331461070357604051600080516020612309833981519152815260040161051790611fbb565b600b828154811061071057fe5b9060005260206000209060050201600301549050919050565b60015473ffffffffffffffffffffffffffffffffffffffff16331461076857604051600080516020612309833981519152815260040161051790611fbb565b60095481106107915760405160008051602061230983398151915281526004016105179061220b565b600855565b6000805460028054600854600954600754600354600480546040805160206101006001851615026000190190931699909904601f810183900483028a0183019091528089528a996060998a998c998a998a998a9973ffffffffffffffffffffffffffffffffffffffff96871699948716989497600697949693959294909116929188919083018282801561086b5780601f106108405761010080835404028352916020019161086b565b820191906000526020600020905b81548152906001019060200180831161084e57829003601f168201915b5050885460408051602060026001851615610100026000190190941693909304601f8101849004840282018401909252818152959b508a9450925084019050828280156108f95780601f106108ce576101008083540402835291602001916108f9565b820191906000526020600020905b8154815290600101906020018083116108dc57829003601f168201915b50505050509450975097509750975097509750975097509091929394959697565b60035473ffffffffffffffffffffffffffffffffffffffff1690565b60005473ffffffffffffffffffffffffffffffffffffffff1690565b60015473ffffffffffffffffffffffffffffffffffffffff16331461099157604051600080516020612309833981519152815260040161051790611fbb565b6003546040517ff033520500000000000000000000000000000000000000000000000000000000815273ffffffffffffffffffffffffffffffffffffffff9091169063f0335205906109e7908490600401611de3565b600060405180830381600087803b158015610a0157600080fd5b505af1158015610a15573d6000803e3d6000fd5b5050505050565b60015460009073ffffffffffffffffffffffffffffffffffffffff163314610a5e57604051600080516020612309833981519152815260040161051790611fbb565b50600b5490565b60015460609073ffffffffffffffffffffffffffffffffffffffff163314610aa757604051600080516020612309833981519152815260040161051790611fbb565b600b805480602002602001604051908101604052809291908181526020016000905b82821015610bd55760008481526020908190206040805160a081018252600586029092018054835260018082015473ffffffffffffffffffffffffffffffffffffffff16848601526002808301805485516101009482161594909402600019011691909104601f8101879004870283018701855280835294959294938601939192909190830182828015610b9e5780601f10610b7357610100808354040283529160200191610b9e565b820191906000526020600020905b815481529060010190602001808311610b8157829003601f168201915b5050509183525050600382015460208083019190915260049092015460ff1615156040909101529082526001929092019101610ac9565b50505050905090565b60015460009073ffffffffffffffffffffffffffffffffffffffff163314610c2057604051600080516020612309833981519152815260040161051790611fbb565b610c28610a1c565b82105b92915050565b60015473ffffffffffffffffffffffffffffffffffffffff163314610c7057604051600080516020612309833981519152815260040161051790611fbb565b8051610c839060049060208401906119e7565b5050565b60025473ffffffffffffffffffffffffffffffffffffffff1690565b60015473ffffffffffffffffffffffffffffffffffffffff163314610ce257604051600080516020612309833981519152815260040161051790611fbb565b60025473ffffffffffffffffffffffffffffffffffffffff83811691161480610d0f5750610d0f82611126565b610d33576040516000805160206123098339815191528152600401610517906120e3565b6000610d3d610a1c565b6040805160a08101825282815273ffffffffffffffffffffffffffffffffffffffff8681166020808401918252938301878152600a546060850152600060808501819052600b8054600181018255915284517f0175b7a638427703f0dbe7bb9bbf987a2551717b34e79f33b5b1008d1fa01db9600590920291820190815592517f0175b7a638427703f0dbe7bb9bbf987a2551717b34e79f33b5b1008d1fa01dba8201805473ffffffffffffffffffffffffffffffffffffffff1916919095161790935551805195965092949093610e3b937f0175b7a638427703f0dbe7bb9bbf987a2551717b34e79f33b5b1008d1fa01dbb9093019201906119e7565b50606082015160038201556080909101516004909101805460ff1916911515919091179055505050565b60085490565b60015473ffffffffffffffffffffffffffffffffffffffff163314610eaa57604051600080516020612309833981519152815260040161051790611fbb565b60025473ffffffffffffffffffffffffffffffffffffffff83811691161480610ed85750610ed88183611940565b610efc5760405160008051602061230983398151915281526004016105179061204f565b610f0581610bde565b610f2957604051600080516020612309833981519152815260040161051790612177565b600b8181548110610f3657fe5b60009182526020822060059091020181815560018101805473ffffffffffffffffffffffffffffffffffffffff1916905590610f756002830182611a65565b5060006003820155600401805460ff19169055805b600b546000190181101561106a57600b8160010181548110610fa857fe5b9060005260206000209060050201600b8281548110610fc357fe5b600091825260209091208254600590920201908155600180830154818301805473ffffffffffffffffffffffffffffffffffffffff191673ffffffffffffffffffffffffffffffffffffffff9092169190911790556002808401805461103c938386019390821615610100026000190190911604611aac565b50600382810154908201556004918201549101805460ff191660ff9092161515919091179055600101610f8a565b50600b80548061107657fe5b60008281526020812060056000199093019283020181815560018101805473ffffffffffffffffffffffffffffffffffffffff19169055906110bb6002830182611a65565b5060006003820155600401805460ff1916905590555050565b60015473ffffffffffffffffffffffffffffffffffffffff16331461111357604051600080516020612309833981519152815260040161051790611fbb565b8051610c839060059060208401906119e7565b6003546040517fdeac465900000000000000000000000000000000000000000000000000000000815260009173ffffffffffffffffffffffffffffffffffffffff169063deac46599061117d908590600401611de3565b60206040518083038186803b15801561119557600080fd5b505afa1580156111a9573d6000803e3d6000fd5b505050506040513d601f19601f82011682018060405250810190610c2b9190611cf6565b60015473ffffffffffffffffffffffffffffffffffffffff16331461120c57604051600080516020612309833981519152815260040161051790611fbb565b8051610c839060069060208401906119e7565b60095490565b60015473ffffffffffffffffffffffffffffffffffffffff16331461126457604051600080516020612309833981519152815260040161051790611fbb565b60025473ffffffffffffffffffffffffffffffffffffffff8381169116148061129257506112928183611940565b6112b65760405160008051602061230983398151915281526004016105179061204f565b6112bf81610bde565b6112e357604051600080516020612309833981519152815260040161051790612177565b60006112ee82610655565b90508015600b83815481106112ff57fe5b60009182526020909120600590910201600401805460ff1916911515919091179055505050565b60075490565b60015473ffffffffffffffffffffffffffffffffffffffff16331461136b57604051600080516020612309833981519152815260040161051790611fbb565b60025473ffffffffffffffffffffffffffffffffffffffff828116911614156113ae576040516000805160206123098339815191528152600401610517906120ac565b42600a54116113d757604051600080516020612309833981519152815260040161051790612018565b6003546040517f243d922000000000000000000000000000000000000000000000000000000000815273ffffffffffffffffffffffffffffffffffffffff9091169063243d9220906109e7908490600401611de3565b60015473ffffffffffffffffffffffffffffffffffffffff16331461146c57604051600080516020612309833981519152815260040161051790611fbb565b600854811115611496576040516000805160206123098339815191528152600401610517906121ae565b600a55565b600354604080517fd504ea1d000000000000000000000000000000000000000000000000000000008152905160609273ffffffffffffffffffffffffffffffffffffffff169163d504ea1d916004808301926000929190829003018186803b15801561150657600080fd5b505afa15801561151a573d6000803e3d6000fd5b505050506040513d6000823e601f3d908101601f191682016040526115429190810190611c4b565b905090565b60015473ffffffffffffffffffffffffffffffffffffffff16331461158657604051600080516020612309833981519152815260040161051790611fbb565b60085481116115af5760405160008051602061230983398151915281526004016105179061211a565b600955565b60068054604080516020601f60026000196101006001881615020190951694909404938401819004810282018101909252828152606093909290918301828280156105e95780601f106105be576101008083540402835291602001916105e9565b60015460009073ffffffffffffffffffffffffffffffffffffffff16331461165757604051600080516020612309833981519152815260040161051790611fbb565b5060015473ffffffffffffffffffffffffffffffffffffffff1690565b60015460609073ffffffffffffffffffffffffffffffffffffffff1633146116b657604051600080516020612309833981519152815260040161051790611fbb565b600b82815481106116c357fe5b600091825260209182902060026005909202018101805460408051601f60001961010060018616150201909316949094049182018590048502840185019052808352919290919083018282801561175b5780601f106117305761010080835404028352916020019161175b565b820191906000526020600020905b81548152906001019060200180831161173e57829003601f168201915b50505050509050919050565b60015460009081906060908290819073ffffffffffffffffffffffffffffffffffffffff1633146117b257604051600080516020612309833981519152815260040161051790611fbb565b6117bb86610bde565b6117df57604051600080516020612309833981519152815260040161051790612177565b600b86815481106117ec57fe5b906000526020600020906005020160000154600b878154811061180b57fe5b906000526020600020906005020160010160009054906101000a900473ffffffffffffffffffffffffffffffffffffffff16600b888154811061184a57fe5b9060005260206000209060050201600201600b898154811061186857fe5b906000526020600020906005020160030154600b8a8154811061188757fe5b600091825260209182902060046005909202010154835460408051601f6002600019600186161561010002019094169390930492830185900485028101850190915281815260ff909216928591908301828280156119265780601f106118fb57610100808354040283529160200191611926565b820191906000526020600020905b81548152906001019060200180831161190957829003601f168201915b505050505092509450945094509450945091939590929450565b60015460009073ffffffffffffffffffffffffffffffffffffffff16331461198257604051600080516020612309833981519152815260040161051790611fbb565b8173ffffffffffffffffffffffffffffffffffffffff166119a2846104d5565b73ffffffffffffffffffffffffffffffffffffffff16149392505050565b600a5490565b60025473ffffffffffffffffffffffffffffffffffffffff90811691161490565b828054600181600116156101000203166002900490600052602060002090601f016020900481019282601f10611a2857805160ff1916838001178555611a55565b82800160010185558215611a55579182015b82811115611a55578251825591602001919060010190611a3a565b50611a61929150611b21565b5090565b50805460018160011615610100020316600290046000825580601f10611a8b5750611aa9565b601f016020900490600052602060002090810190611aa99190611b21565b50565b828054600181600116156101000203166002900490600052602060002090601f016020900481019282601f10611ae55780548555611a55565b82800160010185558215611a5557600052602060002091601f016020900482015b82811115611a55578254825591600101919060010190611b06565b6105f191905b80821115611a615760008155600101611b27565b8051610c2b816122e6565b600082601f830112611b56578081fd5b813567ffffffffffffffff811115611b6c578182fd5b611b7f6020601f19601f840116016122bf565b9150808252836020828501011115611b9657600080fd5b8060208401602084013760009082016020015292915050565b600060208284031215611bc0578081fd5b8135611bcb816122e6565b9392505050565b60008060408385031215611be4578081fd5b8235611bef816122e6565b9150602083013567ffffffffffffffff811115611c0a578182fd5b611c1685828601611b46565b9150509250929050565b60008060408385031215611c32578182fd5b8235611c3d816122e6565b946020939093013593505050565b60006020808385031215611c5d578182fd5b825167ffffffffffffffff80821115611c74578384fd5b81850186601f820112611c85578485fd5b8051925081831115611c95578485fd5b8383029150611ca58483016122bf565b8381528481019082860184840187018a1015611cbf578788fd5b8794505b85851015611ce957611cd58a82611b3b565b835260019490940193918601918601611cc3565b5098975050505050505050565b600060208284031215611d07578081fd5b81518015158114611bcb578182fd5b600060208284031215611d27578081fd5b813567ffffffffffffffff811115611d3d578182fd5b611d4984828501611b46565b949350505050565b600060208284031215611d62578081fd5b5035919050565b60008060408385031215611d7b578182fd5b823591506020830135611d8d816122e6565b809150509250929050565b60008151808452815b81811015611dbd57602081850181015186830182015201611da1565b81811115611dce5782602083870101525b50601f01601f19169290920160200192915050565b73ffffffffffffffffffffffffffffffffffffffff91909116815260200190565b600061010073ffffffffffffffffffffffffffffffffffffffff808c168452808b166020850152816040850152611e3d8285018b611d98565b8481036060860152611e4f818b611d98565b9350508760808501528660a08501528560c085015280851660e085015250509998505050505050505050565b6020808252825182820181905260009190848201906040850190845b81811015611ec957835173ffffffffffffffffffffffffffffffffffffffff1683529284019291840191600101611e97565b50909695505050505050565b60208082528251828201819052600091906040908185019080840286018301878501865b83811015611f8f577fffffffffffffffffffffffffffffffffffffffffffffffffffffffffffffffc0898403018552815160a08151855273ffffffffffffffffffffffffffffffffffffffff898301511689860152878201518189870152611f6382870182611d98565b606084810151908801526080938401511515939096019290925250509386019390860190600101611ef9565b509098975050505050505050565b901515815260200190565b600060208252611bcb6020830184611d98565b60208082526023908201527f416363657373206973206f6e6c7920616c6c6f77656420666f72206d616e616760408201527f65722e0000000000000000000000000000000000000000000000000000000000606082015260800190565b60208082526010908201527f6576656e74206973206578706972656400000000000000000000000000000000604082015260600190565b60208082526027908201527f55736572206973206e6f7420616c6c6f77656420746f2075706461746520697460408201527f656d20696e666f00000000000000000000000000000000000000000000000000606082015260800190565b6020808252601d908201527f796f752061726520616c72656164792074686520696e69746961746f72000000604082015260600190565b60208082526017908201527f55736572206973206e6f74207061727469636970616e74000000000000000000604082015260600190565b60208082526027908201527f6576656e7420656e642074696d65206d7573742062652061667465722073746160408201527f72742074696d6500000000000000000000000000000000000000000000000000606082015260800190565b60208082526013908201527f4974656d20646f6573206e6f7420657869737400000000000000000000000000604082015260600190565b6020808252602f908201527f6576656e742065787069726174696f6e2074696d65206d75737420626520626560408201527f666f72652073746172742074696d650000000000000000000000000000000000606082015260800190565b60208082526028908201527f6576656e742073746172742074696d65206d757374206265206265666f72652060408201527f656e642074696d65000000000000000000000000000000000000000000000000606082015260800190565b90815260200190565b600086825273ffffffffffffffffffffffffffffffffffffffff8616602083015260a060408301526122a660a0830186611d98565b6060830194909452509015156080909101529392505050565b60405181810167ffffffffffffffff811182821017156122de57600080fd5b604052919050565b73ffffffffffffffffffffffffffffffffffffffff81168114611aa957600080fdfe08c379a000000000000000000000000000000000000000000000000000000000a264697066735822122096db110a5bdfd36633cb2bf05598397b9ec7ce3b5772f86b9a3a2c7e1cff494a64736f6c63430006070033608060405234801561001057600080fd5b506001805480820182556000919091527fb10e2d527612073b26eecdfd717e6a320cf44b4afac2b0732d9fcbe2b7fa0cf6018054600160a060020a031916905561085f8061005f6000396000f3fe608060405234801561001057600080fd5b506004361061009a576000357c0100000000000000000000000000000000000000000000000000000000900480636714b669116100785780636714b66914610121578063d504ea1d14610167578063deac4659146101bf578063f0335205146102065761009a565b806316c197391461009f578063243d9220146100e45780633ec7685714610119575b600080fd5b6100d2600480360360208110156100b557600080fd5b503573ffffffffffffffffffffffffffffffffffffffff16610239565b60408051918252519081900360200190f35b610117600480360360208110156100fa57600080fd5b503573ffffffffffffffffffffffffffffffffffffffff1661028b565b005b6100d26103fc565b61013e6004803603602081101561013757600080fd5b5035610406565b6040805173ffffffffffffffffffffffffffffffffffffffff9092168252519081900360200190f35b61016f61051b565b60408051602080825283518183015283519192839290830191858101910280838360005b838110156101ab578181015183820152602001610193565b505050509050019250505060405180910390f35b6101f2600480360360208110156101d557600080fd5b503573ffffffffffffffffffffffffffffffffffffffff166105f1565b604080519115158252519081900360200190f35b6101176004803603602081101561021c57600080fd5b503573ffffffffffffffffffffffffffffffffffffffff1661061b565b600073ffffffffffffffffffffffffffffffffffffffff821661025e57506000610286565b5073ffffffffffffffffffffffffffffffffffffffff81166000908152602081905260409020545b919050565b73ffffffffffffffffffffffffffffffffffffffff811661030d57604080517f08c379a000000000000000000000000000000000000000000000000000000000815260206004820152600f60248201527f496e76616c696420616464726573730000000000000000000000000000000000604482015290519081900360640190fd5b610316816105f1565b1561038257604080517f08c379a000000000000000000000000000000000000000000000000000000000815260206004820152601860248201527f4164647265737320616c726561647920696e2041727261790000000000000000604482015290519081900360640190fd5b6001805473ffffffffffffffffffffffffffffffffffffffff90921660008181526020819052604081208490558383018355919091527fb10e2d527612073b26eecdfd717e6a320cf44b4afac2b0732d9fcbe2b7fa0cf6909101805473ffffffffffffffffffffffffffffffffffffffff19169091179055565b6001546000190190565b600080821161047657604080517f08c379a000000000000000000000000000000000000000000000000000000000815260206004820152601760248201527f7468697320696e646578206973206e6f742076616c6964000000000000000000604482015290519081900360640190fd5b60015482106104e657604080517f08c379a000000000000000000000000000000000000000000000000000000000815260206004820152600d60248201527f6f7574206f6620626f756e647300000000000000000000000000000000000000604482015290519081900360640190fd5b600182815481106104f357fe5b60009182526020909120015473ffffffffffffffffffffffffffffffffffffffff1692915050565b6001546060906000190167ffffffffffffffff8111801561053b57600080fd5b50604051908082528060200260200182016040528015610565578160200160208202803683370190505b50905060005b600154600019018110156105ed576001816001018154811061058957fe5b9060005260206000200160009054906101000a900473ffffffffffffffffffffffffffffffffffffffff168282815181106105c057fe5b73ffffffffffffffffffffffffffffffffffffffff9092166020928302919091019091015260010161056b565b5090565b73ffffffffffffffffffffffffffffffffffffffff16600090815260208190526040902054151590565b610624816105f1565b61068f57604080517f08c379a000000000000000000000000000000000000000000000000000000000815260206004820152601460248201527f41646472657373206e6f7420696e204172726179000000000000000000000000604482015290519081900360640190fd5b600061069a82610239565b9050805b600154600019018110156107c457600080600183815481106106bc57fe5b600091825260208083209091015473ffffffffffffffffffffffffffffffffffffffff1683528201929092526040018120546001805491929182919085820190811061070457fe5b600091825260208083209091015473ffffffffffffffffffffffffffffffffffffffff1683528201929092526040019020556001805482820190811061074657fe5b6000918252602090912001546001805473ffffffffffffffffffffffffffffffffffffffff909216918390811061077957fe5b6000918252602090912001805473ffffffffffffffffffffffffffffffffffffffff191673ffffffffffffffffffffffffffffffffffffffff9290921691909117905560010161069e565b5073ffffffffffffffffffffffffffffffffffffffff821660009081526020819052604081205560018054806107f657fe5b6000828152602090208101600019908101805473ffffffffffffffffffffffffffffffffffffffff19169055019055505056fea26469706673582212207139579425e15895e91bc0a84abfd3be9b36ef49f581206dd9f1a1cb5bf68d3264736f6c6343000607003308c379a000000000000000000000000000000000000000000000000000000000416363657373206973206f6e6c7920616c6c6f77656420666f722072656769737465726564207573657273a2646970667358221220c3342a79d806bb8e762573fad00732f049e4685f4b047cd3a366ff0e3edc172d64736f6c63430006070033",
  "immutableReferences": {},
  "source": "// SPDX-License-Identifier: MIT\r\npragma solidity ^0.6.7;\r\n\r\n// import storage\r\nimport \"../contracts/Storage/Set.sol\" as SetStorage;\r\nimport \"../contracts/Storage/EventSet.sol\" as EventStorage;\r\n\r\n// import event contract\r\nimport \"../contracts/Event.sol\" as EventContract;\r\n\r\n// EVENTMANAGER\r\n// Governance Contract\r\n// This contract manages\r\n// - User Account Creation\r\n// - Event Creation and Management by the User itself\r\ncontract EventManager {\r\n\r\n    // VARIABLES\r\n    SetStorage.Set                  private user_storage;               // user address storage\r\n    EventStorage.EventSet           private event_storage;              // event storage\r\n\r\n    // address                 payable private admin = 0xad67a760e4Cb77e19F1B7B79d6B4901B5360DEF1;     // admin address (rinkeby)\r\n    address                 payable private admin = 0x367E7e251F63eeccD9Af88121A2C7D9F3cD5168c; // new admin address (ganache)\r\n\r\n    // ADMIN ACCESS\r\n    // only admin can see or change sensible data\r\n    modifier onlyAdmin {\r\n        require(msg.sender == admin, \"Access denied\");\r\n        _;\r\n    }\r\n\r\n    // CONSTRUCTOR\r\n    // this is only called once with the final version\r\n    constructor(address set, address eventSet) public onlyAdmin\r\n    {\r\n        // create users and events sets where the addresses are stored\r\n        user_storage = SetStorage.Set(set);\r\n\r\n        // create event storage set\r\n        event_storage = EventStorage.EventSet(eventSet);\r\n    }\r\n\r\n    /*\r\n    // INIT STORAGE\r\n    // this function must be called immediately after Constructor and helps to save gas costs\r\n    function init_storage() public onlyAdmin\r\n    {\r\n        // create users and events sets where the addresses are stored\r\n        user_storage = new SetStorage.Set();\r\n\r\n        // create event storage set\r\n        event_storage = new EventStorage.EventSet();\r\n    }\r\n    */\r\n\r\n    // EXPORT STORAGE\r\n    // for future upgrades\r\n    function export_storage() public view onlyAdmin returns (address user_storage_address, address event_storage_address)\r\n    {\r\n        return (address(user_storage), address(event_storage));\r\n    }\r\n\r\n\r\n    // USER MANAGEMENT\r\n\r\n    // user authentication\r\n    // only a user has access to his account, events, etc\r\n    modifier onlyUser {\r\n        require(user_storage.inArray(msg.sender), \"Access is only allowed for registered users\");\r\n        _;\r\n    }\r\n\r\n    // user login status\r\n    // access: everybody - every user has to log in\r\n    function login() public view returns(bool is_user)\r\n    {\r\n        // return login status\r\n        return user_storage.inArray(msg.sender);\r\n    }\r\n\r\n    // user registration\r\n    // access: everybody can register\r\n    function register() public\r\n    returns (uint user_id)\r\n    {\r\n        // user address\r\n        address payable user_address = msg.sender;\r\n\r\n        // check if user is already registered\r\n        require(!user_storage.inArray(user_address), \"User already registered\");\r\n\r\n        // register new user\r\n        user_storage.addToArray(user_address);\r\n\r\n        // return user id\r\n        return user_storage.getPosition(user_address);\r\n    }\r\n\r\n    // get user count\r\n    // access: admin only\r\n    function getUserCount() public view onlyAdmin returns(uint256 user_count)\r\n    {\r\n        return user_storage.getElementCount();\r\n    }\r\n\r\n    // get user address by id\r\n    // access: admin only\r\n    function getUserById(uint256 id) public view onlyAdmin returns(address payable user_address)\r\n    {\r\n        return payable(user_storage.getByPosition(id));\r\n    }\r\n\r\n\r\n    // EVENT MANAGEMENT\r\n\r\n    // event creation\r\n    // access: user only\r\n    function createUserEvent(\r\n        string memory event_name,\r\n        string memory event_location,\r\n        uint256 event_start_time,\r\n        uint256 event_end_time\r\n    ) public onlyUser returns (address new_event_address)\r\n    {\r\n        // new event\r\n        EventContract.Event new_event = new EventContract.Event(msg.sender, event_name, event_location, event_start_time, event_end_time);\r\n\r\n        // add event to event storage\r\n        event_storage.addToArray(new_event);\r\n\r\n        // add event address to event address storage\r\n        // event_address_storage.addToArray(address(new_event));\r\n\r\n        // return event address\r\n        return address(new_event);\r\n    }\r\n\r\n\r\n    // get event count\r\n    // access: admin only\r\n    function getEventCount() public view onlyAdmin returns(uint256 event_count)\r\n    {\r\n        return event_storage.getElementCount();\r\n    }\r\n\r\n    // get event by id\r\n    // access: admin only\r\n    function getEventById(uint event_id) public view onlyAdmin returns(EventContract.Event event_element)\r\n    {\r\n        return event_storage.getByPosition(event_id);\r\n    }\r\n\r\n    // get event position\r\n    // access: user only\r\n    function getEventPosition(address event_address) public view onlyUser returns(uint event_position)\r\n    {\r\n        return event_storage.getPosition(event_address);\r\n    }\r\n\r\n    // get event info\r\n    // access: user only\r\n    function getEventInfo(EventContract.Event event_address) public view onlyUser\r\n    returns(\r\n        address         event_id,\r\n        address         event_initiator,\r\n        string memory   event_name,\r\n        string memory   event_location,\r\n        uint256         event_start_time,\r\n        uint256         event_end_time,\r\n        uint256         event_created_time,\r\n        SetStorage.Set  event_participants\r\n    ) {\r\n        // return event info\r\n        return event_address.getInfo();\r\n    }\r\n\r\n    // get all events\r\n    // access: admin only\r\n    function getAllEvents() public view onlyAdmin returns(EventContract.Event[] memory all_events)\r\n    {\r\n        // return event array\r\n        return event_storage.getEventArray();\r\n    }\r\n\r\n    // get user events\r\n    // access: user only\r\n    function getUserEvents() public view onlyUser returns(address[] memory user_events)\r\n    {\r\n        // return user event array\r\n        return event_storage.getUserEventArray(msg.sender, false);\r\n    }\r\n\r\n    // get events where user participates\r\n    // access: user only\r\n    function getUserParticipantEvents() public view onlyUser returns(address[] memory user_participant_events)\r\n    {\r\n        // return user participant event array\r\n        return event_storage.getUserEventArray(msg.sender, true);\r\n    }\r\n\r\n    // participate at an event\r\n    // access: user only\r\n    function participateEventById(EventContract.Event event_address) public onlyUser\r\n    {\r\n        // participate at an event\r\n        event_address.participate(msg.sender);\r\n    }\r\n\r\n    // get event participants\r\n    // access: user only\r\n    function getEventParticipants(EventContract.Event event_address) public view onlyUser returns(address[] memory participants_array)\r\n    {\r\n        return event_address.getParticipantsArray();\r\n    }\r\n\r\n\r\n    // propose new event item\r\n    // access: user only\r\n    function createUserEventItem(EventContract.Event event_address, string memory event_item_name) public onlyUser\r\n    {\r\n        // create a new item\r\n        event_address.proposeItemToBringWith(msg.sender, event_item_name);\r\n    }\r\n\r\n    // get event item info\r\n    // access: user only\r\n    function getEventItemInfo(EventContract.Event event_address, uint event_item_id) public view onlyUser\r\n    returns (\r\n        uint256                 item_id,\r\n        address     payable     item_holder,\r\n        string      memory      item_name,\r\n        uint256                 item_time_expiration,\r\n        bool                    item_checked\r\n    )\r\n    {\r\n        return event_address.getItemInfo(event_item_id);\r\n    }\r\n\r\n    // get event item count\r\n    // access: user only\r\n    function getEventItemCount(EventContract.Event event_address) public view onlyUser\r\n    returns (uint item_count)\r\n    {\r\n        return event_address.getItemCount();\r\n    }\r\n\r\n    // update item state\r\n    // access: user only\r\n    function updateEventItemState(EventContract.Event event_address, uint item_id) public onlyUser\r\n    {\r\n        event_address.updatePartyItemCheck(msg.sender, item_id);\r\n    }\r\n\r\n    // remove event item\r\n    // access: user only\r\n    function removeEventItem(EventContract.Event event_address, uint event_item_id) public onlyUser\r\n    {\r\n        event_address.deletePartyItem(msg.sender, event_item_id);\r\n    }\r\n\r\n    // remove event\r\n    // access: user only\r\n    function removeEvent(EventContract.Event event_address) public onlyUser\r\n    {\r\n        event_storage.removeFromArray(event_address, msg.sender);\r\n    }\r\n\r\n}",
  "sourcePath": "C:/Users/Shane/Desktop/TestProject/contracts/EventManager.sol",
  "compiler": {
    "name": "solc",
    "version": "0.6.7+commit.b8d736ae.Emscripten.clang"
  },
  "schemaVersion": "3.2.2",
  "updatedAt": "2020-07-22T17:55:47.667Z",
  "networkType": "ethereum",
  "devdoc": {
    "methods": {}
  },
  "userdoc": {
    "methods": {}
  }
}